{
  "_format": "hh-sol-artifact-1",
  "contractName": "EasyMilestones",
  "sourceName": "contracts/EasyMilestones.sol",
  "abi": [
    {
      "anonymous": false,
      "inputs": [
        {
          "indexed": true,
          "internalType": "address",
          "name": "recipient",
          "type": "address"
        },
        {
          "indexed": false,
          "internalType": "uint256",
          "name": "amount",
          "type": "uint256"
        },
        {
          "indexed": false,
          "internalType": "uint256",
          "name": "timestamp",
          "type": "uint256"
        }
      ],
      "name": "FundsTransferred",
      "type": "event"
    },
    {
      "anonymous": false,
      "inputs": [
        {
          "indexed": false,
          "internalType": "uint256",
          "name": "amount",
          "type": "uint256"
        },
        {
          "indexed": false,
          "internalType": "uint256",
          "name": "deadline",
          "type": "uint256"
        }
      ],
      "name": "TransactionCreated",
      "type": "event"
    },
    {
      "inputs": [
        {
          "internalType": "uint256",
          "name": "_deadline",
          "type": "uint256"
        },
        {
          "components": [
            {
              "internalType": "uint256",
              "name": "amount",
              "type": "uint256"
            },
            {
              "internalType": "uint256",
              "name": "deadline",
              "type": "uint256"
            }
          ],
          "internalType": "struct EasyMilestones.MilestoneWithoutStatus[]",
          "name": "_milestones",
          "type": "tuple[]"
        }
      ],
      "name": "create_transaction",
      "outputs": [],
      "stateMutability": "payable",
      "type": "function"
    },
    {
      "inputs": [],
      "name": "get_transaction",
      "outputs": [
        {
          "components": [
            {
              "internalType": "uint256",
              "name": "amount",
              "type": "uint256"
            },
            {
              "internalType": "uint256",
              "name": "deadline",
              "type": "uint256"
            },
            {
              "components": [
                {
                  "internalType": "uint256",
                  "name": "amount",
                  "type": "uint256"
                },
                {
                  "internalType": "uint256",
                  "name": "deadline",
                  "type": "uint256"
                },
                {
                  "internalType": "enum EasyMilestones.Status",
                  "name": "status",
                  "type": "uint8"
                }
              ],
              "internalType": "struct EasyMilestones.Milestone[]",
              "name": "milestones",
              "type": "tuple[]"
            }
          ],
          "internalType": "struct EasyMilestones.Transaction",
          "name": "txn",
          "type": "tuple"
        }
      ],
      "stateMutability": "view",
      "type": "function"
    },
    {
      "inputs": [],
      "name": "process_due_milestones",
      "outputs": [],
      "stateMutability": "nonpayable",
      "type": "function"
    }
  ],
  "bytecode": "0x608060405234601c57600e6020565b6115a061002c82396115a090f35b6026565b60405190565b600080fdfe60806040526004361015610013575b610429565b61001e60003561004d565b8063248278e114610048578063778b4e651461004357638bfc40cd0361000e576103ff565b610216565b6101db565b60e01c90565b60405190565b600080fd5b600080fd5b600091031261006e57565b61005e565b90565b61007f90610073565b9052565b5190565b60209181520190565b60200190565b634e487b7160e01b600052602160045260246000fd5b600211156100b657565b610096565b906100c5826100ac565b565b6100d0906100bb565b90565b6100dc906100c7565b9052565b90604080610116936100fa60008201516000860190610076565b61010c60208201516020860190610076565b01519101906100d3565b565b90610125816060936100e0565b0190565b60200190565b9061014c61014661013f84610083565b8093610087565b92610090565b9060005b81811061015d5750505090565b9091926101766101706001928651610118565b94610129565b9101919091610150565b6101bf916040606082019261019d60008201516000850190610076565b6101af60208201516020850190610076565b015190604081840391015261012f565b90565b6101d89160208201916000818403910152610180565b90565b3461020b576101eb366004610063565b6102076101f66106e9565b6101fe610053565b918291826101c2565b0390f35b610059565b60000190565b3461024457610226366004610063565b61022e6108aa565b610236610053565b8061024081610210565b0390f35b610059565b600080fd5b61025781610073565b0361025e57565b600080fd5b905035906102708261024e565b565b600080fd5b601f801991011690565b634e487b7160e01b600052604160045260246000fd5b906102a190610277565b810190811067ffffffffffffffff8211176102bb57604052565b610281565b906102d36102cc610053565b9283610297565b565b67ffffffffffffffff81116102ed5760208091020190565b610281565b600080fd5b600080fd5b9190604083820312610338576103319061031660406102c0565b936103248260008301610263565b6000860152602001610263565b6020830152565b6102f7565b9092919261035261034d826102d5565b6102c0565b93818552604060208601920283019281841161039157915b8383106103775750505050565b602060409161038684866102fc565b81520192019161036a565b6102f2565b9080601f830112156103b4578160206103b19335910161033d565b90565b610272565b9190916040818403126103fa576103d38360008301610263565b92602082013567ffffffffffffffff81116103f5576103f29201610396565b90565b610249565b61005e565b61041361040d3660046103b9565b90611128565b61041b610053565b8061042581610210565b0390f35b600080fd5b61043860606102c0565b90565b600090565b606090565b61044d61042e565b90602080808461045b61043b565b81520161046661043b565b815201610471610440565b81525050565b61047f610445565b90565b60018060a01b031690565b90565b6104a461049f6104a992610482565b61048d565b610482565b90565b6104b590610490565b90565b6104c1906104ac565b90565b906104ce906104b8565b600052602052604060002090565b60001c90565b60ff1690565b6104f46104f9916104dc565b6104e2565b90565b61050690546104e8565b90565b90610513906104b8565b600052602052604060002090565b90565b610530610535916104dc565b610521565b90565b6105429054610524565b90565b9061054f90610073565b9052565b5490565b67ffffffffffffffff811161056f5760208091020190565b610281565b9061058661058183610557565b6102c0565b918252565b600052602060002090565b60ff1690565b6105a86105ad916104dc565b610596565b90565b6105ba905461059c565b90565b906105c7906100bb565b9052565b6105d560606102c0565b90565b9061062961062060026105e96105cb565b946106026105f960008301610538565b60008801610545565b61061a61061160018301610538565b60208801610545565b016105b0565b604084016105bd565b565b610634906105d8565b90565b9061064182610553565b61064a81610574565b92610658602085019161058b565b6000915b8383106106695750505050565b600360206001926106798561062b565b81520192019201919061065c565b52565b906106db6106d2600261069b61042e565b946106b46106ab60008301610538565b60008801610545565b6106cc6106c360018301610538565b60208801610545565b01610637565b60408401610687565b565b6106e69061068a565b90565b6106f1610477565b610705610700600033906104c4565b6104fc565b61070d575b90565b5061072261071d60023390610509565b6106dd565b61070a565b90565b61073e61073961074392610727565b61048d565b610073565b90565b634e487b7160e01b600052601160045260246000fd5b61076b61077191939293610073565b92610073565b9161077d838202610073565b92818404149015171561078c57565b610746565b90565b6107a86107a36107ad92610791565b61048d565b610073565b90565b60016107bc9101610073565b90565b5490565b634e487b7160e01b600052603260045260246000fd5b600052602060002090565b6107ed816107bf565b821015610808576107ff6001916107d9565b91020190600090565b6107c3565b1c90565b60018060a01b031690565b61082c906008610831930261080d565b610811565b90565b9061083f915461081c565b90565b61084b90610490565b90565b61085790610842565b90565b610863906104ac565b90565b906108709061085a565b600052602052604060002090565b90565b61088a81610553565b8210156108a55761089c60039161058b565b91020190600090565b6107c3565b6108bf426108b96103e861072a565b9061075c565b906108ca6000610794565b905b816108e86108e26108dd60016107bf565b610073565b91610073565b10156109955761090b610906610900600185906107e4565b90610834565b61084e565b61091f61091a60028390610866565b61087e565b9161092a6000610794565b5b8061094961094361093e60028801610553565b610073565b91610073565b10156109815761097c9061097784610965600288018490610881565b50906109718a9261062b565b90611315565b6107b0565b61092b565b5092905061098f91506107b0565b906108cc565b915050565b60209181520190565b60007f56616c7565206d7573742062652067726561746572207468616e203000000000910152565b6109d8601c60209261099a565b6109e1816109a3565b0190565b6109fb90602081019060008183039101526109cb565b90565b15610a0557565b610a0d610053565b62461bcd60e51b815280610a23600482016109e5565b0390fd5b90610a4e91610a4934610a43610a3d6000610794565b91610073565b116109fe565b610f8e565b565b151590565b60001b90565b90610a6760ff91610a55565b9181191691161790565b610a7a90610a50565b90565b90565b90610a95610a90610a9c92610a71565b610a7d565b8254610a5b565b9055565b90565b600052602060002090565b5490565b610abb81610aae565b821015610ad657610acd600191610aa3565b91020190600090565b6107c3565b1b90565b91906008610aff910291610af960018060a01b0384610adb565b92610adb565b9181191691161790565b90565b9190610b22610b1d610b2a936104b8565b610b09565b908354610adf565b9055565b9081549168010000000000000000831015610b5e5782610b56916001610b5c95018155610ab2565b90610b0c565b565b610281565b5190565b600090565b610b746105cb565b906020808084610b8261043b565b815201610b8d61043b565b815201610b98610b67565b81525050565b610ba6610b6c565b90565b60005b828110610bb857505050565b602090610bc3610b9e565b8184015201610bac565b90610bf2610bda83610574565b92602080610be88693610557565b9201910390610ba9565b565b90610bfe82610b63565b811015610c0f576020809102010190565b6107c3565b610c1e9051610073565b90565b610c2b60606102c0565b90565b90610c3882610083565b811015610c49576020809102010190565b6107c3565b610c5860606102c0565b90565b634e487b7160e01b600052600060045260246000fd5b90610c7e60001991610a55565b9181191691161790565b610c9c610c97610ca192610073565b61048d565b610073565b90565b90565b90610cbc610cb7610cc392610c88565b610ca4565b8254610c71565b9055565b5190565b610cd690600361075c565b90565b91906008610cf5910291610cef60001984610adb565b92610adb565b9181191691161790565b9190610d15610d10610d1d93610c88565b610ca4565b908354610cd9565b9055565b600090565b610d3891610d32610d21565b91610cff565b565b6002600091610d4b83808301610d26565b610d588360018301610d26565b0155565b90600003610d6f57610d6d90610d3a565b565b610c5b565b5b818110610d80575050565b80610d8e6000600393610d5c565b01610d75565b9091828110610da3575b505050565b610dc1610dbb610db5610dcc95610ccb565b92610ccb565b9261058b565b918201910190610d74565b388080610d9e565b90680100000000000000008111610dfd5781610df2610dfb93610553565b90828155610d94565b565b610281565b5190565b610e1090516100bb565b90565b610e1c906100bb565b90565b90565b90610e37610e32610e3e92610e13565b610e1f565b8254610a5b565b9055565b90610e8860406002610e8e94610e6760008201610e6160008801610c14565b90610ca7565b610e8060018201610e7a60208801610c14565b90610ca7565b019201610e06565b90610e22565b565b90610e9a91610e42565b565b610ec1610ebb610eab84610083565b93610eb68585610dd4565b610090565b9161058b565b6000915b838310610ed25750505050565b6003602082610eeb610ee5600195610e02565b86610e90565b01920192019190610ec5565b90610f0191610e9c565b565b90610f4960406002610f4f94610f2860008201610f2260008801610c14565b90610ca7565b610f4160018201610f3b60208801610c14565b90610ca7565b019201610cc7565b90610ef7565b565b90610f5b91610f03565b565b610f6690610073565b9052565b916020610f8c929493610f8560408201966000830190610f5d565b0190610f5d565b565b9091610fad610fa7610fa2600033906104c4565b6104fc565b15610a50565b6110f9575b610fc3610fbe84610b63565b610bcd565b90610fce6000610794565b5b80610fea610fe4610fdf88610b63565b610073565b91610073565b10156110745761106f9061106861100e6000611007898590610bf4565b5101610c14565b61105561102860206110218b8790610bf4565b5101610c14565b61104c600091611043611039610c21565b9560008701610545565b60208501610545565b604083016105bd565b8583916110628383610c2e565b52610c2e565b51506107b0565b610fcf565b5092506110bc906110ab34916110a28561109961108f610c4e565b9560008701610545565b60208501610545565b60408301610687565b6110b760023390610509565b610f51565b34907f6110ba4ca3a2a4b05be8a5160cfb9b4dfbdc1738e1c8e424a1546fc3f2bce843916110f46110eb610053565b92839283610f6a565b0390a1565b61110f600161110a600033906104c4565b610a80565b61112361111c6001610aa0565b3390610b2e565b610fb2565b9061113291610a27565b565b905090565b61114560008092611134565b0190565b61115290611139565b90565b67ffffffffffffffff81116111735761116f602091610277565b0190565b610281565b9061118a61118583611155565b6102c0565b918252565b606090565b3d6000146111b1576111a53d611178565b903d6000602084013e5b565b6111b961118f565b906111af565b60007f4661696c656420746f207472616e736665722066756e64730000000000000000910152565b6111f4601860209261099a565b6111fd816111bf565b0190565b61121790602081019060008183039101526111e7565b90565b1561122157565b611229610053565b62461bcd60e51b81528061123f60048201611201565b0390fd5b67ffffffffffffffff81116112615761125d602091610277565b0190565b610281565b9061127861127383611243565b6102c0565b918252565b60007f6e6f742070616964000000000000000000000000000000000000000000000000910152565b6112af6008611266565b906112bc6020830161127d565b565b6112c66112a5565b90565b60007f616c6c2070616964000000000000000000000000000000000000000000000000910152565b6112fb6008611266565b90611308602083016112c9565b565b6113126112f1565b90565b8261133361132d61132860208601610c14565b610073565b91610073565b10158061141b575b611345575b505050565b6113536001604084016105bd565b60008061135f8361085a565b61136a828601610c14565b611372610053565b908161137d81611149565b03925af1611389611194565b506113938161121a565b6000146114035760006113b7916113b06113ab61130a565b6114b4565b9201610c14565b916113e27f219e38014d0e72b05ead8a8d0258ebea4be20d0c2c1de6c08974a08a6c917f6b9261085a565b926113f76113ee610053565b92839283610f6a565b0390a25b388080611340565b5050506114166114116112be565b6114b4565b6113fb565b5061142860408301610e06565b61143b61143560006100bb565b916100bb565b1461133b565b5190565b60005b838110611459575050906000910152565b806020918301518185015201611448565b6114896114926020936114979361148081611441565b9384809361099a565b95869101611445565b610277565b0190565b6114b1916020820191600081840391015261146a565b90565b6114df6114ee6114f3926114c6610053565b92839160046020840163104c13eb60e21b81520161149b565b60208201810382520382610297565b6114f5565b565b611508906115036001611536565b611558565b565b6a636f6e736f6c652e6c6f6790565b6000809161152561150a565b602082519201905afa50565b600090565b61153e611531565b5090565b634e487b7160e01b600052605160045260246000fd5b6001036115425761156890611519565b56fea26469706673582212201453a00d72bb7aa77b101d6664511e79832277ef81bc9cf55150d536ef50b67464736f6c634300081c0033",
  "linkReferences": {},
  "deployedLinkReferences": {}
}