{
  "_format": "hh-sol-artifact-1",
  "contractName": "EasyMilestones",
  "sourceName": "contracts/EasyMilestones.sol",
  "abi": [
    {
      "inputs": [
        {
          "internalType": "uint256",
          "name": "_deadline",
          "type": "uint256"
        },
        {
          "components": [
            {
              "internalType": "uint256",
              "name": "amount",
              "type": "uint256"
            },
            {
              "internalType": "uint256",
              "name": "deadline",
              "type": "uint256"
            },
            {
              "internalType": "enum EasyMilestones.Status",
              "name": "status",
              "type": "uint8"
            }
          ],
          "internalType": "struct EasyMilestones.Milestone[]",
          "name": "_milestones",
          "type": "tuple[]"
        }
      ],
      "name": "create_transaction",
      "outputs": [],
      "stateMutability": "payable",
      "type": "function"
    },
    {
      "inputs": [],
      "name": "get_transaction",
      "outputs": [
        {
          "components": [
            {
              "internalType": "uint256",
              "name": "amount",
              "type": "uint256"
            },
            {
              "internalType": "uint256",
              "name": "deadline",
              "type": "uint256"
            },
            {
              "components": [
                {
                  "internalType": "uint256",
                  "name": "amount",
                  "type": "uint256"
                },
                {
                  "internalType": "uint256",
                  "name": "deadline",
                  "type": "uint256"
                },
                {
                  "internalType": "enum EasyMilestones.Status",
                  "name": "status",
                  "type": "uint8"
                }
              ],
              "internalType": "struct EasyMilestones.Milestone[]",
              "name": "milestones",
              "type": "tuple[]"
            }
          ],
          "internalType": "struct EasyMilestones.Transaction",
          "name": "",
          "type": "tuple"
        }
      ],
      "stateMutability": "view",
      "type": "function"
    }
  ],
  "bytecode": "0x608060405234601c57600e6020565b610a9d61002c8239610a9d90f35b6026565b60405190565b600080fdfe60806040526004361015610013575b610416565b61001e60003561003d565b8063248278e1146100385763d4ab871d0361000e576103ec565b6101cb565b60e01c90565b60405190565b600080fd5b600080fd5b600091031261005e57565b61004e565b90565b61006f90610063565b9052565b5190565b60209181520190565b60200190565b634e487b7160e01b600052602160045260246000fd5b600211156100a657565b610086565b906100b58261009c565b565b6100c0906100ab565b90565b6100cc906100b7565b9052565b90604080610106936100ea60008201516000860190610066565b6100fc60208201516020860190610066565b01519101906100c3565b565b90610115816060936100d0565b0190565b60200190565b9061013c61013661012f84610073565b8093610077565b92610080565b9060005b81811061014d5750505090565b9091926101666101606001928651610108565b94610119565b9101919091610140565b6101af916040606082019261018d60008201516000850190610066565b61019f60208201516020850190610066565b015190604081840391015261011f565b90565b6101c89160208201916000818403910152610170565b90565b346101fb576101db366004610053565b6101f76101e661067a565b6101ee610043565b918291826101b2565b0390f35b610049565b600080fd5b61020e81610063565b0361021557565b600080fd5b9050359061022782610205565b565b600080fd5b601f801991011690565b634e487b7160e01b600052604160045260246000fd5b906102589061022e565b810190811067ffffffffffffffff82111761027257604052565b610238565b9061028a610283610043565b928361024e565b565b67ffffffffffffffff81116102a45760208091020190565b610238565b600080fd5b600080fd5b600211156102bd57565b600080fd5b905035906102cf826102b3565b565b919060608382031261031f57610318906102eb6060610277565b936102f9826000830161021a565b600086015261030b826020830161021a565b60208601526040016102c2565b6040830152565b6102ae565b909291926103396103348261028c565b610277565b93818552606060208601920283019281841161037857915b83831061035e5750505050565b602060609161036d84866102d1565b815201920191610351565b6102a9565b9080601f8301121561039b5781602061039893359101610324565b90565b610229565b9190916040818403126103e1576103ba836000830161021a565b92602082013567ffffffffffffffff81116103dc576103d9920161037d565b90565b610200565b61004e565b60000190565b6104006103fa3660046103a0565b90610a21565b610408610043565b80610412816103e6565b0390f35b600080fd5b6104256060610277565b90565b600090565b606090565b61043a61041b565b906020808084610448610428565b815201610453610428565b81520161045e61042d565b81525050565b61046c610432565b90565b60018060a01b031690565b90565b61049161048c6104969261046f565b61047a565b61046f565b90565b6104a29061047d565b90565b6104ae90610499565b90565b906104bb906104a5565b600052602052604060002090565b60001c90565b90565b6104de6104e3916104c9565b6104cf565b90565b6104f090546104d2565b90565b906104fd90610063565b9052565b5490565b906105176105128361028c565b610277565b918252565b600052602060002090565b60ff1690565b61053961053e916104c9565b610527565b90565b61054b905461052d565b90565b90610558906100ab565b9052565b6105666060610277565b90565b906105ba6105b1600261057a61055c565b9461059361058a600083016104e6565b600088016104f3565b6105ab6105a2600183016104e6565b602088016104f3565b01610541565b6040840161054e565b565b6105c590610569565b90565b906105d282610501565b6105db81610505565b926105e9602085019161051c565b6000915b8383106105fa5750505050565b6003602060019261060a856105bc565b8152019201920191906105ed565b52565b9061066c610663600261062c61041b565b9461064561063c600083016104e6565b600088016104f3565b61065d610654600183016104e6565b602088016104f3565b016105c8565b60408401610618565b565b6106779061061b565b90565b610682610464565b50610697610692600033906104b1565b61066e565b90565b6106a46060610277565b90565b634e487b7160e01b600052600060045260246000fd5b6106c79051610063565b90565b60001b90565b906106dd600019916106ca565b9181191691161790565b6106fb6106f661070092610063565b61047a565b610063565b90565b90565b9061071b610716610722926106e7565b610703565b82546106d0565b9055565b5190565b634e487b7160e01b600052601160045260246000fd5b61074f61075591939293610063565b92610063565b91610761838202610063565b92818404149015171561077057565b61072a565b610780906003610740565b90565b1b90565b919060086107a391029161079d60001984610783565b92610783565b9181191691161790565b91906107c36107be6107cb936106e7565b610703565b908354610787565b9055565b600090565b6107e6916107e06107cf565b916107ad565b565b60026000916107f9838083016107d4565b61080683600183016107d4565b0155565b9060000361081d5761081b906107e8565b565b6106a7565b5b81811061082e575050565b8061083c600060039361080a565b01610823565b9091828110610851575b505050565b61086f61086961086361087a95610775565b92610775565b9261051c565b918201910190610822565b38808061084c565b906801000000000000000081116108ab57816108a06108a993610501565b90828155610842565b565b610238565b5190565b6108be90516100ab565b90565b906108cd60ff916106ca565b9181191691161790565b6108e0906100ab565b90565b90565b906108fb6108f6610902926108d7565b6108e3565b82546108c1565b9055565b9061094c604060026109529461092b60008201610925600088016106bd565b90610706565b6109446001820161093e602088016106bd565b90610706565b0192016108b4565b906108e6565b565b9061095e91610906565b565b61098561097f61096f84610073565b9361097a8585610882565b610080565b9161051c565b6000915b8383106109965750505050565b60036020826109af6109a96001956108b0565b86610954565b01920192019190610989565b906109c591610960565b565b90610a0d60406002610a13946109ec600082016109e6600088016106bd565b90610706565b610a05600182016109ff602088016106bd565b90610706565b019201610726565b906109bb565b565b90610a1f916109c7565b565b610a60610a6592610a593391610a503495610a47610a3d61069a565b97600089016104f3565b602087016104f3565b60408501610618565b60006104b1565b610a15565b56fea264697066735822122078f83e796e907b9123a525ca2a3c70cd8c02c324b1195acce4b05838a90eaa5d64736f6c634300081c0033",
  "linkReferences": {},
  "deployedLinkReferences": {}
}