{
  "_format": "hh-sol-artifact-1",
  "contractName": "EasyMilestones",
  "sourceName": "contracts/EasyMilestones.sol",
  "abi": [
    {
      "inputs": [
        {
          "internalType": "uint256",
          "name": "_deadline",
          "type": "uint256"
        },
        {
          "components": [
            {
              "internalType": "uint256",
              "name": "amount",
              "type": "uint256"
            },
            {
              "internalType": "uint256",
              "name": "deadline",
              "type": "uint256"
            }
          ],
          "internalType": "struct EasyMilestones.MilestoneWithoutStatus[]",
          "name": "_milestones",
          "type": "tuple[]"
        }
      ],
      "name": "create_transaction",
      "outputs": [],
      "stateMutability": "payable",
      "type": "function"
    },
    {
      "inputs": [],
      "name": "get_transaction",
      "outputs": [
        {
          "components": [
            {
              "internalType": "uint256",
              "name": "amount",
              "type": "uint256"
            },
            {
              "internalType": "uint256",
              "name": "deadline",
              "type": "uint256"
            },
            {
              "components": [
                {
                  "internalType": "uint256",
                  "name": "amount",
                  "type": "uint256"
                },
                {
                  "internalType": "uint256",
                  "name": "deadline",
                  "type": "uint256"
                },
                {
                  "internalType": "enum EasyMilestones.Status",
                  "name": "status",
                  "type": "uint8"
                }
              ],
              "internalType": "struct EasyMilestones.Milestone[]",
              "name": "milestones",
              "type": "tuple[]"
            }
          ],
          "internalType": "struct EasyMilestones.Transaction",
          "name": "",
          "type": "tuple"
        }
      ],
      "stateMutability": "view",
      "type": "function"
    }
  ],
  "bytecode": "0x608060405234601c57600e6020565b610d3661002c8239610d3690f35b6026565b60405190565b600080fdfe60806040526004361015610013575b6103e6565b61001e60003561003d565b8063248278e11461003857638bfc40cd0361000e576103bc565b6101cb565b60e01c90565b60405190565b600080fd5b600080fd5b600091031261005e57565b61004e565b90565b61006f90610063565b9052565b5190565b60209181520190565b60200190565b634e487b7160e01b600052602160045260246000fd5b600211156100a657565b610086565b906100b58261009c565b565b6100c0906100ab565b90565b6100cc906100b7565b9052565b90604080610106936100ea60008201516000860190610066565b6100fc60208201516020860190610066565b01519101906100c3565b565b90610115816060936100d0565b0190565b60200190565b9061013c61013661012f84610073565b8093610077565b92610080565b9060005b81811061014d5750505090565b9091926101666101606001928651610108565b94610119565b9101919091610140565b6101af916040606082019261018d60008201516000850190610066565b61019f60208201516020850190610066565b015190604081840391015261011f565b90565b6101c89160208201916000818403910152610170565b90565b346101fb576101db366004610053565b6101f76101e6610667565b6101ee610043565b918291826101b2565b0390f35b610049565b600080fd5b61020e81610063565b0361021557565b600080fd5b9050359061022782610205565b565b600080fd5b601f801991011690565b634e487b7160e01b600052604160045260246000fd5b906102589061022e565b810190811067ffffffffffffffff82111761027257604052565b610238565b9061028a610283610043565b928361024e565b565b67ffffffffffffffff81116102a45760208091020190565b610238565b600080fd5b600080fd5b91906040838203126102ef576102e8906102cd6040610277565b936102db826000830161021a565b600086015260200161021a565b6020830152565b6102ae565b909291926103096103048261028c565b610277565b93818552604060208601920283019281841161034857915b83831061032e5750505050565b602060409161033d84866102b3565b815201920191610321565b6102a9565b9080601f8301121561036b57816020610368933591016102f4565b90565b610229565b9190916040818403126103b15761038a836000830161021a565b92602082013567ffffffffffffffff81116103ac576103a9920161034d565b90565b610200565b61004e565b60000190565b6103d06103ca366004610370565b90610cf4565b6103d8610043565b806103e2816103b6565b0390f35b600080fd5b6103f56060610277565b90565b600090565b606090565b61040a6103eb565b9060208080846104186103f8565b8152016104236103f8565b81520161042e6103fd565b81525050565b61043c610402565b90565b60018060a01b031690565b90565b61046161045c6104669261043f565b61044a565b61043f565b90565b6104729061044d565b90565b61047e90610469565b90565b9061048b90610475565b600052602052604060002090565b60001c90565b90565b6104ae6104b391610499565b61049f565b90565b6104c090546104a2565b90565b906104cd90610063565b9052565b5490565b67ffffffffffffffff81116104ed5760208091020190565b610238565b906105046104ff836104d5565b610277565b918252565b600052602060002090565b60ff1690565b61052661052b91610499565b610514565b90565b610538905461051a565b90565b90610545906100ab565b9052565b6105536060610277565b90565b906105a761059e6002610567610549565b94610580610577600083016104b6565b600088016104c3565b61059861058f600183016104b6565b602088016104c3565b0161052e565b6040840161053b565b565b6105b290610556565b90565b906105bf826104d1565b6105c8816104f2565b926105d66020850191610509565b6000915b8383106105e75750505050565b600360206001926105f7856105a9565b8152019201920191906105da565b52565b9061065961065060026106196103eb565b94610632610629600083016104b6565b600088016104c3565b61064a610641600183016104b6565b602088016104c3565b016105b5565b60408401610605565b565b61066490610608565b90565b61066f610434565b5061068461067f60003390610481565b61065b565b90565b90565b61069e6106996106a392610687565b61044a565b610063565b90565b60209181520190565b60007f56616c7565206d7573742062652067726561746572207468616e203000000000910152565b6106e4601c6020926106a6565b6106ed816106af565b0190565b61070790602081019060008183039101526106d7565b90565b1561071157565b610719610043565b62461bcd60e51b81528061072f600482016106f1565b0390fd5b9061075a916107553461074f610749600061068a565b91610063565b1161070a565b610be6565b565b5190565b600090565b61076d610549565b90602080808461077b6103f8565b8152016107866103f8565b815201610791610760565b81525050565b61079f610765565b90565b60005b8281106107b157505050565b6020906107bc610797565b81840152016107a5565b906107eb6107d3836104f2565b926020806107e186936104d5565b92019103906107a2565b565b60016107f99101610063565b90565b634e487b7160e01b600052603260045260246000fd5b9061081c8261075c565b81101561082d576020809102010190565b6107fc565b61083c9051610063565b90565b6108496060610277565b90565b9061085682610073565b811015610867576020809102010190565b6107fc565b6108766060610277565b90565b634e487b7160e01b600052600060045260246000fd5b60001b90565b906108a26000199161088f565b9181191691161790565b6108c06108bb6108c592610063565b61044a565b610063565b90565b90565b906108e06108db6108e7926108ac565b6108c8565b8254610895565b9055565b5190565b634e487b7160e01b600052601160045260246000fd5b61091461091a91939293610063565b92610063565b91610926838202610063565b92818404149015171561093557565b6108ef565b610945906003610905565b90565b1b90565b9190600861096891029161096260001984610948565b92610948565b9181191691161790565b9190610988610983610990936108ac565b6108c8565b90835461094c565b9055565b600090565b6109ab916109a5610994565b91610972565b565b60026000916109be83808301610999565b6109cb8360018301610999565b0155565b906000036109e2576109e0906109ad565b565b610879565b5b8181106109f3575050565b80610a0160006003936109cf565b016109e8565b9091828110610a16575b505050565b610a34610a2e610a28610a3f9561093a565b9261093a565b92610509565b9182019101906109e7565b388080610a11565b90680100000000000000008111610a705781610a65610a6e936104d1565b90828155610a07565b565b610238565b5190565b610a8390516100ab565b90565b90610a9260ff9161088f565b9181191691161790565b610aa5906100ab565b90565b90565b90610ac0610abb610ac792610a9c565b610aa8565b8254610a86565b9055565b90610b1160406002610b1794610af060008201610aea60008801610832565b906108cb565b610b0960018201610b0360208801610832565b906108cb565b019201610a79565b90610aab565b565b90610b2391610acb565b565b610b4a610b44610b3484610073565b93610b3f8585610a47565b610080565b91610509565b6000915b838310610b5b5750505050565b6003602082610b74610b6e600195610a75565b86610b19565b01920192019190610b4e565b90610b8a91610b25565b565b90610bd260406002610bd894610bb160008201610bab60008801610832565b906108cb565b610bca60018201610bc460208801610832565b906108cb565b0192016108eb565b90610b80565b565b90610be491610b8c565b565b9091610bf9610bf48461075c565b6107c6565b90610c04600061068a565b5b80610c20610c1a610c158861075c565b610063565b91610063565b1015610caa57610ca590610c9e610c446000610c3d898590610812565b5101610832565b610c8b610c5e6020610c578b8790610812565b5101610832565b610c82600091610c79610c6f61083f565b95600087016104c3565b602085016104c3565b6040830161053b565b858391610c98838361084c565b5261084c565b51506107ed565b610c05565b50925090610ce1610cf292610cd83493610ccf610cc561086c565b95600087016104c3565b602085016104c3565b60408301610605565b610ced60003390610481565b610bda565b565b90610cfe91610733565b56fea2646970667358221220d777a295a21523eba348ca136955e3c877de1ba85a83c7ae5607133f4c15ac0164736f6c634300081c0033",
  "linkReferences": {},
  "deployedLinkReferences": {}
}