{"contracts/EasyMilestones.sol":{"EasyMilestones":{"abi":[{"anonymous":false,"inputs":[{"indexed":true,"internalType":"address","name":"recipient","type":"address"},{"indexed":false,"internalType":"uint256","name":"amount","type":"uint256"},{"indexed":false,"internalType":"uint256","name":"timestamp","type":"uint256"}],"name":"FundsTransferred","type":"event"},{"anonymous":false,"inputs":[{"indexed":false,"internalType":"uint256","name":"amount","type":"uint256"},{"indexed":false,"internalType":"uint256","name":"deadline","type":"uint256"}],"name":"TransactionCreated","type":"event"},{"inputs":[{"internalType":"uint256","name":"_deadline","type":"uint256"},{"components":[{"internalType":"uint256","name":"amount","type":"uint256"},{"internalType":"uint256","name":"deadline","type":"uint256"}],"internalType":"struct EasyMilestones.MilestoneWithoutStatus[]","name":"_milestones","type":"tuple[]"}],"name":"create_transaction","outputs":[],"stateMutability":"payable","type":"function"},{"inputs":[],"name":"get_transaction","outputs":[{"components":[{"internalType":"uint256","name":"amount","type":"uint256"},{"internalType":"uint256","name":"deadline","type":"uint256"},{"components":[{"internalType":"uint256","name":"amount","type":"uint256"},{"internalType":"uint256","name":"deadline","type":"uint256"},{"internalType":"enum EasyMilestones.Status","name":"status","type":"uint8"}],"internalType":"struct EasyMilestones.Milestone[]","name":"milestones","type":"tuple[]"}],"internalType":"struct EasyMilestones.Transaction","name":"txn","type":"tuple"}],"stateMutability":"view","type":"function"},{"inputs":[],"name":"process_due_milestones","outputs":[],"stateMutability":"nonpayable","type":"function"}],"evm":{"bytecode":{"linkReferences":{},"object":"608060405234601c57600e6020565b6115a061002c82396115a090f35b6026565b60405190565b600080fdfe60806040526004361015610013575b610429565b61001e60003561004d565b8063248278e114610048578063778b4e651461004357638bfc40cd0361000e576103ff565b610216565b6101db565b60e01c90565b60405190565b600080fd5b600080fd5b600091031261006e57565b61005e565b90565b61007f90610073565b9052565b5190565b60209181520190565b60200190565b634e487b7160e01b600052602160045260246000fd5b600211156100b657565b610096565b906100c5826100ac565b565b6100d0906100bb565b90565b6100dc906100c7565b9052565b90604080610116936100fa60008201516000860190610076565b61010c60208201516020860190610076565b01519101906100d3565b565b90610125816060936100e0565b0190565b60200190565b9061014c61014661013f84610083565b8093610087565b92610090565b9060005b81811061015d5750505090565b9091926101766101706001928651610118565b94610129565b9101919091610150565b6101bf916040606082019261019d60008201516000850190610076565b6101af60208201516020850190610076565b015190604081840391015261012f565b90565b6101d89160208201916000818403910152610180565b90565b3461020b576101eb366004610063565b6102076101f66106e9565b6101fe610053565b918291826101c2565b0390f35b610059565b60000190565b3461024457610226366004610063565b61022e6108aa565b610236610053565b8061024081610210565b0390f35b610059565b600080fd5b61025781610073565b0361025e57565b600080fd5b905035906102708261024e565b565b600080fd5b601f801991011690565b634e487b7160e01b600052604160045260246000fd5b906102a190610277565b810190811067ffffffffffffffff8211176102bb57604052565b610281565b906102d36102cc610053565b9283610297565b565b67ffffffffffffffff81116102ed5760208091020190565b610281565b600080fd5b600080fd5b9190604083820312610338576103319061031660406102c0565b936103248260008301610263565b6000860152602001610263565b6020830152565b6102f7565b9092919261035261034d826102d5565b6102c0565b93818552604060208601920283019281841161039157915b8383106103775750505050565b602060409161038684866102fc565b81520192019161036a565b6102f2565b9080601f830112156103b4578160206103b19335910161033d565b90565b610272565b9190916040818403126103fa576103d38360008301610263565b92602082013567ffffffffffffffff81116103f5576103f29201610396565b90565b610249565b61005e565b61041361040d3660046103b9565b90611128565b61041b610053565b8061042581610210565b0390f35b600080fd5b61043860606102c0565b90565b600090565b606090565b61044d61042e565b90602080808461045b61043b565b81520161046661043b565b815201610471610440565b81525050565b61047f610445565b90565b60018060a01b031690565b90565b6104a461049f6104a992610482565b61048d565b610482565b90565b6104b590610490565b90565b6104c1906104ac565b90565b906104ce906104b8565b600052602052604060002090565b60001c90565b60ff1690565b6104f46104f9916104dc565b6104e2565b90565b61050690546104e8565b90565b90610513906104b8565b600052602052604060002090565b90565b610530610535916104dc565b610521565b90565b6105429054610524565b90565b9061054f90610073565b9052565b5490565b67ffffffffffffffff811161056f5760208091020190565b610281565b9061058661058183610557565b6102c0565b918252565b600052602060002090565b60ff1690565b6105a86105ad916104dc565b610596565b90565b6105ba905461059c565b90565b906105c7906100bb565b9052565b6105d560606102c0565b90565b9061062961062060026105e96105cb565b946106026105f960008301610538565b60008801610545565b61061a61061160018301610538565b60208801610545565b016105b0565b604084016105bd565b565b610634906105d8565b90565b9061064182610553565b61064a81610574565b92610658602085019161058b565b6000915b8383106106695750505050565b600360206001926106798561062b565b81520192019201919061065c565b52565b906106db6106d2600261069b61042e565b946106b46106ab60008301610538565b60008801610545565b6106cc6106c360018301610538565b60208801610545565b01610637565b60408401610687565b565b6106e69061068a565b90565b6106f1610477565b610705610700600033906104c4565b6104fc565b61070d575b90565b5061072261071d60023390610509565b6106dd565b61070a565b90565b61073e61073961074392610727565b61048d565b610073565b90565b634e487b7160e01b600052601160045260246000fd5b61076b61077191939293610073565b92610073565b9161077d838202610073565b92818404149015171561078c57565b610746565b90565b6107a86107a36107ad92610791565b61048d565b610073565b90565b60016107bc9101610073565b90565b5490565b634e487b7160e01b600052603260045260246000fd5b600052602060002090565b6107ed816107bf565b821015610808576107ff6001916107d9565b91020190600090565b6107c3565b1c90565b60018060a01b031690565b61082c906008610831930261080d565b610811565b90565b9061083f915461081c565b90565b61084b90610490565b90565b61085790610842565b90565b610863906104ac565b90565b906108709061085a565b600052602052604060002090565b90565b61088a81610553565b8210156108a55761089c60039161058b565b91020190600090565b6107c3565b6108bf426108b96103e861072a565b9061075c565b906108ca6000610794565b905b816108e86108e26108dd60016107bf565b610073565b91610073565b10156109955761090b610906610900600185906107e4565b90610834565b61084e565b61091f61091a60028390610866565b61087e565b9161092a6000610794565b5b8061094961094361093e60028801610553565b610073565b91610073565b10156109815761097c9061097784610965600288018490610881565b50906109718a9261062b565b90611315565b6107b0565b61092b565b5092905061098f91506107b0565b906108cc565b915050565b60209181520190565b60007f56616c7565206d7573742062652067726561746572207468616e203000000000910152565b6109d8601c60209261099a565b6109e1816109a3565b0190565b6109fb90602081019060008183039101526109cb565b90565b15610a0557565b610a0d610053565b62461bcd60e51b815280610a23600482016109e5565b0390fd5b90610a4e91610a4934610a43610a3d6000610794565b91610073565b116109fe565b610f8e565b565b151590565b60001b90565b90610a6760ff91610a55565b9181191691161790565b610a7a90610a50565b90565b90565b90610a95610a90610a9c92610a71565b610a7d565b8254610a5b565b9055565b90565b600052602060002090565b5490565b610abb81610aae565b821015610ad657610acd600191610aa3565b91020190600090565b6107c3565b1b90565b91906008610aff910291610af960018060a01b0384610adb565b92610adb565b9181191691161790565b90565b9190610b22610b1d610b2a936104b8565b610b09565b908354610adf565b9055565b9081549168010000000000000000831015610b5e5782610b56916001610b5c95018155610ab2565b90610b0c565b565b610281565b5190565b600090565b610b746105cb565b906020808084610b8261043b565b815201610b8d61043b565b815201610b98610b67565b81525050565b610ba6610b6c565b90565b60005b828110610bb857505050565b602090610bc3610b9e565b8184015201610bac565b90610bf2610bda83610574565b92602080610be88693610557565b9201910390610ba9565b565b90610bfe82610b63565b811015610c0f576020809102010190565b6107c3565b610c1e9051610073565b90565b610c2b60606102c0565b90565b90610c3882610083565b811015610c49576020809102010190565b6107c3565b610c5860606102c0565b90565b634e487b7160e01b600052600060045260246000fd5b90610c7e60001991610a55565b9181191691161790565b610c9c610c97610ca192610073565b61048d565b610073565b90565b90565b90610cbc610cb7610cc392610c88565b610ca4565b8254610c71565b9055565b5190565b610cd690600361075c565b90565b91906008610cf5910291610cef60001984610adb565b92610adb565b9181191691161790565b9190610d15610d10610d1d93610c88565b610ca4565b908354610cd9565b9055565b600090565b610d3891610d32610d21565b91610cff565b565b6002600091610d4b83808301610d26565b610d588360018301610d26565b0155565b90600003610d6f57610d6d90610d3a565b565b610c5b565b5b818110610d80575050565b80610d8e6000600393610d5c565b01610d75565b9091828110610da3575b505050565b610dc1610dbb610db5610dcc95610ccb565b92610ccb565b9261058b565b918201910190610d74565b388080610d9e565b90680100000000000000008111610dfd5781610df2610dfb93610553565b90828155610d94565b565b610281565b5190565b610e1090516100bb565b90565b610e1c906100bb565b90565b90565b90610e37610e32610e3e92610e13565b610e1f565b8254610a5b565b9055565b90610e8860406002610e8e94610e6760008201610e6160008801610c14565b90610ca7565b610e8060018201610e7a60208801610c14565b90610ca7565b019201610e06565b90610e22565b565b90610e9a91610e42565b565b610ec1610ebb610eab84610083565b93610eb68585610dd4565b610090565b9161058b565b6000915b838310610ed25750505050565b6003602082610eeb610ee5600195610e02565b86610e90565b01920192019190610ec5565b90610f0191610e9c565b565b90610f4960406002610f4f94610f2860008201610f2260008801610c14565b90610ca7565b610f4160018201610f3b60208801610c14565b90610ca7565b019201610cc7565b90610ef7565b565b90610f5b91610f03565b565b610f6690610073565b9052565b916020610f8c929493610f8560408201966000830190610f5d565b0190610f5d565b565b9091610fad610fa7610fa2600033906104c4565b6104fc565b15610a50565b6110f9575b610fc3610fbe84610b63565b610bcd565b90610fce6000610794565b5b80610fea610fe4610fdf88610b63565b610073565b91610073565b10156110745761106f9061106861100e6000611007898590610bf4565b5101610c14565b61105561102860206110218b8790610bf4565b5101610c14565b61104c600091611043611039610c21565b9560008701610545565b60208501610545565b604083016105bd565b8583916110628383610c2e565b52610c2e565b51506107b0565b610fcf565b5092506110bc906110ab34916110a28561109961108f610c4e565b9560008701610545565b60208501610545565b60408301610687565b6110b760023390610509565b610f51565b34907f6110ba4ca3a2a4b05be8a5160cfb9b4dfbdc1738e1c8e424a1546fc3f2bce843916110f46110eb610053565b92839283610f6a565b0390a1565b61110f600161110a600033906104c4565b610a80565b61112361111c6001610aa0565b3390610b2e565b610fb2565b9061113291610a27565b565b905090565b61114560008092611134565b0190565b61115290611139565b90565b67ffffffffffffffff81116111735761116f602091610277565b0190565b610281565b9061118a61118583611155565b6102c0565b918252565b606090565b3d6000146111b1576111a53d611178565b903d6000602084013e5b565b6111b961118f565b906111af565b60007f4661696c656420746f207472616e736665722066756e64730000000000000000910152565b6111f4601860209261099a565b6111fd816111bf565b0190565b61121790602081019060008183039101526111e7565b90565b1561122157565b611229610053565b62461bcd60e51b81528061123f60048201611201565b0390fd5b67ffffffffffffffff81116112615761125d602091610277565b0190565b610281565b9061127861127383611243565b6102c0565b918252565b60007f6e6f742070616964000000000000000000000000000000000000000000000000910152565b6112af6008611266565b906112bc6020830161127d565b565b6112c66112a5565b90565b60007f616c6c2070616964000000000000000000000000000000000000000000000000910152565b6112fb6008611266565b90611308602083016112c9565b565b6113126112f1565b90565b8261133361132d61132860208601610c14565b610073565b91610073565b10158061141b575b611345575b505050565b6113536001604084016105bd565b60008061135f8361085a565b61136a828601610c14565b611372610053565b908161137d81611149565b03925af1611389611194565b506113938161121a565b6000146114035760006113b7916113b06113ab61130a565b6114b4565b9201610c14565b916113e27f219e38014d0e72b05ead8a8d0258ebea4be20d0c2c1de6c08974a08a6c917f6b9261085a565b926113f76113ee610053565b92839283610f6a565b0390a25b388080611340565b5050506114166114116112be565b6114b4565b6113fb565b5061142860408301610e06565b61143b61143560006100bb565b916100bb565b1461133b565b5190565b60005b838110611459575050906000910152565b806020918301518185015201611448565b6114896114926020936114979361148081611441565b9384809361099a565b95869101611445565b610277565b0190565b6114b1916020820191600081840391015261146a565b90565b6114df6114ee6114f3926114c6610053565b92839160046020840163104c13eb60e21b81520161149b565b60208201810382520382610297565b6114f5565b565b611508906115036001611536565b611558565b565b6a636f6e736f6c652e6c6f6790565b6000809161152561150a565b602082519201905afa50565b600090565b61153e611531565b5090565b634e487b7160e01b600052605160045260246000fd5b6001036115425761156890611519565b56fea26469706673582212201453a00d72bb7aa77b101d6664511e79832277ef81bc9cf55150d536ef50b67464736f6c634300081c0033","opcodes":"PUSH1 0x80 PUSH1 0x40 MSTORE CALLVALUE PUSH1 0x1C JUMPI PUSH1 0xE PUSH1 0x20 JUMP JUMPDEST PUSH2 0x15A0 PUSH2 0x2C DUP3 CODECOPY PUSH2 0x15A0 SWAP1 RETURN JUMPDEST PUSH1 0x26 JUMP JUMPDEST PUSH1 0x40 MLOAD SWAP1 JUMP JUMPDEST PUSH1 0x0 DUP1 REVERT INVALID PUSH1 0x80 PUSH1 0x40 MSTORE PUSH1 0x4 CALLDATASIZE LT ISZERO PUSH2 0x13 JUMPI JUMPDEST PUSH2 0x429 JUMP JUMPDEST PUSH2 0x1E PUSH1 0x0 CALLDATALOAD PUSH2 0x4D JUMP JUMPDEST DUP1 PUSH4 0x248278E1 EQ PUSH2 0x48 JUMPI DUP1 PUSH4 0x778B4E65 EQ PUSH2 0x43 JUMPI PUSH4 0x8BFC40CD SUB PUSH2 0xE JUMPI PUSH2 0x3FF JUMP JUMPDEST PUSH2 0x216 JUMP JUMPDEST PUSH2 0x1DB JUMP JUMPDEST PUSH1 0xE0 SHR SWAP1 JUMP JUMPDEST PUSH1 0x40 MLOAD SWAP1 JUMP JUMPDEST PUSH1 0x0 DUP1 REVERT JUMPDEST PUSH1 0x0 DUP1 REVERT JUMPDEST PUSH1 0x0 SWAP2 SUB SLT PUSH2 0x6E JUMPI JUMP JUMPDEST PUSH2 0x5E JUMP JUMPDEST SWAP1 JUMP JUMPDEST PUSH2 0x7F SWAP1 PUSH2 0x73 JUMP JUMPDEST SWAP1 MSTORE JUMP JUMPDEST MLOAD SWAP1 JUMP JUMPDEST PUSH1 0x20 SWAP2 DUP2 MSTORE ADD SWAP1 JUMP JUMPDEST PUSH1 0x20 ADD SWAP1 JUMP JUMPDEST PUSH4 0x4E487B71 PUSH1 0xE0 SHL PUSH1 0x0 MSTORE PUSH1 0x21 PUSH1 0x4 MSTORE PUSH1 0x24 PUSH1 0x0 REVERT JUMPDEST PUSH1 0x2 GT ISZERO PUSH2 0xB6 JUMPI JUMP JUMPDEST PUSH2 0x96 JUMP JUMPDEST SWAP1 PUSH2 0xC5 DUP3 PUSH2 0xAC JUMP JUMPDEST JUMP JUMPDEST PUSH2 0xD0 SWAP1 PUSH2 0xBB JUMP JUMPDEST SWAP1 JUMP JUMPDEST PUSH2 0xDC SWAP1 PUSH2 0xC7 JUMP JUMPDEST SWAP1 MSTORE JUMP JUMPDEST SWAP1 PUSH1 0x40 DUP1 PUSH2 0x116 SWAP4 PUSH2 0xFA PUSH1 0x0 DUP3 ADD MLOAD PUSH1 0x0 DUP7 ADD SWAP1 PUSH2 0x76 JUMP JUMPDEST PUSH2 0x10C PUSH1 0x20 DUP3 ADD MLOAD PUSH1 0x20 DUP7 ADD SWAP1 PUSH2 0x76 JUMP JUMPDEST ADD MLOAD SWAP2 ADD SWAP1 PUSH2 0xD3 JUMP JUMPDEST JUMP JUMPDEST SWAP1 PUSH2 0x125 DUP2 PUSH1 0x60 SWAP4 PUSH2 0xE0 JUMP JUMPDEST ADD SWAP1 JUMP JUMPDEST PUSH1 0x20 ADD SWAP1 JUMP JUMPDEST SWAP1 PUSH2 0x14C PUSH2 0x146 PUSH2 0x13F DUP5 PUSH2 0x83 JUMP JUMPDEST DUP1 SWAP4 PUSH2 0x87 JUMP JUMPDEST SWAP3 PUSH2 0x90 JUMP JUMPDEST SWAP1 PUSH1 0x0 JUMPDEST DUP2 DUP2 LT PUSH2 0x15D JUMPI POP POP POP SWAP1 JUMP JUMPDEST SWAP1 SWAP2 SWAP3 PUSH2 0x176 PUSH2 0x170 PUSH1 0x1 SWAP3 DUP7 MLOAD PUSH2 0x118 JUMP JUMPDEST SWAP5 PUSH2 0x129 JUMP JUMPDEST SWAP2 ADD SWAP2 SWAP1 SWAP2 PUSH2 0x150 JUMP JUMPDEST PUSH2 0x1BF SWAP2 PUSH1 0x40 PUSH1 0x60 DUP3 ADD SWAP3 PUSH2 0x19D PUSH1 0x0 DUP3 ADD MLOAD PUSH1 0x0 DUP6 ADD SWAP1 PUSH2 0x76 JUMP JUMPDEST PUSH2 0x1AF PUSH1 0x20 DUP3 ADD MLOAD PUSH1 0x20 DUP6 ADD SWAP1 PUSH2 0x76 JUMP JUMPDEST ADD MLOAD SWAP1 PUSH1 0x40 DUP2 DUP5 SUB SWAP2 ADD MSTORE PUSH2 0x12F JUMP JUMPDEST SWAP1 JUMP JUMPDEST PUSH2 0x1D8 SWAP2 PUSH1 0x20 DUP3 ADD SWAP2 PUSH1 0x0 DUP2 DUP5 SUB SWAP2 ADD MSTORE PUSH2 0x180 JUMP JUMPDEST SWAP1 JUMP JUMPDEST CALLVALUE PUSH2 0x20B JUMPI PUSH2 0x1EB CALLDATASIZE PUSH1 0x4 PUSH2 0x63 JUMP JUMPDEST PUSH2 0x207 PUSH2 0x1F6 PUSH2 0x6E9 JUMP JUMPDEST PUSH2 0x1FE PUSH2 0x53 JUMP JUMPDEST SWAP2 DUP3 SWAP2 DUP3 PUSH2 0x1C2 JUMP JUMPDEST SUB SWAP1 RETURN JUMPDEST PUSH2 0x59 JUMP JUMPDEST PUSH1 0x0 ADD SWAP1 JUMP JUMPDEST CALLVALUE PUSH2 0x244 JUMPI PUSH2 0x226 CALLDATASIZE PUSH1 0x4 PUSH2 0x63 JUMP JUMPDEST PUSH2 0x22E PUSH2 0x8AA JUMP JUMPDEST PUSH2 0x236 PUSH2 0x53 JUMP JUMPDEST DUP1 PUSH2 0x240 DUP2 PUSH2 0x210 JUMP JUMPDEST SUB SWAP1 RETURN JUMPDEST PUSH2 0x59 JUMP JUMPDEST PUSH1 0x0 DUP1 REVERT JUMPDEST PUSH2 0x257 DUP2 PUSH2 0x73 JUMP JUMPDEST SUB PUSH2 0x25E JUMPI JUMP JUMPDEST PUSH1 0x0 DUP1 REVERT JUMPDEST SWAP1 POP CALLDATALOAD SWAP1 PUSH2 0x270 DUP3 PUSH2 0x24E JUMP JUMPDEST JUMP JUMPDEST PUSH1 0x0 DUP1 REVERT JUMPDEST PUSH1 0x1F DUP1 NOT SWAP2 ADD AND SWAP1 JUMP JUMPDEST PUSH4 0x4E487B71 PUSH1 0xE0 SHL PUSH1 0x0 MSTORE PUSH1 0x41 PUSH1 0x4 MSTORE PUSH1 0x24 PUSH1 0x0 REVERT JUMPDEST SWAP1 PUSH2 0x2A1 SWAP1 PUSH2 0x277 JUMP JUMPDEST DUP2 ADD SWAP1 DUP2 LT PUSH8 0xFFFFFFFFFFFFFFFF DUP3 GT OR PUSH2 0x2BB JUMPI PUSH1 0x40 MSTORE JUMP JUMPDEST PUSH2 0x281 JUMP JUMPDEST SWAP1 PUSH2 0x2D3 PUSH2 0x2CC PUSH2 0x53 JUMP JUMPDEST SWAP3 DUP4 PUSH2 0x297 JUMP JUMPDEST JUMP JUMPDEST PUSH8 0xFFFFFFFFFFFFFFFF DUP2 GT PUSH2 0x2ED JUMPI PUSH1 0x20 DUP1 SWAP2 MUL ADD SWAP1 JUMP JUMPDEST PUSH2 0x281 JUMP JUMPDEST PUSH1 0x0 DUP1 REVERT JUMPDEST PUSH1 0x0 DUP1 REVERT JUMPDEST SWAP2 SWAP1 PUSH1 0x40 DUP4 DUP3 SUB SLT PUSH2 0x338 JUMPI PUSH2 0x331 SWAP1 PUSH2 0x316 PUSH1 0x40 PUSH2 0x2C0 JUMP JUMPDEST SWAP4 PUSH2 0x324 DUP3 PUSH1 0x0 DUP4 ADD PUSH2 0x263 JUMP JUMPDEST PUSH1 0x0 DUP7 ADD MSTORE PUSH1 0x20 ADD PUSH2 0x263 JUMP JUMPDEST PUSH1 0x20 DUP4 ADD MSTORE JUMP JUMPDEST PUSH2 0x2F7 JUMP JUMPDEST SWAP1 SWAP3 SWAP2 SWAP3 PUSH2 0x352 PUSH2 0x34D DUP3 PUSH2 0x2D5 JUMP JUMPDEST PUSH2 0x2C0 JUMP JUMPDEST SWAP4 DUP2 DUP6 MSTORE PUSH1 0x40 PUSH1 0x20 DUP7 ADD SWAP3 MUL DUP4 ADD SWAP3 DUP2 DUP5 GT PUSH2 0x391 JUMPI SWAP2 JUMPDEST DUP4 DUP4 LT PUSH2 0x377 JUMPI POP POP POP POP JUMP JUMPDEST PUSH1 0x20 PUSH1 0x40 SWAP2 PUSH2 0x386 DUP5 DUP7 PUSH2 0x2FC JUMP JUMPDEST DUP2 MSTORE ADD SWAP3 ADD SWAP2 PUSH2 0x36A JUMP JUMPDEST PUSH2 0x2F2 JUMP JUMPDEST SWAP1 DUP1 PUSH1 0x1F DUP4 ADD SLT ISZERO PUSH2 0x3B4 JUMPI DUP2 PUSH1 0x20 PUSH2 0x3B1 SWAP4 CALLDATALOAD SWAP2 ADD PUSH2 0x33D JUMP JUMPDEST SWAP1 JUMP JUMPDEST PUSH2 0x272 JUMP JUMPDEST SWAP2 SWAP1 SWAP2 PUSH1 0x40 DUP2 DUP5 SUB SLT PUSH2 0x3FA JUMPI PUSH2 0x3D3 DUP4 PUSH1 0x0 DUP4 ADD PUSH2 0x263 JUMP JUMPDEST SWAP3 PUSH1 0x20 DUP3 ADD CALLDATALOAD PUSH8 0xFFFFFFFFFFFFFFFF DUP2 GT PUSH2 0x3F5 JUMPI PUSH2 0x3F2 SWAP3 ADD PUSH2 0x396 JUMP JUMPDEST SWAP1 JUMP JUMPDEST PUSH2 0x249 JUMP JUMPDEST PUSH2 0x5E JUMP JUMPDEST PUSH2 0x413 PUSH2 0x40D CALLDATASIZE PUSH1 0x4 PUSH2 0x3B9 JUMP JUMPDEST SWAP1 PUSH2 0x1128 JUMP JUMPDEST PUSH2 0x41B PUSH2 0x53 JUMP JUMPDEST DUP1 PUSH2 0x425 DUP2 PUSH2 0x210 JUMP JUMPDEST SUB SWAP1 RETURN JUMPDEST PUSH1 0x0 DUP1 REVERT JUMPDEST PUSH2 0x438 PUSH1 0x60 PUSH2 0x2C0 JUMP JUMPDEST SWAP1 JUMP JUMPDEST PUSH1 0x0 SWAP1 JUMP JUMPDEST PUSH1 0x60 SWAP1 JUMP JUMPDEST PUSH2 0x44D PUSH2 0x42E JUMP JUMPDEST SWAP1 PUSH1 0x20 DUP1 DUP1 DUP5 PUSH2 0x45B PUSH2 0x43B JUMP JUMPDEST DUP2 MSTORE ADD PUSH2 0x466 PUSH2 0x43B JUMP JUMPDEST DUP2 MSTORE ADD PUSH2 0x471 PUSH2 0x440 JUMP JUMPDEST DUP2 MSTORE POP POP JUMP JUMPDEST PUSH2 0x47F PUSH2 0x445 JUMP JUMPDEST SWAP1 JUMP JUMPDEST PUSH1 0x1 DUP1 PUSH1 0xA0 SHL SUB AND SWAP1 JUMP JUMPDEST SWAP1 JUMP JUMPDEST PUSH2 0x4A4 PUSH2 0x49F PUSH2 0x4A9 SWAP3 PUSH2 0x482 JUMP JUMPDEST PUSH2 0x48D JUMP JUMPDEST PUSH2 0x482 JUMP JUMPDEST SWAP1 JUMP JUMPDEST PUSH2 0x4B5 SWAP1 PUSH2 0x490 JUMP JUMPDEST SWAP1 JUMP JUMPDEST PUSH2 0x4C1 SWAP1 PUSH2 0x4AC JUMP JUMPDEST SWAP1 JUMP JUMPDEST SWAP1 PUSH2 0x4CE SWAP1 PUSH2 0x4B8 JUMP JUMPDEST PUSH1 0x0 MSTORE PUSH1 0x20 MSTORE PUSH1 0x40 PUSH1 0x0 KECCAK256 SWAP1 JUMP JUMPDEST PUSH1 0x0 SHR SWAP1 JUMP JUMPDEST PUSH1 0xFF AND SWAP1 JUMP JUMPDEST PUSH2 0x4F4 PUSH2 0x4F9 SWAP2 PUSH2 0x4DC JUMP JUMPDEST PUSH2 0x4E2 JUMP JUMPDEST SWAP1 JUMP JUMPDEST PUSH2 0x506 SWAP1 SLOAD PUSH2 0x4E8 JUMP JUMPDEST SWAP1 JUMP JUMPDEST SWAP1 PUSH2 0x513 SWAP1 PUSH2 0x4B8 JUMP JUMPDEST PUSH1 0x0 MSTORE PUSH1 0x20 MSTORE PUSH1 0x40 PUSH1 0x0 KECCAK256 SWAP1 JUMP JUMPDEST SWAP1 JUMP JUMPDEST PUSH2 0x530 PUSH2 0x535 SWAP2 PUSH2 0x4DC JUMP JUMPDEST PUSH2 0x521 JUMP JUMPDEST SWAP1 JUMP JUMPDEST PUSH2 0x542 SWAP1 SLOAD PUSH2 0x524 JUMP JUMPDEST SWAP1 JUMP JUMPDEST SWAP1 PUSH2 0x54F SWAP1 PUSH2 0x73 JUMP JUMPDEST SWAP1 MSTORE JUMP JUMPDEST SLOAD SWAP1 JUMP JUMPDEST PUSH8 0xFFFFFFFFFFFFFFFF DUP2 GT PUSH2 0x56F JUMPI PUSH1 0x20 DUP1 SWAP2 MUL ADD SWAP1 JUMP JUMPDEST PUSH2 0x281 JUMP JUMPDEST SWAP1 PUSH2 0x586 PUSH2 0x581 DUP4 PUSH2 0x557 JUMP JUMPDEST PUSH2 0x2C0 JUMP JUMPDEST SWAP2 DUP3 MSTORE JUMP JUMPDEST PUSH1 0x0 MSTORE PUSH1 0x20 PUSH1 0x0 KECCAK256 SWAP1 JUMP JUMPDEST PUSH1 0xFF AND SWAP1 JUMP JUMPDEST PUSH2 0x5A8 PUSH2 0x5AD SWAP2 PUSH2 0x4DC JUMP JUMPDEST PUSH2 0x596 JUMP JUMPDEST SWAP1 JUMP JUMPDEST PUSH2 0x5BA SWAP1 SLOAD PUSH2 0x59C JUMP JUMPDEST SWAP1 JUMP JUMPDEST SWAP1 PUSH2 0x5C7 SWAP1 PUSH2 0xBB JUMP JUMPDEST SWAP1 MSTORE JUMP JUMPDEST PUSH2 0x5D5 PUSH1 0x60 PUSH2 0x2C0 JUMP JUMPDEST SWAP1 JUMP JUMPDEST SWAP1 PUSH2 0x629 PUSH2 0x620 PUSH1 0x2 PUSH2 0x5E9 PUSH2 0x5CB JUMP JUMPDEST SWAP5 PUSH2 0x602 PUSH2 0x5F9 PUSH1 0x0 DUP4 ADD PUSH2 0x538 JUMP JUMPDEST PUSH1 0x0 DUP9 ADD PUSH2 0x545 JUMP JUMPDEST PUSH2 0x61A PUSH2 0x611 PUSH1 0x1 DUP4 ADD PUSH2 0x538 JUMP JUMPDEST PUSH1 0x20 DUP9 ADD PUSH2 0x545 JUMP JUMPDEST ADD PUSH2 0x5B0 JUMP JUMPDEST PUSH1 0x40 DUP5 ADD PUSH2 0x5BD JUMP JUMPDEST JUMP JUMPDEST PUSH2 0x634 SWAP1 PUSH2 0x5D8 JUMP JUMPDEST SWAP1 JUMP JUMPDEST SWAP1 PUSH2 0x641 DUP3 PUSH2 0x553 JUMP JUMPDEST PUSH2 0x64A DUP2 PUSH2 0x574 JUMP JUMPDEST SWAP3 PUSH2 0x658 PUSH1 0x20 DUP6 ADD SWAP2 PUSH2 0x58B JUMP JUMPDEST PUSH1 0x0 SWAP2 JUMPDEST DUP4 DUP4 LT PUSH2 0x669 JUMPI POP POP POP POP JUMP JUMPDEST PUSH1 0x3 PUSH1 0x20 PUSH1 0x1 SWAP3 PUSH2 0x679 DUP6 PUSH2 0x62B JUMP JUMPDEST DUP2 MSTORE ADD SWAP3 ADD SWAP3 ADD SWAP2 SWAP1 PUSH2 0x65C JUMP JUMPDEST MSTORE JUMP JUMPDEST SWAP1 PUSH2 0x6DB PUSH2 0x6D2 PUSH1 0x2 PUSH2 0x69B PUSH2 0x42E JUMP JUMPDEST SWAP5 PUSH2 0x6B4 PUSH2 0x6AB PUSH1 0x0 DUP4 ADD PUSH2 0x538 JUMP JUMPDEST PUSH1 0x0 DUP9 ADD PUSH2 0x545 JUMP JUMPDEST PUSH2 0x6CC PUSH2 0x6C3 PUSH1 0x1 DUP4 ADD PUSH2 0x538 JUMP JUMPDEST PUSH1 0x20 DUP9 ADD PUSH2 0x545 JUMP JUMPDEST ADD PUSH2 0x637 JUMP JUMPDEST PUSH1 0x40 DUP5 ADD PUSH2 0x687 JUMP JUMPDEST JUMP JUMPDEST PUSH2 0x6E6 SWAP1 PUSH2 0x68A JUMP JUMPDEST SWAP1 JUMP JUMPDEST PUSH2 0x6F1 PUSH2 0x477 JUMP JUMPDEST PUSH2 0x705 PUSH2 0x700 PUSH1 0x0 CALLER SWAP1 PUSH2 0x4C4 JUMP JUMPDEST PUSH2 0x4FC JUMP JUMPDEST PUSH2 0x70D JUMPI JUMPDEST SWAP1 JUMP JUMPDEST POP PUSH2 0x722 PUSH2 0x71D PUSH1 0x2 CALLER SWAP1 PUSH2 0x509 JUMP JUMPDEST PUSH2 0x6DD JUMP JUMPDEST PUSH2 0x70A JUMP JUMPDEST SWAP1 JUMP JUMPDEST PUSH2 0x73E PUSH2 0x739 PUSH2 0x743 SWAP3 PUSH2 0x727 JUMP JUMPDEST PUSH2 0x48D JUMP JUMPDEST PUSH2 0x73 JUMP JUMPDEST SWAP1 JUMP JUMPDEST PUSH4 0x4E487B71 PUSH1 0xE0 SHL PUSH1 0x0 MSTORE PUSH1 0x11 PUSH1 0x4 MSTORE PUSH1 0x24 PUSH1 0x0 REVERT JUMPDEST PUSH2 0x76B PUSH2 0x771 SWAP2 SWAP4 SWAP3 SWAP4 PUSH2 0x73 JUMP JUMPDEST SWAP3 PUSH2 0x73 JUMP JUMPDEST SWAP2 PUSH2 0x77D DUP4 DUP3 MUL PUSH2 0x73 JUMP JUMPDEST SWAP3 DUP2 DUP5 DIV EQ SWAP1 ISZERO OR ISZERO PUSH2 0x78C JUMPI JUMP JUMPDEST PUSH2 0x746 JUMP JUMPDEST SWAP1 JUMP JUMPDEST PUSH2 0x7A8 PUSH2 0x7A3 PUSH2 0x7AD SWAP3 PUSH2 0x791 JUMP JUMPDEST PUSH2 0x48D JUMP JUMPDEST PUSH2 0x73 JUMP JUMPDEST SWAP1 JUMP JUMPDEST PUSH1 0x1 PUSH2 0x7BC SWAP2 ADD PUSH2 0x73 JUMP JUMPDEST SWAP1 JUMP JUMPDEST SLOAD SWAP1 JUMP JUMPDEST PUSH4 0x4E487B71 PUSH1 0xE0 SHL PUSH1 0x0 MSTORE PUSH1 0x32 PUSH1 0x4 MSTORE PUSH1 0x24 PUSH1 0x0 REVERT JUMPDEST PUSH1 0x0 MSTORE PUSH1 0x20 PUSH1 0x0 KECCAK256 SWAP1 JUMP JUMPDEST PUSH2 0x7ED DUP2 PUSH2 0x7BF JUMP JUMPDEST DUP3 LT ISZERO PUSH2 0x808 JUMPI PUSH2 0x7FF PUSH1 0x1 SWAP2 PUSH2 0x7D9 JUMP JUMPDEST SWAP2 MUL ADD SWAP1 PUSH1 0x0 SWAP1 JUMP JUMPDEST PUSH2 0x7C3 JUMP JUMPDEST SHR SWAP1 JUMP JUMPDEST PUSH1 0x1 DUP1 PUSH1 0xA0 SHL SUB AND SWAP1 JUMP JUMPDEST PUSH2 0x82C SWAP1 PUSH1 0x8 PUSH2 0x831 SWAP4 MUL PUSH2 0x80D JUMP JUMPDEST PUSH2 0x811 JUMP JUMPDEST SWAP1 JUMP JUMPDEST SWAP1 PUSH2 0x83F SWAP2 SLOAD PUSH2 0x81C JUMP JUMPDEST SWAP1 JUMP JUMPDEST PUSH2 0x84B SWAP1 PUSH2 0x490 JUMP JUMPDEST SWAP1 JUMP JUMPDEST PUSH2 0x857 SWAP1 PUSH2 0x842 JUMP JUMPDEST SWAP1 JUMP JUMPDEST PUSH2 0x863 SWAP1 PUSH2 0x4AC JUMP JUMPDEST SWAP1 JUMP JUMPDEST SWAP1 PUSH2 0x870 SWAP1 PUSH2 0x85A JUMP JUMPDEST PUSH1 0x0 MSTORE PUSH1 0x20 MSTORE PUSH1 0x40 PUSH1 0x0 KECCAK256 SWAP1 JUMP JUMPDEST SWAP1 JUMP JUMPDEST PUSH2 0x88A DUP2 PUSH2 0x553 JUMP JUMPDEST DUP3 LT ISZERO PUSH2 0x8A5 JUMPI PUSH2 0x89C PUSH1 0x3 SWAP2 PUSH2 0x58B JUMP JUMPDEST SWAP2 MUL ADD SWAP1 PUSH1 0x0 SWAP1 JUMP JUMPDEST PUSH2 0x7C3 JUMP JUMPDEST PUSH2 0x8BF TIMESTAMP PUSH2 0x8B9 PUSH2 0x3E8 PUSH2 0x72A JUMP JUMPDEST SWAP1 PUSH2 0x75C JUMP JUMPDEST SWAP1 PUSH2 0x8CA PUSH1 0x0 PUSH2 0x794 JUMP JUMPDEST SWAP1 JUMPDEST DUP2 PUSH2 0x8E8 PUSH2 0x8E2 PUSH2 0x8DD PUSH1 0x1 PUSH2 0x7BF JUMP JUMPDEST PUSH2 0x73 JUMP JUMPDEST SWAP2 PUSH2 0x73 JUMP JUMPDEST LT ISZERO PUSH2 0x995 JUMPI PUSH2 0x90B PUSH2 0x906 PUSH2 0x900 PUSH1 0x1 DUP6 SWAP1 PUSH2 0x7E4 JUMP JUMPDEST SWAP1 PUSH2 0x834 JUMP JUMPDEST PUSH2 0x84E JUMP JUMPDEST PUSH2 0x91F PUSH2 0x91A PUSH1 0x2 DUP4 SWAP1 PUSH2 0x866 JUMP JUMPDEST PUSH2 0x87E JUMP JUMPDEST SWAP2 PUSH2 0x92A PUSH1 0x0 PUSH2 0x794 JUMP JUMPDEST JUMPDEST DUP1 PUSH2 0x949 PUSH2 0x943 PUSH2 0x93E PUSH1 0x2 DUP9 ADD PUSH2 0x553 JUMP JUMPDEST PUSH2 0x73 JUMP JUMPDEST SWAP2 PUSH2 0x73 JUMP JUMPDEST LT ISZERO PUSH2 0x981 JUMPI PUSH2 0x97C SWAP1 PUSH2 0x977 DUP5 PUSH2 0x965 PUSH1 0x2 DUP9 ADD DUP5 SWAP1 PUSH2 0x881 JUMP JUMPDEST POP SWAP1 PUSH2 0x971 DUP11 SWAP3 PUSH2 0x62B JUMP JUMPDEST SWAP1 PUSH2 0x1315 JUMP JUMPDEST PUSH2 0x7B0 JUMP JUMPDEST PUSH2 0x92B JUMP JUMPDEST POP SWAP3 SWAP1 POP PUSH2 0x98F SWAP2 POP PUSH2 0x7B0 JUMP JUMPDEST SWAP1 PUSH2 0x8CC JUMP JUMPDEST SWAP2 POP POP JUMP JUMPDEST PUSH1 0x20 SWAP2 DUP2 MSTORE ADD SWAP1 JUMP JUMPDEST PUSH1 0x0 PUSH32 0x56616C7565206D7573742062652067726561746572207468616E203000000000 SWAP2 ADD MSTORE JUMP JUMPDEST PUSH2 0x9D8 PUSH1 0x1C PUSH1 0x20 SWAP3 PUSH2 0x99A JUMP JUMPDEST PUSH2 0x9E1 DUP2 PUSH2 0x9A3 JUMP JUMPDEST ADD SWAP1 JUMP JUMPDEST PUSH2 0x9FB SWAP1 PUSH1 0x20 DUP2 ADD SWAP1 PUSH1 0x0 DUP2 DUP4 SUB SWAP2 ADD MSTORE PUSH2 0x9CB JUMP JUMPDEST SWAP1 JUMP JUMPDEST ISZERO PUSH2 0xA05 JUMPI JUMP JUMPDEST PUSH2 0xA0D PUSH2 0x53 JUMP JUMPDEST PUSH3 0x461BCD PUSH1 0xE5 SHL DUP2 MSTORE DUP1 PUSH2 0xA23 PUSH1 0x4 DUP3 ADD PUSH2 0x9E5 JUMP JUMPDEST SUB SWAP1 REVERT JUMPDEST SWAP1 PUSH2 0xA4E SWAP2 PUSH2 0xA49 CALLVALUE PUSH2 0xA43 PUSH2 0xA3D PUSH1 0x0 PUSH2 0x794 JUMP JUMPDEST SWAP2 PUSH2 0x73 JUMP JUMPDEST GT PUSH2 0x9FE JUMP JUMPDEST PUSH2 0xF8E JUMP JUMPDEST JUMP JUMPDEST ISZERO ISZERO SWAP1 JUMP JUMPDEST PUSH1 0x0 SHL SWAP1 JUMP JUMPDEST SWAP1 PUSH2 0xA67 PUSH1 0xFF SWAP2 PUSH2 0xA55 JUMP JUMPDEST SWAP2 DUP2 NOT AND SWAP2 AND OR SWAP1 JUMP JUMPDEST PUSH2 0xA7A SWAP1 PUSH2 0xA50 JUMP JUMPDEST SWAP1 JUMP JUMPDEST SWAP1 JUMP JUMPDEST SWAP1 PUSH2 0xA95 PUSH2 0xA90 PUSH2 0xA9C SWAP3 PUSH2 0xA71 JUMP JUMPDEST PUSH2 0xA7D JUMP JUMPDEST DUP3 SLOAD PUSH2 0xA5B JUMP JUMPDEST SWAP1 SSTORE JUMP JUMPDEST SWAP1 JUMP JUMPDEST PUSH1 0x0 MSTORE PUSH1 0x20 PUSH1 0x0 KECCAK256 SWAP1 JUMP JUMPDEST SLOAD SWAP1 JUMP JUMPDEST PUSH2 0xABB DUP2 PUSH2 0xAAE JUMP JUMPDEST DUP3 LT ISZERO PUSH2 0xAD6 JUMPI PUSH2 0xACD PUSH1 0x1 SWAP2 PUSH2 0xAA3 JUMP JUMPDEST SWAP2 MUL ADD SWAP1 PUSH1 0x0 SWAP1 JUMP JUMPDEST PUSH2 0x7C3 JUMP JUMPDEST SHL SWAP1 JUMP JUMPDEST SWAP2 SWAP1 PUSH1 0x8 PUSH2 0xAFF SWAP2 MUL SWAP2 PUSH2 0xAF9 PUSH1 0x1 DUP1 PUSH1 0xA0 SHL SUB DUP5 PUSH2 0xADB JUMP JUMPDEST SWAP3 PUSH2 0xADB JUMP JUMPDEST SWAP2 DUP2 NOT AND SWAP2 AND OR SWAP1 JUMP JUMPDEST SWAP1 JUMP JUMPDEST SWAP2 SWAP1 PUSH2 0xB22 PUSH2 0xB1D PUSH2 0xB2A SWAP4 PUSH2 0x4B8 JUMP JUMPDEST PUSH2 0xB09 JUMP JUMPDEST SWAP1 DUP4 SLOAD PUSH2 0xADF JUMP JUMPDEST SWAP1 SSTORE JUMP JUMPDEST SWAP1 DUP2 SLOAD SWAP2 PUSH9 0x10000000000000000 DUP4 LT ISZERO PUSH2 0xB5E JUMPI DUP3 PUSH2 0xB56 SWAP2 PUSH1 0x1 PUSH2 0xB5C SWAP6 ADD DUP2 SSTORE PUSH2 0xAB2 JUMP JUMPDEST SWAP1 PUSH2 0xB0C JUMP JUMPDEST JUMP JUMPDEST PUSH2 0x281 JUMP JUMPDEST MLOAD SWAP1 JUMP JUMPDEST PUSH1 0x0 SWAP1 JUMP JUMPDEST PUSH2 0xB74 PUSH2 0x5CB JUMP JUMPDEST SWAP1 PUSH1 0x20 DUP1 DUP1 DUP5 PUSH2 0xB82 PUSH2 0x43B JUMP JUMPDEST DUP2 MSTORE ADD PUSH2 0xB8D PUSH2 0x43B JUMP JUMPDEST DUP2 MSTORE ADD PUSH2 0xB98 PUSH2 0xB67 JUMP JUMPDEST DUP2 MSTORE POP POP JUMP JUMPDEST PUSH2 0xBA6 PUSH2 0xB6C JUMP JUMPDEST SWAP1 JUMP JUMPDEST PUSH1 0x0 JUMPDEST DUP3 DUP2 LT PUSH2 0xBB8 JUMPI POP POP POP JUMP JUMPDEST PUSH1 0x20 SWAP1 PUSH2 0xBC3 PUSH2 0xB9E JUMP JUMPDEST DUP2 DUP5 ADD MSTORE ADD PUSH2 0xBAC JUMP JUMPDEST SWAP1 PUSH2 0xBF2 PUSH2 0xBDA DUP4 PUSH2 0x574 JUMP JUMPDEST SWAP3 PUSH1 0x20 DUP1 PUSH2 0xBE8 DUP7 SWAP4 PUSH2 0x557 JUMP JUMPDEST SWAP3 ADD SWAP2 SUB SWAP1 PUSH2 0xBA9 JUMP JUMPDEST JUMP JUMPDEST SWAP1 PUSH2 0xBFE DUP3 PUSH2 0xB63 JUMP JUMPDEST DUP2 LT ISZERO PUSH2 0xC0F JUMPI PUSH1 0x20 DUP1 SWAP2 MUL ADD ADD SWAP1 JUMP JUMPDEST PUSH2 0x7C3 JUMP JUMPDEST PUSH2 0xC1E SWAP1 MLOAD PUSH2 0x73 JUMP JUMPDEST SWAP1 JUMP JUMPDEST PUSH2 0xC2B PUSH1 0x60 PUSH2 0x2C0 JUMP JUMPDEST SWAP1 JUMP JUMPDEST SWAP1 PUSH2 0xC38 DUP3 PUSH2 0x83 JUMP JUMPDEST DUP2 LT ISZERO PUSH2 0xC49 JUMPI PUSH1 0x20 DUP1 SWAP2 MUL ADD ADD SWAP1 JUMP JUMPDEST PUSH2 0x7C3 JUMP JUMPDEST PUSH2 0xC58 PUSH1 0x60 PUSH2 0x2C0 JUMP JUMPDEST SWAP1 JUMP JUMPDEST PUSH4 0x4E487B71 PUSH1 0xE0 SHL PUSH1 0x0 MSTORE PUSH1 0x0 PUSH1 0x4 MSTORE PUSH1 0x24 PUSH1 0x0 REVERT JUMPDEST SWAP1 PUSH2 0xC7E PUSH1 0x0 NOT SWAP2 PUSH2 0xA55 JUMP JUMPDEST SWAP2 DUP2 NOT AND SWAP2 AND OR SWAP1 JUMP JUMPDEST PUSH2 0xC9C PUSH2 0xC97 PUSH2 0xCA1 SWAP3 PUSH2 0x73 JUMP JUMPDEST PUSH2 0x48D JUMP JUMPDEST PUSH2 0x73 JUMP JUMPDEST SWAP1 JUMP JUMPDEST SWAP1 JUMP JUMPDEST SWAP1 PUSH2 0xCBC PUSH2 0xCB7 PUSH2 0xCC3 SWAP3 PUSH2 0xC88 JUMP JUMPDEST PUSH2 0xCA4 JUMP JUMPDEST DUP3 SLOAD PUSH2 0xC71 JUMP JUMPDEST SWAP1 SSTORE JUMP JUMPDEST MLOAD SWAP1 JUMP JUMPDEST PUSH2 0xCD6 SWAP1 PUSH1 0x3 PUSH2 0x75C JUMP JUMPDEST SWAP1 JUMP JUMPDEST SWAP2 SWAP1 PUSH1 0x8 PUSH2 0xCF5 SWAP2 MUL SWAP2 PUSH2 0xCEF PUSH1 0x0 NOT DUP5 PUSH2 0xADB JUMP JUMPDEST SWAP3 PUSH2 0xADB JUMP JUMPDEST SWAP2 DUP2 NOT AND SWAP2 AND OR SWAP1 JUMP JUMPDEST SWAP2 SWAP1 PUSH2 0xD15 PUSH2 0xD10 PUSH2 0xD1D SWAP4 PUSH2 0xC88 JUMP JUMPDEST PUSH2 0xCA4 JUMP JUMPDEST SWAP1 DUP4 SLOAD PUSH2 0xCD9 JUMP JUMPDEST SWAP1 SSTORE JUMP JUMPDEST PUSH1 0x0 SWAP1 JUMP JUMPDEST PUSH2 0xD38 SWAP2 PUSH2 0xD32 PUSH2 0xD21 JUMP JUMPDEST SWAP2 PUSH2 0xCFF JUMP JUMPDEST JUMP JUMPDEST PUSH1 0x2 PUSH1 0x0 SWAP2 PUSH2 0xD4B DUP4 DUP1 DUP4 ADD PUSH2 0xD26 JUMP JUMPDEST PUSH2 0xD58 DUP4 PUSH1 0x1 DUP4 ADD PUSH2 0xD26 JUMP JUMPDEST ADD SSTORE JUMP JUMPDEST SWAP1 PUSH1 0x0 SUB PUSH2 0xD6F JUMPI PUSH2 0xD6D SWAP1 PUSH2 0xD3A JUMP JUMPDEST JUMP JUMPDEST PUSH2 0xC5B JUMP JUMPDEST JUMPDEST DUP2 DUP2 LT PUSH2 0xD80 JUMPI POP POP JUMP JUMPDEST DUP1 PUSH2 0xD8E PUSH1 0x0 PUSH1 0x3 SWAP4 PUSH2 0xD5C JUMP JUMPDEST ADD PUSH2 0xD75 JUMP JUMPDEST SWAP1 SWAP2 DUP3 DUP2 LT PUSH2 0xDA3 JUMPI JUMPDEST POP POP POP JUMP JUMPDEST PUSH2 0xDC1 PUSH2 0xDBB PUSH2 0xDB5 PUSH2 0xDCC SWAP6 PUSH2 0xCCB JUMP JUMPDEST SWAP3 PUSH2 0xCCB JUMP JUMPDEST SWAP3 PUSH2 0x58B JUMP JUMPDEST SWAP2 DUP3 ADD SWAP2 ADD SWAP1 PUSH2 0xD74 JUMP JUMPDEST CODESIZE DUP1 DUP1 PUSH2 0xD9E JUMP JUMPDEST SWAP1 PUSH9 0x10000000000000000 DUP2 GT PUSH2 0xDFD JUMPI DUP2 PUSH2 0xDF2 PUSH2 0xDFB SWAP4 PUSH2 0x553 JUMP JUMPDEST SWAP1 DUP3 DUP2 SSTORE PUSH2 0xD94 JUMP JUMPDEST JUMP JUMPDEST PUSH2 0x281 JUMP JUMPDEST MLOAD SWAP1 JUMP JUMPDEST PUSH2 0xE10 SWAP1 MLOAD PUSH2 0xBB JUMP JUMPDEST SWAP1 JUMP JUMPDEST PUSH2 0xE1C SWAP1 PUSH2 0xBB JUMP JUMPDEST SWAP1 JUMP JUMPDEST SWAP1 JUMP JUMPDEST SWAP1 PUSH2 0xE37 PUSH2 0xE32 PUSH2 0xE3E SWAP3 PUSH2 0xE13 JUMP JUMPDEST PUSH2 0xE1F JUMP JUMPDEST DUP3 SLOAD PUSH2 0xA5B JUMP JUMPDEST SWAP1 SSTORE JUMP JUMPDEST SWAP1 PUSH2 0xE88 PUSH1 0x40 PUSH1 0x2 PUSH2 0xE8E SWAP5 PUSH2 0xE67 PUSH1 0x0 DUP3 ADD PUSH2 0xE61 PUSH1 0x0 DUP9 ADD PUSH2 0xC14 JUMP JUMPDEST SWAP1 PUSH2 0xCA7 JUMP JUMPDEST PUSH2 0xE80 PUSH1 0x1 DUP3 ADD PUSH2 0xE7A PUSH1 0x20 DUP9 ADD PUSH2 0xC14 JUMP JUMPDEST SWAP1 PUSH2 0xCA7 JUMP JUMPDEST ADD SWAP3 ADD PUSH2 0xE06 JUMP JUMPDEST SWAP1 PUSH2 0xE22 JUMP JUMPDEST JUMP JUMPDEST SWAP1 PUSH2 0xE9A SWAP2 PUSH2 0xE42 JUMP JUMPDEST JUMP JUMPDEST PUSH2 0xEC1 PUSH2 0xEBB PUSH2 0xEAB DUP5 PUSH2 0x83 JUMP JUMPDEST SWAP4 PUSH2 0xEB6 DUP6 DUP6 PUSH2 0xDD4 JUMP JUMPDEST PUSH2 0x90 JUMP JUMPDEST SWAP2 PUSH2 0x58B JUMP JUMPDEST PUSH1 0x0 SWAP2 JUMPDEST DUP4 DUP4 LT PUSH2 0xED2 JUMPI POP POP POP POP JUMP JUMPDEST PUSH1 0x3 PUSH1 0x20 DUP3 PUSH2 0xEEB PUSH2 0xEE5 PUSH1 0x1 SWAP6 PUSH2 0xE02 JUMP JUMPDEST DUP7 PUSH2 0xE90 JUMP JUMPDEST ADD SWAP3 ADD SWAP3 ADD SWAP2 SWAP1 PUSH2 0xEC5 JUMP JUMPDEST SWAP1 PUSH2 0xF01 SWAP2 PUSH2 0xE9C JUMP JUMPDEST JUMP JUMPDEST SWAP1 PUSH2 0xF49 PUSH1 0x40 PUSH1 0x2 PUSH2 0xF4F SWAP5 PUSH2 0xF28 PUSH1 0x0 DUP3 ADD PUSH2 0xF22 PUSH1 0x0 DUP9 ADD PUSH2 0xC14 JUMP JUMPDEST SWAP1 PUSH2 0xCA7 JUMP JUMPDEST PUSH2 0xF41 PUSH1 0x1 DUP3 ADD PUSH2 0xF3B PUSH1 0x20 DUP9 ADD PUSH2 0xC14 JUMP JUMPDEST SWAP1 PUSH2 0xCA7 JUMP JUMPDEST ADD SWAP3 ADD PUSH2 0xCC7 JUMP JUMPDEST SWAP1 PUSH2 0xEF7 JUMP JUMPDEST JUMP JUMPDEST SWAP1 PUSH2 0xF5B SWAP2 PUSH2 0xF03 JUMP JUMPDEST JUMP JUMPDEST PUSH2 0xF66 SWAP1 PUSH2 0x73 JUMP JUMPDEST SWAP1 MSTORE JUMP JUMPDEST SWAP2 PUSH1 0x20 PUSH2 0xF8C SWAP3 SWAP5 SWAP4 PUSH2 0xF85 PUSH1 0x40 DUP3 ADD SWAP7 PUSH1 0x0 DUP4 ADD SWAP1 PUSH2 0xF5D JUMP JUMPDEST ADD SWAP1 PUSH2 0xF5D JUMP JUMPDEST JUMP JUMPDEST SWAP1 SWAP2 PUSH2 0xFAD PUSH2 0xFA7 PUSH2 0xFA2 PUSH1 0x0 CALLER SWAP1 PUSH2 0x4C4 JUMP JUMPDEST PUSH2 0x4FC JUMP JUMPDEST ISZERO PUSH2 0xA50 JUMP JUMPDEST PUSH2 0x10F9 JUMPI JUMPDEST PUSH2 0xFC3 PUSH2 0xFBE DUP5 PUSH2 0xB63 JUMP JUMPDEST PUSH2 0xBCD JUMP JUMPDEST SWAP1 PUSH2 0xFCE PUSH1 0x0 PUSH2 0x794 JUMP JUMPDEST JUMPDEST DUP1 PUSH2 0xFEA PUSH2 0xFE4 PUSH2 0xFDF DUP9 PUSH2 0xB63 JUMP JUMPDEST PUSH2 0x73 JUMP JUMPDEST SWAP2 PUSH2 0x73 JUMP JUMPDEST LT ISZERO PUSH2 0x1074 JUMPI PUSH2 0x106F SWAP1 PUSH2 0x1068 PUSH2 0x100E PUSH1 0x0 PUSH2 0x1007 DUP10 DUP6 SWAP1 PUSH2 0xBF4 JUMP JUMPDEST MLOAD ADD PUSH2 0xC14 JUMP JUMPDEST PUSH2 0x1055 PUSH2 0x1028 PUSH1 0x20 PUSH2 0x1021 DUP12 DUP8 SWAP1 PUSH2 0xBF4 JUMP JUMPDEST MLOAD ADD PUSH2 0xC14 JUMP JUMPDEST PUSH2 0x104C PUSH1 0x0 SWAP2 PUSH2 0x1043 PUSH2 0x1039 PUSH2 0xC21 JUMP JUMPDEST SWAP6 PUSH1 0x0 DUP8 ADD PUSH2 0x545 JUMP JUMPDEST PUSH1 0x20 DUP6 ADD PUSH2 0x545 JUMP JUMPDEST PUSH1 0x40 DUP4 ADD PUSH2 0x5BD JUMP JUMPDEST DUP6 DUP4 SWAP2 PUSH2 0x1062 DUP4 DUP4 PUSH2 0xC2E JUMP JUMPDEST MSTORE PUSH2 0xC2E JUMP JUMPDEST MLOAD POP PUSH2 0x7B0 JUMP JUMPDEST PUSH2 0xFCF JUMP JUMPDEST POP SWAP3 POP PUSH2 0x10BC SWAP1 PUSH2 0x10AB CALLVALUE SWAP2 PUSH2 0x10A2 DUP6 PUSH2 0x1099 PUSH2 0x108F PUSH2 0xC4E JUMP JUMPDEST SWAP6 PUSH1 0x0 DUP8 ADD PUSH2 0x545 JUMP JUMPDEST PUSH1 0x20 DUP6 ADD PUSH2 0x545 JUMP JUMPDEST PUSH1 0x40 DUP4 ADD PUSH2 0x687 JUMP JUMPDEST PUSH2 0x10B7 PUSH1 0x2 CALLER SWAP1 PUSH2 0x509 JUMP JUMPDEST PUSH2 0xF51 JUMP JUMPDEST CALLVALUE SWAP1 PUSH32 0x6110BA4CA3A2A4B05BE8A5160CFB9B4DFBDC1738E1C8E424A1546FC3F2BCE843 SWAP2 PUSH2 0x10F4 PUSH2 0x10EB PUSH2 0x53 JUMP JUMPDEST SWAP3 DUP4 SWAP3 DUP4 PUSH2 0xF6A JUMP JUMPDEST SUB SWAP1 LOG1 JUMP JUMPDEST PUSH2 0x110F PUSH1 0x1 PUSH2 0x110A PUSH1 0x0 CALLER SWAP1 PUSH2 0x4C4 JUMP JUMPDEST PUSH2 0xA80 JUMP JUMPDEST PUSH2 0x1123 PUSH2 0x111C PUSH1 0x1 PUSH2 0xAA0 JUMP JUMPDEST CALLER SWAP1 PUSH2 0xB2E JUMP JUMPDEST PUSH2 0xFB2 JUMP JUMPDEST SWAP1 PUSH2 0x1132 SWAP2 PUSH2 0xA27 JUMP JUMPDEST JUMP JUMPDEST SWAP1 POP SWAP1 JUMP JUMPDEST PUSH2 0x1145 PUSH1 0x0 DUP1 SWAP3 PUSH2 0x1134 JUMP JUMPDEST ADD SWAP1 JUMP JUMPDEST PUSH2 0x1152 SWAP1 PUSH2 0x1139 JUMP JUMPDEST SWAP1 JUMP JUMPDEST PUSH8 0xFFFFFFFFFFFFFFFF DUP2 GT PUSH2 0x1173 JUMPI PUSH2 0x116F PUSH1 0x20 SWAP2 PUSH2 0x277 JUMP JUMPDEST ADD SWAP1 JUMP JUMPDEST PUSH2 0x281 JUMP JUMPDEST SWAP1 PUSH2 0x118A PUSH2 0x1185 DUP4 PUSH2 0x1155 JUMP JUMPDEST PUSH2 0x2C0 JUMP JUMPDEST SWAP2 DUP3 MSTORE JUMP JUMPDEST PUSH1 0x60 SWAP1 JUMP JUMPDEST RETURNDATASIZE PUSH1 0x0 EQ PUSH2 0x11B1 JUMPI PUSH2 0x11A5 RETURNDATASIZE PUSH2 0x1178 JUMP JUMPDEST SWAP1 RETURNDATASIZE PUSH1 0x0 PUSH1 0x20 DUP5 ADD RETURNDATACOPY JUMPDEST JUMP JUMPDEST PUSH2 0x11B9 PUSH2 0x118F JUMP JUMPDEST SWAP1 PUSH2 0x11AF JUMP JUMPDEST PUSH1 0x0 PUSH32 0x4661696C656420746F207472616E736665722066756E64730000000000000000 SWAP2 ADD MSTORE JUMP JUMPDEST PUSH2 0x11F4 PUSH1 0x18 PUSH1 0x20 SWAP3 PUSH2 0x99A JUMP JUMPDEST PUSH2 0x11FD DUP2 PUSH2 0x11BF JUMP JUMPDEST ADD SWAP1 JUMP JUMPDEST PUSH2 0x1217 SWAP1 PUSH1 0x20 DUP2 ADD SWAP1 PUSH1 0x0 DUP2 DUP4 SUB SWAP2 ADD MSTORE PUSH2 0x11E7 JUMP JUMPDEST SWAP1 JUMP JUMPDEST ISZERO PUSH2 0x1221 JUMPI JUMP JUMPDEST PUSH2 0x1229 PUSH2 0x53 JUMP JUMPDEST PUSH3 0x461BCD PUSH1 0xE5 SHL DUP2 MSTORE DUP1 PUSH2 0x123F PUSH1 0x4 DUP3 ADD PUSH2 0x1201 JUMP JUMPDEST SUB SWAP1 REVERT JUMPDEST PUSH8 0xFFFFFFFFFFFFFFFF DUP2 GT PUSH2 0x1261 JUMPI PUSH2 0x125D PUSH1 0x20 SWAP2 PUSH2 0x277 JUMP JUMPDEST ADD SWAP1 JUMP JUMPDEST PUSH2 0x281 JUMP JUMPDEST SWAP1 PUSH2 0x1278 PUSH2 0x1273 DUP4 PUSH2 0x1243 JUMP JUMPDEST PUSH2 0x2C0 JUMP JUMPDEST SWAP2 DUP3 MSTORE JUMP JUMPDEST PUSH1 0x0 PUSH32 0x6E6F742070616964000000000000000000000000000000000000000000000000 SWAP2 ADD MSTORE JUMP JUMPDEST PUSH2 0x12AF PUSH1 0x8 PUSH2 0x1266 JUMP JUMPDEST SWAP1 PUSH2 0x12BC PUSH1 0x20 DUP4 ADD PUSH2 0x127D JUMP JUMPDEST JUMP JUMPDEST PUSH2 0x12C6 PUSH2 0x12A5 JUMP JUMPDEST SWAP1 JUMP JUMPDEST PUSH1 0x0 PUSH32 0x616C6C2070616964000000000000000000000000000000000000000000000000 SWAP2 ADD MSTORE JUMP JUMPDEST PUSH2 0x12FB PUSH1 0x8 PUSH2 0x1266 JUMP JUMPDEST SWAP1 PUSH2 0x1308 PUSH1 0x20 DUP4 ADD PUSH2 0x12C9 JUMP JUMPDEST JUMP JUMPDEST PUSH2 0x1312 PUSH2 0x12F1 JUMP JUMPDEST SWAP1 JUMP JUMPDEST DUP3 PUSH2 0x1333 PUSH2 0x132D PUSH2 0x1328 PUSH1 0x20 DUP7 ADD PUSH2 0xC14 JUMP JUMPDEST PUSH2 0x73 JUMP JUMPDEST SWAP2 PUSH2 0x73 JUMP JUMPDEST LT ISZERO DUP1 PUSH2 0x141B JUMPI JUMPDEST PUSH2 0x1345 JUMPI JUMPDEST POP POP POP JUMP JUMPDEST PUSH2 0x1353 PUSH1 0x1 PUSH1 0x40 DUP5 ADD PUSH2 0x5BD JUMP JUMPDEST PUSH1 0x0 DUP1 PUSH2 0x135F DUP4 PUSH2 0x85A JUMP JUMPDEST PUSH2 0x136A DUP3 DUP7 ADD PUSH2 0xC14 JUMP JUMPDEST PUSH2 0x1372 PUSH2 0x53 JUMP JUMPDEST SWAP1 DUP2 PUSH2 0x137D DUP2 PUSH2 0x1149 JUMP JUMPDEST SUB SWAP3 GAS CALL PUSH2 0x1389 PUSH2 0x1194 JUMP JUMPDEST POP PUSH2 0x1393 DUP2 PUSH2 0x121A JUMP JUMPDEST PUSH1 0x0 EQ PUSH2 0x1403 JUMPI PUSH1 0x0 PUSH2 0x13B7 SWAP2 PUSH2 0x13B0 PUSH2 0x13AB PUSH2 0x130A JUMP JUMPDEST PUSH2 0x14B4 JUMP JUMPDEST SWAP3 ADD PUSH2 0xC14 JUMP JUMPDEST SWAP2 PUSH2 0x13E2 PUSH32 0x219E38014D0E72B05EAD8A8D0258EBEA4BE20D0C2C1DE6C08974A08A6C917F6B SWAP3 PUSH2 0x85A JUMP JUMPDEST SWAP3 PUSH2 0x13F7 PUSH2 0x13EE PUSH2 0x53 JUMP JUMPDEST SWAP3 DUP4 SWAP3 DUP4 PUSH2 0xF6A JUMP JUMPDEST SUB SWAP1 LOG2 JUMPDEST CODESIZE DUP1 DUP1 PUSH2 0x1340 JUMP JUMPDEST POP POP POP PUSH2 0x1416 PUSH2 0x1411 PUSH2 0x12BE JUMP JUMPDEST PUSH2 0x14B4 JUMP JUMPDEST PUSH2 0x13FB JUMP JUMPDEST POP PUSH2 0x1428 PUSH1 0x40 DUP4 ADD PUSH2 0xE06 JUMP JUMPDEST PUSH2 0x143B PUSH2 0x1435 PUSH1 0x0 PUSH2 0xBB JUMP JUMPDEST SWAP2 PUSH2 0xBB JUMP JUMPDEST EQ PUSH2 0x133B JUMP JUMPDEST MLOAD SWAP1 JUMP JUMPDEST PUSH1 0x0 JUMPDEST DUP4 DUP2 LT PUSH2 0x1459 JUMPI POP POP SWAP1 PUSH1 0x0 SWAP2 ADD MSTORE JUMP JUMPDEST DUP1 PUSH1 0x20 SWAP2 DUP4 ADD MLOAD DUP2 DUP6 ADD MSTORE ADD PUSH2 0x1448 JUMP JUMPDEST PUSH2 0x1489 PUSH2 0x1492 PUSH1 0x20 SWAP4 PUSH2 0x1497 SWAP4 PUSH2 0x1480 DUP2 PUSH2 0x1441 JUMP JUMPDEST SWAP4 DUP5 DUP1 SWAP4 PUSH2 0x99A JUMP JUMPDEST SWAP6 DUP7 SWAP2 ADD PUSH2 0x1445 JUMP JUMPDEST PUSH2 0x277 JUMP JUMPDEST ADD SWAP1 JUMP JUMPDEST PUSH2 0x14B1 SWAP2 PUSH1 0x20 DUP3 ADD SWAP2 PUSH1 0x0 DUP2 DUP5 SUB SWAP2 ADD MSTORE PUSH2 0x146A JUMP JUMPDEST SWAP1 JUMP JUMPDEST PUSH2 0x14DF PUSH2 0x14EE PUSH2 0x14F3 SWAP3 PUSH2 0x14C6 PUSH2 0x53 JUMP JUMPDEST SWAP3 DUP4 SWAP2 PUSH1 0x4 PUSH1 0x20 DUP5 ADD PUSH4 0x104C13EB PUSH1 0xE2 SHL DUP2 MSTORE ADD PUSH2 0x149B JUMP JUMPDEST PUSH1 0x20 DUP3 ADD DUP2 SUB DUP3 MSTORE SUB DUP3 PUSH2 0x297 JUMP JUMPDEST PUSH2 0x14F5 JUMP JUMPDEST JUMP JUMPDEST PUSH2 0x1508 SWAP1 PUSH2 0x1503 PUSH1 0x1 PUSH2 0x1536 JUMP JUMPDEST PUSH2 0x1558 JUMP JUMPDEST JUMP JUMPDEST PUSH11 0x636F6E736F6C652E6C6F67 SWAP1 JUMP JUMPDEST PUSH1 0x0 DUP1 SWAP2 PUSH2 0x1525 PUSH2 0x150A JUMP JUMPDEST PUSH1 0x20 DUP3 MLOAD SWAP3 ADD SWAP1 GAS STATICCALL POP JUMP JUMPDEST PUSH1 0x0 SWAP1 JUMP JUMPDEST PUSH2 0x153E PUSH2 0x1531 JUMP JUMPDEST POP SWAP1 JUMP JUMPDEST PUSH4 0x4E487B71 PUSH1 0xE0 SHL PUSH1 0x0 MSTORE PUSH1 0x51 PUSH1 0x4 MSTORE PUSH1 0x24 PUSH1 0x0 REVERT JUMPDEST PUSH1 0x1 SUB PUSH2 0x1542 JUMPI PUSH2 0x1568 SWAP1 PUSH2 0x1519 JUMP JUMPDEST JUMP INVALID LOG2 PUSH5 0x6970667358 0x22 SLT KECCAK256 EQ MSTORE8 LOG0 0xD PUSH19 0xBB7AA77B101D6664511E79832277EF81BC9CF5 MLOAD POP 0xD5 CALLDATASIZE 0xEF POP 0xB6 PUSH21 0x64736F6C634300081C003300000000000000000000 "},"methodIdentifiers":{"create_transaction(uint256,(uint256,uint256)[])":"8bfc40cd","get_transaction()":"248278e1","process_due_milestones()":"778b4e65"}}}}}