{"contracts/EasyMilestones.sol":{"EasyMilestones":{"abi":[{"anonymous":false,"inputs":[{"indexed":true,"internalType":"address","name":"recipient","type":"address"},{"indexed":false,"internalType":"uint256","name":"amount","type":"uint256"},{"indexed":false,"internalType":"uint256","name":"timestamp","type":"uint256"}],"name":"FundsTransferred","type":"event"},{"inputs":[{"internalType":"uint256","name":"_deadline","type":"uint256"},{"components":[{"internalType":"uint256","name":"amount","type":"uint256"},{"internalType":"uint256","name":"deadline","type":"uint256"}],"internalType":"struct EasyMilestones.MilestoneWithoutStatus[]","name":"_milestones","type":"tuple[]"}],"name":"create_transaction","outputs":[],"stateMutability":"payable","type":"function"},{"inputs":[],"name":"get_transaction","outputs":[{"components":[{"internalType":"uint256","name":"amount","type":"uint256"},{"internalType":"uint256","name":"deadline","type":"uint256"},{"components":[{"internalType":"uint256","name":"amount","type":"uint256"},{"internalType":"uint256","name":"deadline","type":"uint256"},{"internalType":"enum EasyMilestones.Status","name":"status","type":"uint8"}],"internalType":"struct EasyMilestones.Milestone[]","name":"milestones","type":"tuple[]"}],"internalType":"struct EasyMilestones.Transaction","name":"txn","type":"tuple"}],"stateMutability":"view","type":"function"},{"inputs":[],"name":"process_due_milestones","outputs":[],"stateMutability":"nonpayable","type":"function"}],"evm":{"bytecode":{"linkReferences":{},"object":"608060405234601c57600e6020565b61120061002c823961120090f35b6026565b60405190565b600080fdfe60806040526004361015610013575b610429565b61001e60003561004d565b8063248278e114610048578063778b4e651461004357638bfc40cd0361000e576103ff565b610216565b6101db565b60e01c90565b60405190565b600080fd5b600080fd5b600091031261006e57565b61005e565b90565b61007f90610073565b9052565b5190565b60209181520190565b60200190565b634e487b7160e01b600052602160045260246000fd5b600211156100b657565b610096565b906100c5826100ac565b565b6100d0906100bb565b90565b6100dc906100c7565b9052565b90604080610116936100fa60008201516000860190610076565b61010c60208201516020860190610076565b01519101906100d3565b565b90610125816060936100e0565b0190565b60200190565b9061014c61014661013f84610083565b8093610087565b92610090565b9060005b81811061015d5750505090565b9091926101766101706001928651610118565b94610129565b9101919091610150565b6101bf916040606082019261019d60008201516000850190610076565b6101af60208201516020850190610076565b015190604081840391015261012f565b90565b6101d89160208201916000818403910152610180565b90565b3461020b576101eb366004610063565b6102076101f66106e9565b6101fe610053565b918291826101c2565b0390f35b610059565b60000190565b3461024457610226366004610063565b61022e6108b5565b610236610053565b8061024081610210565b0390f35b610059565b600080fd5b61025781610073565b0361025e57565b600080fd5b905035906102708261024e565b565b600080fd5b601f801991011690565b634e487b7160e01b600052604160045260246000fd5b906102a190610277565b810190811067ffffffffffffffff8211176102bb57604052565b610281565b906102d36102cc610053565b9283610297565b565b67ffffffffffffffff81116102ed5760208091020190565b610281565b600080fd5b600080fd5b9190604083820312610338576103319061031660406102c0565b936103248260008301610263565b6000860152602001610263565b6020830152565b6102f7565b9092919261035261034d826102d5565b6102c0565b93818552604060208601920283019281841161039157915b8383106103775750505050565b602060409161038684866102fc565b81520192019161036a565b6102f2565b9080601f830112156103b4578160206103b19335910161033d565b90565b610272565b9190916040818403126103fa576103d38360008301610263565b92602082013567ffffffffffffffff81116103f5576103f29201610396565b90565b610249565b61005e565b61041361040d3660046103b9565b906111be565b61041b610053565b8061042581610210565b0390f35b600080fd5b61043860606102c0565b90565b600090565b606090565b61044d61042e565b90602080808461045b61043b565b81520161046661043b565b815201610471610440565b81525050565b61047f610445565b90565b60018060a01b031690565b90565b6104a461049f6104a992610482565b61048d565b610482565b90565b6104b590610490565b90565b6104c1906104ac565b90565b906104ce906104b8565b600052602052604060002090565b60001c90565b60ff1690565b6104f46104f9916104dc565b6104e2565b90565b61050690546104e8565b90565b90610513906104b8565b600052602052604060002090565b90565b610530610535916104dc565b610521565b90565b6105429054610524565b90565b9061054f90610073565b9052565b5490565b67ffffffffffffffff811161056f5760208091020190565b610281565b9061058661058183610557565b6102c0565b918252565b600052602060002090565b60ff1690565b6105a86105ad916104dc565b610596565b90565b6105ba905461059c565b90565b906105c7906100bb565b9052565b6105d560606102c0565b90565b9061062961062060026105e96105cb565b946106026105f960008301610538565b60008801610545565b61061a61061160018301610538565b60208801610545565b016105b0565b604084016105bd565b565b610634906105d8565b90565b9061064182610553565b61064a81610574565b92610658602085019161058b565b6000915b8383106106695750505050565b600360206001926106798561062b565b81520192019201919061065c565b52565b906106db6106d2600261069b61042e565b946106b46106ab60008301610538565b60008801610545565b6106cc6106c360018301610538565b60208801610545565b01610637565b60408401610687565b565b6106e69061068a565b90565b6106f1610477565b610705610700600033906104c4565b6104fc565b61070d575b90565b5061072261071d60023390610509565b6106dd565b61070a565b90565b61073e61073961074392610727565b61048d565b610073565b90565b60016107529101610073565b90565b5490565b634e487b7160e01b600052603260045260246000fd5b600052602060002090565b61078381610755565b82101561079e5761079560019161076f565b91020190600090565b610759565b1c90565b60018060a01b031690565b6107c29060086107c793026107a3565b6107a7565b90565b906107d591546107b2565b90565b90565b6107e481610553565b8210156107ff576107f660039161058b565b91020190600090565b610759565b60001b90565b9061081660ff91610804565b9181191691161790565b610829906100bb565b90565b90565b9061084461083f61084b92610820565b61082c565b825461080a565b9055565b61085890610490565b90565b6108649061084f565b90565b610870906104ac565b90565b61087b610053565b3d6000823e3d90fd5b61088d90610073565b9052565b9160206108b39294936108ac60408201966000830190610884565b0190610884565b565b6108bf600061072a565b5b806108dc6108d66108d16001610755565b610073565b91610073565b1015610a99576108f76108f16001839061077a565b906107ca565b9161090c61090760028590610509565b6107d8565b90610917600061072a565b5b8061093661093061092b60028701610553565b610073565b91610073565b1015610a87574261096861096261095d60016109566002890187906107db565b5001610538565b610073565b91610073565b101580610a54575b610983575b61097e90610746565b610918565b61099e6001600261099781870185906107db565b500161082f565b60008080806109b46109af8a61085b565b610867565b6109cd826109c660028b0189906107db565b5001610538565b90828215610a4b575bf115610a465761097e90856109fb60006109f46002880185906107db565b5001610538565b9042610a277f219e38014d0e72b05ead8a8d0258ebea4be20d0c2c1de6c08974a08a6c917f6b926104b8565b92610a3c610a33610053565b92839283610891565b0390a29050610975565b610873565b506108fc6109d6565b50610a6e6002610a6781860184906107db565b50016105b0565b610a81610a7b60006100bb565b916100bb565b14610970565b50925050610a9490610746565b6108c0565b50565b60209181520190565b60007f56616c7565206d7573742062652067726561746572207468616e203000000000910152565b610ada601c602092610a9c565b610ae381610aa5565b0190565b610afd9060208101906000818303910152610acd565b90565b15610b0757565b610b0f610053565b62461bcd60e51b815280610b2560048201610ae7565b0390fd5b90610b5091610b4b34610b45610b3f600061072a565b91610073565b11610b00565b61105f565b565b151590565b610b6090610b52565b90565b90565b90610b7b610b76610b8292610b57565b610b63565b825461080a565b9055565b90565b600052602060002090565b5490565b610ba181610b94565b821015610bbc57610bb3600191610b89565b91020190600090565b610759565b1b90565b91906008610be5910291610bdf60018060a01b0384610bc1565b92610bc1565b9181191691161790565b90565b9190610c08610c03610c10936104b8565b610bef565b908354610bc5565b9055565b9081549168010000000000000000831015610c445782610c3c916001610c4295018155610b98565b90610bf2565b565b610281565b5190565b600090565b610c5a6105cb565b906020808084610c6861043b565b815201610c7361043b565b815201610c7e610c4d565b81525050565b610c8c610c52565b90565b60005b828110610c9e57505050565b602090610ca9610c84565b8184015201610c92565b90610cd8610cc083610574565b92602080610cce8693610557565b9201910390610c8f565b565b90610ce482610c49565b811015610cf5576020809102010190565b610759565b610d049051610073565b90565b610d1160606102c0565b90565b90610d1e82610083565b811015610d2f576020809102010190565b610759565b610d3e60606102c0565b90565b634e487b7160e01b600052600060045260246000fd5b90610d6460001991610804565b9181191691161790565b610d82610d7d610d8792610073565b61048d565b610073565b90565b90565b90610da2610d9d610da992610d6e565b610d8a565b8254610d57565b9055565b5190565b634e487b7160e01b600052601160045260246000fd5b610dd6610ddc91939293610073565b92610073565b91610de8838202610073565b928184041490151715610df757565b610db1565b610e07906003610dc7565b90565b91906008610e26910291610e2060001984610bc1565b92610bc1565b9181191691161790565b9190610e46610e41610e4e93610d6e565b610d8a565b908354610e0a565b9055565b600090565b610e6991610e63610e52565b91610e30565b565b6002600091610e7c83808301610e57565b610e898360018301610e57565b0155565b90600003610ea057610e9e90610e6b565b565b610d41565b5b818110610eb1575050565b80610ebf6000600393610e8d565b01610ea6565b9091828110610ed4575b505050565b610ef2610eec610ee6610efd95610dfc565b92610dfc565b9261058b565b918201910190610ea5565b388080610ecf565b90680100000000000000008111610f2e5781610f23610f2c93610553565b90828155610ec5565b565b610281565b5190565b610f4190516100bb565b90565b90610f8a60406002610f9094610f6960008201610f6360008801610cfa565b90610d8d565b610f8260018201610f7c60208801610cfa565b90610d8d565b019201610f37565b9061082f565b565b90610f9c91610f44565b565b610fc3610fbd610fad84610083565b93610fb88585610f05565b610090565b9161058b565b6000915b838310610fd45750505050565b6003602082610fed610fe7600195610f33565b86610f92565b01920192019190610fc7565b9061100391610f9e565b565b9061104b604060026110519461102a6000820161102460008801610cfa565b90610d8d565b6110436001820161103d60208801610cfa565b90610d8d565b019201610dad565b90610ff9565b565b9061105d91611005565b565b909161107e611078611073600033906104c4565b6104fc565b15610b52565b61118f575b61109461108f84610c49565b610cb3565b9061109f600061072a565b5b806110bb6110b56110b088610c49565b610073565b91610073565b101561114557611140906111396110df60006110d8898590610cda565b5101610cfa565b6111266110f960206110f28b8790610cda565b5101610cfa565b61111d60009161111461110a610d07565b9560008701610545565b60208501610545565b604083016105bd565b8583916111338383610d14565b52610d14565b5150610746565b6110a0565b5092509061117c61118d92611173349361116a611160610d34565b9560008701610545565b60208501610545565b60408301610687565b61118860023390610509565b611053565b565b6111a560016111a0600033906104c4565b610b66565b6111b96111b26001610b86565b3390610c14565b611083565b906111c891610b29565b56fea2646970667358221220e8cda89d650466acf8a8b0dad4735a13333e1a910c71f84518f1f46da55f74ec64736f6c634300081c0033","opcodes":"PUSH1 0x80 PUSH1 0x40 MSTORE CALLVALUE PUSH1 0x1C JUMPI PUSH1 0xE PUSH1 0x20 JUMP JUMPDEST PUSH2 0x1200 PUSH2 0x2C DUP3 CODECOPY PUSH2 0x1200 SWAP1 RETURN JUMPDEST PUSH1 0x26 JUMP JUMPDEST PUSH1 0x40 MLOAD SWAP1 JUMP JUMPDEST PUSH1 0x0 DUP1 REVERT INVALID PUSH1 0x80 PUSH1 0x40 MSTORE PUSH1 0x4 CALLDATASIZE LT ISZERO PUSH2 0x13 JUMPI JUMPDEST PUSH2 0x429 JUMP JUMPDEST PUSH2 0x1E PUSH1 0x0 CALLDATALOAD PUSH2 0x4D JUMP JUMPDEST DUP1 PUSH4 0x248278E1 EQ PUSH2 0x48 JUMPI DUP1 PUSH4 0x778B4E65 EQ PUSH2 0x43 JUMPI PUSH4 0x8BFC40CD SUB PUSH2 0xE JUMPI PUSH2 0x3FF JUMP JUMPDEST PUSH2 0x216 JUMP JUMPDEST PUSH2 0x1DB JUMP JUMPDEST PUSH1 0xE0 SHR SWAP1 JUMP JUMPDEST PUSH1 0x40 MLOAD SWAP1 JUMP JUMPDEST PUSH1 0x0 DUP1 REVERT JUMPDEST PUSH1 0x0 DUP1 REVERT JUMPDEST PUSH1 0x0 SWAP2 SUB SLT PUSH2 0x6E JUMPI JUMP JUMPDEST PUSH2 0x5E JUMP JUMPDEST SWAP1 JUMP JUMPDEST PUSH2 0x7F SWAP1 PUSH2 0x73 JUMP JUMPDEST SWAP1 MSTORE JUMP JUMPDEST MLOAD SWAP1 JUMP JUMPDEST PUSH1 0x20 SWAP2 DUP2 MSTORE ADD SWAP1 JUMP JUMPDEST PUSH1 0x20 ADD SWAP1 JUMP JUMPDEST PUSH4 0x4E487B71 PUSH1 0xE0 SHL PUSH1 0x0 MSTORE PUSH1 0x21 PUSH1 0x4 MSTORE PUSH1 0x24 PUSH1 0x0 REVERT JUMPDEST PUSH1 0x2 GT ISZERO PUSH2 0xB6 JUMPI JUMP JUMPDEST PUSH2 0x96 JUMP JUMPDEST SWAP1 PUSH2 0xC5 DUP3 PUSH2 0xAC JUMP JUMPDEST JUMP JUMPDEST PUSH2 0xD0 SWAP1 PUSH2 0xBB JUMP JUMPDEST SWAP1 JUMP JUMPDEST PUSH2 0xDC SWAP1 PUSH2 0xC7 JUMP JUMPDEST SWAP1 MSTORE JUMP JUMPDEST SWAP1 PUSH1 0x40 DUP1 PUSH2 0x116 SWAP4 PUSH2 0xFA PUSH1 0x0 DUP3 ADD MLOAD PUSH1 0x0 DUP7 ADD SWAP1 PUSH2 0x76 JUMP JUMPDEST PUSH2 0x10C PUSH1 0x20 DUP3 ADD MLOAD PUSH1 0x20 DUP7 ADD SWAP1 PUSH2 0x76 JUMP JUMPDEST ADD MLOAD SWAP2 ADD SWAP1 PUSH2 0xD3 JUMP JUMPDEST JUMP JUMPDEST SWAP1 PUSH2 0x125 DUP2 PUSH1 0x60 SWAP4 PUSH2 0xE0 JUMP JUMPDEST ADD SWAP1 JUMP JUMPDEST PUSH1 0x20 ADD SWAP1 JUMP JUMPDEST SWAP1 PUSH2 0x14C PUSH2 0x146 PUSH2 0x13F DUP5 PUSH2 0x83 JUMP JUMPDEST DUP1 SWAP4 PUSH2 0x87 JUMP JUMPDEST SWAP3 PUSH2 0x90 JUMP JUMPDEST SWAP1 PUSH1 0x0 JUMPDEST DUP2 DUP2 LT PUSH2 0x15D JUMPI POP POP POP SWAP1 JUMP JUMPDEST SWAP1 SWAP2 SWAP3 PUSH2 0x176 PUSH2 0x170 PUSH1 0x1 SWAP3 DUP7 MLOAD PUSH2 0x118 JUMP JUMPDEST SWAP5 PUSH2 0x129 JUMP JUMPDEST SWAP2 ADD SWAP2 SWAP1 SWAP2 PUSH2 0x150 JUMP JUMPDEST PUSH2 0x1BF SWAP2 PUSH1 0x40 PUSH1 0x60 DUP3 ADD SWAP3 PUSH2 0x19D PUSH1 0x0 DUP3 ADD MLOAD PUSH1 0x0 DUP6 ADD SWAP1 PUSH2 0x76 JUMP JUMPDEST PUSH2 0x1AF PUSH1 0x20 DUP3 ADD MLOAD PUSH1 0x20 DUP6 ADD SWAP1 PUSH2 0x76 JUMP JUMPDEST ADD MLOAD SWAP1 PUSH1 0x40 DUP2 DUP5 SUB SWAP2 ADD MSTORE PUSH2 0x12F JUMP JUMPDEST SWAP1 JUMP JUMPDEST PUSH2 0x1D8 SWAP2 PUSH1 0x20 DUP3 ADD SWAP2 PUSH1 0x0 DUP2 DUP5 SUB SWAP2 ADD MSTORE PUSH2 0x180 JUMP JUMPDEST SWAP1 JUMP JUMPDEST CALLVALUE PUSH2 0x20B JUMPI PUSH2 0x1EB CALLDATASIZE PUSH1 0x4 PUSH2 0x63 JUMP JUMPDEST PUSH2 0x207 PUSH2 0x1F6 PUSH2 0x6E9 JUMP JUMPDEST PUSH2 0x1FE PUSH2 0x53 JUMP JUMPDEST SWAP2 DUP3 SWAP2 DUP3 PUSH2 0x1C2 JUMP JUMPDEST SUB SWAP1 RETURN JUMPDEST PUSH2 0x59 JUMP JUMPDEST PUSH1 0x0 ADD SWAP1 JUMP JUMPDEST CALLVALUE PUSH2 0x244 JUMPI PUSH2 0x226 CALLDATASIZE PUSH1 0x4 PUSH2 0x63 JUMP JUMPDEST PUSH2 0x22E PUSH2 0x8B5 JUMP JUMPDEST PUSH2 0x236 PUSH2 0x53 JUMP JUMPDEST DUP1 PUSH2 0x240 DUP2 PUSH2 0x210 JUMP JUMPDEST SUB SWAP1 RETURN JUMPDEST PUSH2 0x59 JUMP JUMPDEST PUSH1 0x0 DUP1 REVERT JUMPDEST PUSH2 0x257 DUP2 PUSH2 0x73 JUMP JUMPDEST SUB PUSH2 0x25E JUMPI JUMP JUMPDEST PUSH1 0x0 DUP1 REVERT JUMPDEST SWAP1 POP CALLDATALOAD SWAP1 PUSH2 0x270 DUP3 PUSH2 0x24E JUMP JUMPDEST JUMP JUMPDEST PUSH1 0x0 DUP1 REVERT JUMPDEST PUSH1 0x1F DUP1 NOT SWAP2 ADD AND SWAP1 JUMP JUMPDEST PUSH4 0x4E487B71 PUSH1 0xE0 SHL PUSH1 0x0 MSTORE PUSH1 0x41 PUSH1 0x4 MSTORE PUSH1 0x24 PUSH1 0x0 REVERT JUMPDEST SWAP1 PUSH2 0x2A1 SWAP1 PUSH2 0x277 JUMP JUMPDEST DUP2 ADD SWAP1 DUP2 LT PUSH8 0xFFFFFFFFFFFFFFFF DUP3 GT OR PUSH2 0x2BB JUMPI PUSH1 0x40 MSTORE JUMP JUMPDEST PUSH2 0x281 JUMP JUMPDEST SWAP1 PUSH2 0x2D3 PUSH2 0x2CC PUSH2 0x53 JUMP JUMPDEST SWAP3 DUP4 PUSH2 0x297 JUMP JUMPDEST JUMP JUMPDEST PUSH8 0xFFFFFFFFFFFFFFFF DUP2 GT PUSH2 0x2ED JUMPI PUSH1 0x20 DUP1 SWAP2 MUL ADD SWAP1 JUMP JUMPDEST PUSH2 0x281 JUMP JUMPDEST PUSH1 0x0 DUP1 REVERT JUMPDEST PUSH1 0x0 DUP1 REVERT JUMPDEST SWAP2 SWAP1 PUSH1 0x40 DUP4 DUP3 SUB SLT PUSH2 0x338 JUMPI PUSH2 0x331 SWAP1 PUSH2 0x316 PUSH1 0x40 PUSH2 0x2C0 JUMP JUMPDEST SWAP4 PUSH2 0x324 DUP3 PUSH1 0x0 DUP4 ADD PUSH2 0x263 JUMP JUMPDEST PUSH1 0x0 DUP7 ADD MSTORE PUSH1 0x20 ADD PUSH2 0x263 JUMP JUMPDEST PUSH1 0x20 DUP4 ADD MSTORE JUMP JUMPDEST PUSH2 0x2F7 JUMP JUMPDEST SWAP1 SWAP3 SWAP2 SWAP3 PUSH2 0x352 PUSH2 0x34D DUP3 PUSH2 0x2D5 JUMP JUMPDEST PUSH2 0x2C0 JUMP JUMPDEST SWAP4 DUP2 DUP6 MSTORE PUSH1 0x40 PUSH1 0x20 DUP7 ADD SWAP3 MUL DUP4 ADD SWAP3 DUP2 DUP5 GT PUSH2 0x391 JUMPI SWAP2 JUMPDEST DUP4 DUP4 LT PUSH2 0x377 JUMPI POP POP POP POP JUMP JUMPDEST PUSH1 0x20 PUSH1 0x40 SWAP2 PUSH2 0x386 DUP5 DUP7 PUSH2 0x2FC JUMP JUMPDEST DUP2 MSTORE ADD SWAP3 ADD SWAP2 PUSH2 0x36A JUMP JUMPDEST PUSH2 0x2F2 JUMP JUMPDEST SWAP1 DUP1 PUSH1 0x1F DUP4 ADD SLT ISZERO PUSH2 0x3B4 JUMPI DUP2 PUSH1 0x20 PUSH2 0x3B1 SWAP4 CALLDATALOAD SWAP2 ADD PUSH2 0x33D JUMP JUMPDEST SWAP1 JUMP JUMPDEST PUSH2 0x272 JUMP JUMPDEST SWAP2 SWAP1 SWAP2 PUSH1 0x40 DUP2 DUP5 SUB SLT PUSH2 0x3FA JUMPI PUSH2 0x3D3 DUP4 PUSH1 0x0 DUP4 ADD PUSH2 0x263 JUMP JUMPDEST SWAP3 PUSH1 0x20 DUP3 ADD CALLDATALOAD PUSH8 0xFFFFFFFFFFFFFFFF DUP2 GT PUSH2 0x3F5 JUMPI PUSH2 0x3F2 SWAP3 ADD PUSH2 0x396 JUMP JUMPDEST SWAP1 JUMP JUMPDEST PUSH2 0x249 JUMP JUMPDEST PUSH2 0x5E JUMP JUMPDEST PUSH2 0x413 PUSH2 0x40D CALLDATASIZE PUSH1 0x4 PUSH2 0x3B9 JUMP JUMPDEST SWAP1 PUSH2 0x11BE JUMP JUMPDEST PUSH2 0x41B PUSH2 0x53 JUMP JUMPDEST DUP1 PUSH2 0x425 DUP2 PUSH2 0x210 JUMP JUMPDEST SUB SWAP1 RETURN JUMPDEST PUSH1 0x0 DUP1 REVERT JUMPDEST PUSH2 0x438 PUSH1 0x60 PUSH2 0x2C0 JUMP JUMPDEST SWAP1 JUMP JUMPDEST PUSH1 0x0 SWAP1 JUMP JUMPDEST PUSH1 0x60 SWAP1 JUMP JUMPDEST PUSH2 0x44D PUSH2 0x42E JUMP JUMPDEST SWAP1 PUSH1 0x20 DUP1 DUP1 DUP5 PUSH2 0x45B PUSH2 0x43B JUMP JUMPDEST DUP2 MSTORE ADD PUSH2 0x466 PUSH2 0x43B JUMP JUMPDEST DUP2 MSTORE ADD PUSH2 0x471 PUSH2 0x440 JUMP JUMPDEST DUP2 MSTORE POP POP JUMP JUMPDEST PUSH2 0x47F PUSH2 0x445 JUMP JUMPDEST SWAP1 JUMP JUMPDEST PUSH1 0x1 DUP1 PUSH1 0xA0 SHL SUB AND SWAP1 JUMP JUMPDEST SWAP1 JUMP JUMPDEST PUSH2 0x4A4 PUSH2 0x49F PUSH2 0x4A9 SWAP3 PUSH2 0x482 JUMP JUMPDEST PUSH2 0x48D JUMP JUMPDEST PUSH2 0x482 JUMP JUMPDEST SWAP1 JUMP JUMPDEST PUSH2 0x4B5 SWAP1 PUSH2 0x490 JUMP JUMPDEST SWAP1 JUMP JUMPDEST PUSH2 0x4C1 SWAP1 PUSH2 0x4AC JUMP JUMPDEST SWAP1 JUMP JUMPDEST SWAP1 PUSH2 0x4CE SWAP1 PUSH2 0x4B8 JUMP JUMPDEST PUSH1 0x0 MSTORE PUSH1 0x20 MSTORE PUSH1 0x40 PUSH1 0x0 KECCAK256 SWAP1 JUMP JUMPDEST PUSH1 0x0 SHR SWAP1 JUMP JUMPDEST PUSH1 0xFF AND SWAP1 JUMP JUMPDEST PUSH2 0x4F4 PUSH2 0x4F9 SWAP2 PUSH2 0x4DC JUMP JUMPDEST PUSH2 0x4E2 JUMP JUMPDEST SWAP1 JUMP JUMPDEST PUSH2 0x506 SWAP1 SLOAD PUSH2 0x4E8 JUMP JUMPDEST SWAP1 JUMP JUMPDEST SWAP1 PUSH2 0x513 SWAP1 PUSH2 0x4B8 JUMP JUMPDEST PUSH1 0x0 MSTORE PUSH1 0x20 MSTORE PUSH1 0x40 PUSH1 0x0 KECCAK256 SWAP1 JUMP JUMPDEST SWAP1 JUMP JUMPDEST PUSH2 0x530 PUSH2 0x535 SWAP2 PUSH2 0x4DC JUMP JUMPDEST PUSH2 0x521 JUMP JUMPDEST SWAP1 JUMP JUMPDEST PUSH2 0x542 SWAP1 SLOAD PUSH2 0x524 JUMP JUMPDEST SWAP1 JUMP JUMPDEST SWAP1 PUSH2 0x54F SWAP1 PUSH2 0x73 JUMP JUMPDEST SWAP1 MSTORE JUMP JUMPDEST SLOAD SWAP1 JUMP JUMPDEST PUSH8 0xFFFFFFFFFFFFFFFF DUP2 GT PUSH2 0x56F JUMPI PUSH1 0x20 DUP1 SWAP2 MUL ADD SWAP1 JUMP JUMPDEST PUSH2 0x281 JUMP JUMPDEST SWAP1 PUSH2 0x586 PUSH2 0x581 DUP4 PUSH2 0x557 JUMP JUMPDEST PUSH2 0x2C0 JUMP JUMPDEST SWAP2 DUP3 MSTORE JUMP JUMPDEST PUSH1 0x0 MSTORE PUSH1 0x20 PUSH1 0x0 KECCAK256 SWAP1 JUMP JUMPDEST PUSH1 0xFF AND SWAP1 JUMP JUMPDEST PUSH2 0x5A8 PUSH2 0x5AD SWAP2 PUSH2 0x4DC JUMP JUMPDEST PUSH2 0x596 JUMP JUMPDEST SWAP1 JUMP JUMPDEST PUSH2 0x5BA SWAP1 SLOAD PUSH2 0x59C JUMP JUMPDEST SWAP1 JUMP JUMPDEST SWAP1 PUSH2 0x5C7 SWAP1 PUSH2 0xBB JUMP JUMPDEST SWAP1 MSTORE JUMP JUMPDEST PUSH2 0x5D5 PUSH1 0x60 PUSH2 0x2C0 JUMP JUMPDEST SWAP1 JUMP JUMPDEST SWAP1 PUSH2 0x629 PUSH2 0x620 PUSH1 0x2 PUSH2 0x5E9 PUSH2 0x5CB JUMP JUMPDEST SWAP5 PUSH2 0x602 PUSH2 0x5F9 PUSH1 0x0 DUP4 ADD PUSH2 0x538 JUMP JUMPDEST PUSH1 0x0 DUP9 ADD PUSH2 0x545 JUMP JUMPDEST PUSH2 0x61A PUSH2 0x611 PUSH1 0x1 DUP4 ADD PUSH2 0x538 JUMP JUMPDEST PUSH1 0x20 DUP9 ADD PUSH2 0x545 JUMP JUMPDEST ADD PUSH2 0x5B0 JUMP JUMPDEST PUSH1 0x40 DUP5 ADD PUSH2 0x5BD JUMP JUMPDEST JUMP JUMPDEST PUSH2 0x634 SWAP1 PUSH2 0x5D8 JUMP JUMPDEST SWAP1 JUMP JUMPDEST SWAP1 PUSH2 0x641 DUP3 PUSH2 0x553 JUMP JUMPDEST PUSH2 0x64A DUP2 PUSH2 0x574 JUMP JUMPDEST SWAP3 PUSH2 0x658 PUSH1 0x20 DUP6 ADD SWAP2 PUSH2 0x58B JUMP JUMPDEST PUSH1 0x0 SWAP2 JUMPDEST DUP4 DUP4 LT PUSH2 0x669 JUMPI POP POP POP POP JUMP JUMPDEST PUSH1 0x3 PUSH1 0x20 PUSH1 0x1 SWAP3 PUSH2 0x679 DUP6 PUSH2 0x62B JUMP JUMPDEST DUP2 MSTORE ADD SWAP3 ADD SWAP3 ADD SWAP2 SWAP1 PUSH2 0x65C JUMP JUMPDEST MSTORE JUMP JUMPDEST SWAP1 PUSH2 0x6DB PUSH2 0x6D2 PUSH1 0x2 PUSH2 0x69B PUSH2 0x42E JUMP JUMPDEST SWAP5 PUSH2 0x6B4 PUSH2 0x6AB PUSH1 0x0 DUP4 ADD PUSH2 0x538 JUMP JUMPDEST PUSH1 0x0 DUP9 ADD PUSH2 0x545 JUMP JUMPDEST PUSH2 0x6CC PUSH2 0x6C3 PUSH1 0x1 DUP4 ADD PUSH2 0x538 JUMP JUMPDEST PUSH1 0x20 DUP9 ADD PUSH2 0x545 JUMP JUMPDEST ADD PUSH2 0x637 JUMP JUMPDEST PUSH1 0x40 DUP5 ADD PUSH2 0x687 JUMP JUMPDEST JUMP JUMPDEST PUSH2 0x6E6 SWAP1 PUSH2 0x68A JUMP JUMPDEST SWAP1 JUMP JUMPDEST PUSH2 0x6F1 PUSH2 0x477 JUMP JUMPDEST PUSH2 0x705 PUSH2 0x700 PUSH1 0x0 CALLER SWAP1 PUSH2 0x4C4 JUMP JUMPDEST PUSH2 0x4FC JUMP JUMPDEST PUSH2 0x70D JUMPI JUMPDEST SWAP1 JUMP JUMPDEST POP PUSH2 0x722 PUSH2 0x71D PUSH1 0x2 CALLER SWAP1 PUSH2 0x509 JUMP JUMPDEST PUSH2 0x6DD JUMP JUMPDEST PUSH2 0x70A JUMP JUMPDEST SWAP1 JUMP JUMPDEST PUSH2 0x73E PUSH2 0x739 PUSH2 0x743 SWAP3 PUSH2 0x727 JUMP JUMPDEST PUSH2 0x48D JUMP JUMPDEST PUSH2 0x73 JUMP JUMPDEST SWAP1 JUMP JUMPDEST PUSH1 0x1 PUSH2 0x752 SWAP2 ADD PUSH2 0x73 JUMP JUMPDEST SWAP1 JUMP JUMPDEST SLOAD SWAP1 JUMP JUMPDEST PUSH4 0x4E487B71 PUSH1 0xE0 SHL PUSH1 0x0 MSTORE PUSH1 0x32 PUSH1 0x4 MSTORE PUSH1 0x24 PUSH1 0x0 REVERT JUMPDEST PUSH1 0x0 MSTORE PUSH1 0x20 PUSH1 0x0 KECCAK256 SWAP1 JUMP JUMPDEST PUSH2 0x783 DUP2 PUSH2 0x755 JUMP JUMPDEST DUP3 LT ISZERO PUSH2 0x79E JUMPI PUSH2 0x795 PUSH1 0x1 SWAP2 PUSH2 0x76F JUMP JUMPDEST SWAP2 MUL ADD SWAP1 PUSH1 0x0 SWAP1 JUMP JUMPDEST PUSH2 0x759 JUMP JUMPDEST SHR SWAP1 JUMP JUMPDEST PUSH1 0x1 DUP1 PUSH1 0xA0 SHL SUB AND SWAP1 JUMP JUMPDEST PUSH2 0x7C2 SWAP1 PUSH1 0x8 PUSH2 0x7C7 SWAP4 MUL PUSH2 0x7A3 JUMP JUMPDEST PUSH2 0x7A7 JUMP JUMPDEST SWAP1 JUMP JUMPDEST SWAP1 PUSH2 0x7D5 SWAP2 SLOAD PUSH2 0x7B2 JUMP JUMPDEST SWAP1 JUMP JUMPDEST SWAP1 JUMP JUMPDEST PUSH2 0x7E4 DUP2 PUSH2 0x553 JUMP JUMPDEST DUP3 LT ISZERO PUSH2 0x7FF JUMPI PUSH2 0x7F6 PUSH1 0x3 SWAP2 PUSH2 0x58B JUMP JUMPDEST SWAP2 MUL ADD SWAP1 PUSH1 0x0 SWAP1 JUMP JUMPDEST PUSH2 0x759 JUMP JUMPDEST PUSH1 0x0 SHL SWAP1 JUMP JUMPDEST SWAP1 PUSH2 0x816 PUSH1 0xFF SWAP2 PUSH2 0x804 JUMP JUMPDEST SWAP2 DUP2 NOT AND SWAP2 AND OR SWAP1 JUMP JUMPDEST PUSH2 0x829 SWAP1 PUSH2 0xBB JUMP JUMPDEST SWAP1 JUMP JUMPDEST SWAP1 JUMP JUMPDEST SWAP1 PUSH2 0x844 PUSH2 0x83F PUSH2 0x84B SWAP3 PUSH2 0x820 JUMP JUMPDEST PUSH2 0x82C JUMP JUMPDEST DUP3 SLOAD PUSH2 0x80A JUMP JUMPDEST SWAP1 SSTORE JUMP JUMPDEST PUSH2 0x858 SWAP1 PUSH2 0x490 JUMP JUMPDEST SWAP1 JUMP JUMPDEST PUSH2 0x864 SWAP1 PUSH2 0x84F JUMP JUMPDEST SWAP1 JUMP JUMPDEST PUSH2 0x870 SWAP1 PUSH2 0x4AC JUMP JUMPDEST SWAP1 JUMP JUMPDEST PUSH2 0x87B PUSH2 0x53 JUMP JUMPDEST RETURNDATASIZE PUSH1 0x0 DUP3 RETURNDATACOPY RETURNDATASIZE SWAP1 REVERT JUMPDEST PUSH2 0x88D SWAP1 PUSH2 0x73 JUMP JUMPDEST SWAP1 MSTORE JUMP JUMPDEST SWAP2 PUSH1 0x20 PUSH2 0x8B3 SWAP3 SWAP5 SWAP4 PUSH2 0x8AC PUSH1 0x40 DUP3 ADD SWAP7 PUSH1 0x0 DUP4 ADD SWAP1 PUSH2 0x884 JUMP JUMPDEST ADD SWAP1 PUSH2 0x884 JUMP JUMPDEST JUMP JUMPDEST PUSH2 0x8BF PUSH1 0x0 PUSH2 0x72A JUMP JUMPDEST JUMPDEST DUP1 PUSH2 0x8DC PUSH2 0x8D6 PUSH2 0x8D1 PUSH1 0x1 PUSH2 0x755 JUMP JUMPDEST PUSH2 0x73 JUMP JUMPDEST SWAP2 PUSH2 0x73 JUMP JUMPDEST LT ISZERO PUSH2 0xA99 JUMPI PUSH2 0x8F7 PUSH2 0x8F1 PUSH1 0x1 DUP4 SWAP1 PUSH2 0x77A JUMP JUMPDEST SWAP1 PUSH2 0x7CA JUMP JUMPDEST SWAP2 PUSH2 0x90C PUSH2 0x907 PUSH1 0x2 DUP6 SWAP1 PUSH2 0x509 JUMP JUMPDEST PUSH2 0x7D8 JUMP JUMPDEST SWAP1 PUSH2 0x917 PUSH1 0x0 PUSH2 0x72A JUMP JUMPDEST JUMPDEST DUP1 PUSH2 0x936 PUSH2 0x930 PUSH2 0x92B PUSH1 0x2 DUP8 ADD PUSH2 0x553 JUMP JUMPDEST PUSH2 0x73 JUMP JUMPDEST SWAP2 PUSH2 0x73 JUMP JUMPDEST LT ISZERO PUSH2 0xA87 JUMPI TIMESTAMP PUSH2 0x968 PUSH2 0x962 PUSH2 0x95D PUSH1 0x1 PUSH2 0x956 PUSH1 0x2 DUP10 ADD DUP8 SWAP1 PUSH2 0x7DB JUMP JUMPDEST POP ADD PUSH2 0x538 JUMP JUMPDEST PUSH2 0x73 JUMP JUMPDEST SWAP2 PUSH2 0x73 JUMP JUMPDEST LT ISZERO DUP1 PUSH2 0xA54 JUMPI JUMPDEST PUSH2 0x983 JUMPI JUMPDEST PUSH2 0x97E SWAP1 PUSH2 0x746 JUMP JUMPDEST PUSH2 0x918 JUMP JUMPDEST PUSH2 0x99E PUSH1 0x1 PUSH1 0x2 PUSH2 0x997 DUP2 DUP8 ADD DUP6 SWAP1 PUSH2 0x7DB JUMP JUMPDEST POP ADD PUSH2 0x82F JUMP JUMPDEST PUSH1 0x0 DUP1 DUP1 DUP1 PUSH2 0x9B4 PUSH2 0x9AF DUP11 PUSH2 0x85B JUMP JUMPDEST PUSH2 0x867 JUMP JUMPDEST PUSH2 0x9CD DUP3 PUSH2 0x9C6 PUSH1 0x2 DUP12 ADD DUP10 SWAP1 PUSH2 0x7DB JUMP JUMPDEST POP ADD PUSH2 0x538 JUMP JUMPDEST SWAP1 DUP3 DUP3 ISZERO PUSH2 0xA4B JUMPI JUMPDEST CALL ISZERO PUSH2 0xA46 JUMPI PUSH2 0x97E SWAP1 DUP6 PUSH2 0x9FB PUSH1 0x0 PUSH2 0x9F4 PUSH1 0x2 DUP9 ADD DUP6 SWAP1 PUSH2 0x7DB JUMP JUMPDEST POP ADD PUSH2 0x538 JUMP JUMPDEST SWAP1 TIMESTAMP PUSH2 0xA27 PUSH32 0x219E38014D0E72B05EAD8A8D0258EBEA4BE20D0C2C1DE6C08974A08A6C917F6B SWAP3 PUSH2 0x4B8 JUMP JUMPDEST SWAP3 PUSH2 0xA3C PUSH2 0xA33 PUSH2 0x53 JUMP JUMPDEST SWAP3 DUP4 SWAP3 DUP4 PUSH2 0x891 JUMP JUMPDEST SUB SWAP1 LOG2 SWAP1 POP PUSH2 0x975 JUMP JUMPDEST PUSH2 0x873 JUMP JUMPDEST POP PUSH2 0x8FC PUSH2 0x9D6 JUMP JUMPDEST POP PUSH2 0xA6E PUSH1 0x2 PUSH2 0xA67 DUP2 DUP7 ADD DUP5 SWAP1 PUSH2 0x7DB JUMP JUMPDEST POP ADD PUSH2 0x5B0 JUMP JUMPDEST PUSH2 0xA81 PUSH2 0xA7B PUSH1 0x0 PUSH2 0xBB JUMP JUMPDEST SWAP2 PUSH2 0xBB JUMP JUMPDEST EQ PUSH2 0x970 JUMP JUMPDEST POP SWAP3 POP POP PUSH2 0xA94 SWAP1 PUSH2 0x746 JUMP JUMPDEST PUSH2 0x8C0 JUMP JUMPDEST POP JUMP JUMPDEST PUSH1 0x20 SWAP2 DUP2 MSTORE ADD SWAP1 JUMP JUMPDEST PUSH1 0x0 PUSH32 0x56616C7565206D7573742062652067726561746572207468616E203000000000 SWAP2 ADD MSTORE JUMP JUMPDEST PUSH2 0xADA PUSH1 0x1C PUSH1 0x20 SWAP3 PUSH2 0xA9C JUMP JUMPDEST PUSH2 0xAE3 DUP2 PUSH2 0xAA5 JUMP JUMPDEST ADD SWAP1 JUMP JUMPDEST PUSH2 0xAFD SWAP1 PUSH1 0x20 DUP2 ADD SWAP1 PUSH1 0x0 DUP2 DUP4 SUB SWAP2 ADD MSTORE PUSH2 0xACD JUMP JUMPDEST SWAP1 JUMP JUMPDEST ISZERO PUSH2 0xB07 JUMPI JUMP JUMPDEST PUSH2 0xB0F PUSH2 0x53 JUMP JUMPDEST PUSH3 0x461BCD PUSH1 0xE5 SHL DUP2 MSTORE DUP1 PUSH2 0xB25 PUSH1 0x4 DUP3 ADD PUSH2 0xAE7 JUMP JUMPDEST SUB SWAP1 REVERT JUMPDEST SWAP1 PUSH2 0xB50 SWAP2 PUSH2 0xB4B CALLVALUE PUSH2 0xB45 PUSH2 0xB3F PUSH1 0x0 PUSH2 0x72A JUMP JUMPDEST SWAP2 PUSH2 0x73 JUMP JUMPDEST GT PUSH2 0xB00 JUMP JUMPDEST PUSH2 0x105F JUMP JUMPDEST JUMP JUMPDEST ISZERO ISZERO SWAP1 JUMP JUMPDEST PUSH2 0xB60 SWAP1 PUSH2 0xB52 JUMP JUMPDEST SWAP1 JUMP JUMPDEST SWAP1 JUMP JUMPDEST SWAP1 PUSH2 0xB7B PUSH2 0xB76 PUSH2 0xB82 SWAP3 PUSH2 0xB57 JUMP JUMPDEST PUSH2 0xB63 JUMP JUMPDEST DUP3 SLOAD PUSH2 0x80A JUMP JUMPDEST SWAP1 SSTORE JUMP JUMPDEST SWAP1 JUMP JUMPDEST PUSH1 0x0 MSTORE PUSH1 0x20 PUSH1 0x0 KECCAK256 SWAP1 JUMP JUMPDEST SLOAD SWAP1 JUMP JUMPDEST PUSH2 0xBA1 DUP2 PUSH2 0xB94 JUMP JUMPDEST DUP3 LT ISZERO PUSH2 0xBBC JUMPI PUSH2 0xBB3 PUSH1 0x1 SWAP2 PUSH2 0xB89 JUMP JUMPDEST SWAP2 MUL ADD SWAP1 PUSH1 0x0 SWAP1 JUMP JUMPDEST PUSH2 0x759 JUMP JUMPDEST SHL SWAP1 JUMP JUMPDEST SWAP2 SWAP1 PUSH1 0x8 PUSH2 0xBE5 SWAP2 MUL SWAP2 PUSH2 0xBDF PUSH1 0x1 DUP1 PUSH1 0xA0 SHL SUB DUP5 PUSH2 0xBC1 JUMP JUMPDEST SWAP3 PUSH2 0xBC1 JUMP JUMPDEST SWAP2 DUP2 NOT AND SWAP2 AND OR SWAP1 JUMP JUMPDEST SWAP1 JUMP JUMPDEST SWAP2 SWAP1 PUSH2 0xC08 PUSH2 0xC03 PUSH2 0xC10 SWAP4 PUSH2 0x4B8 JUMP JUMPDEST PUSH2 0xBEF JUMP JUMPDEST SWAP1 DUP4 SLOAD PUSH2 0xBC5 JUMP JUMPDEST SWAP1 SSTORE JUMP JUMPDEST SWAP1 DUP2 SLOAD SWAP2 PUSH9 0x10000000000000000 DUP4 LT ISZERO PUSH2 0xC44 JUMPI DUP3 PUSH2 0xC3C SWAP2 PUSH1 0x1 PUSH2 0xC42 SWAP6 ADD DUP2 SSTORE PUSH2 0xB98 JUMP JUMPDEST SWAP1 PUSH2 0xBF2 JUMP JUMPDEST JUMP JUMPDEST PUSH2 0x281 JUMP JUMPDEST MLOAD SWAP1 JUMP JUMPDEST PUSH1 0x0 SWAP1 JUMP JUMPDEST PUSH2 0xC5A PUSH2 0x5CB JUMP JUMPDEST SWAP1 PUSH1 0x20 DUP1 DUP1 DUP5 PUSH2 0xC68 PUSH2 0x43B JUMP JUMPDEST DUP2 MSTORE ADD PUSH2 0xC73 PUSH2 0x43B JUMP JUMPDEST DUP2 MSTORE ADD PUSH2 0xC7E PUSH2 0xC4D JUMP JUMPDEST DUP2 MSTORE POP POP JUMP JUMPDEST PUSH2 0xC8C PUSH2 0xC52 JUMP JUMPDEST SWAP1 JUMP JUMPDEST PUSH1 0x0 JUMPDEST DUP3 DUP2 LT PUSH2 0xC9E JUMPI POP POP POP JUMP JUMPDEST PUSH1 0x20 SWAP1 PUSH2 0xCA9 PUSH2 0xC84 JUMP JUMPDEST DUP2 DUP5 ADD MSTORE ADD PUSH2 0xC92 JUMP JUMPDEST SWAP1 PUSH2 0xCD8 PUSH2 0xCC0 DUP4 PUSH2 0x574 JUMP JUMPDEST SWAP3 PUSH1 0x20 DUP1 PUSH2 0xCCE DUP7 SWAP4 PUSH2 0x557 JUMP JUMPDEST SWAP3 ADD SWAP2 SUB SWAP1 PUSH2 0xC8F JUMP JUMPDEST JUMP JUMPDEST SWAP1 PUSH2 0xCE4 DUP3 PUSH2 0xC49 JUMP JUMPDEST DUP2 LT ISZERO PUSH2 0xCF5 JUMPI PUSH1 0x20 DUP1 SWAP2 MUL ADD ADD SWAP1 JUMP JUMPDEST PUSH2 0x759 JUMP JUMPDEST PUSH2 0xD04 SWAP1 MLOAD PUSH2 0x73 JUMP JUMPDEST SWAP1 JUMP JUMPDEST PUSH2 0xD11 PUSH1 0x60 PUSH2 0x2C0 JUMP JUMPDEST SWAP1 JUMP JUMPDEST SWAP1 PUSH2 0xD1E DUP3 PUSH2 0x83 JUMP JUMPDEST DUP2 LT ISZERO PUSH2 0xD2F JUMPI PUSH1 0x20 DUP1 SWAP2 MUL ADD ADD SWAP1 JUMP JUMPDEST PUSH2 0x759 JUMP JUMPDEST PUSH2 0xD3E PUSH1 0x60 PUSH2 0x2C0 JUMP JUMPDEST SWAP1 JUMP JUMPDEST PUSH4 0x4E487B71 PUSH1 0xE0 SHL PUSH1 0x0 MSTORE PUSH1 0x0 PUSH1 0x4 MSTORE PUSH1 0x24 PUSH1 0x0 REVERT JUMPDEST SWAP1 PUSH2 0xD64 PUSH1 0x0 NOT SWAP2 PUSH2 0x804 JUMP JUMPDEST SWAP2 DUP2 NOT AND SWAP2 AND OR SWAP1 JUMP JUMPDEST PUSH2 0xD82 PUSH2 0xD7D PUSH2 0xD87 SWAP3 PUSH2 0x73 JUMP JUMPDEST PUSH2 0x48D JUMP JUMPDEST PUSH2 0x73 JUMP JUMPDEST SWAP1 JUMP JUMPDEST SWAP1 JUMP JUMPDEST SWAP1 PUSH2 0xDA2 PUSH2 0xD9D PUSH2 0xDA9 SWAP3 PUSH2 0xD6E JUMP JUMPDEST PUSH2 0xD8A JUMP JUMPDEST DUP3 SLOAD PUSH2 0xD57 JUMP JUMPDEST SWAP1 SSTORE JUMP JUMPDEST MLOAD SWAP1 JUMP JUMPDEST PUSH4 0x4E487B71 PUSH1 0xE0 SHL PUSH1 0x0 MSTORE PUSH1 0x11 PUSH1 0x4 MSTORE PUSH1 0x24 PUSH1 0x0 REVERT JUMPDEST PUSH2 0xDD6 PUSH2 0xDDC SWAP2 SWAP4 SWAP3 SWAP4 PUSH2 0x73 JUMP JUMPDEST SWAP3 PUSH2 0x73 JUMP JUMPDEST SWAP2 PUSH2 0xDE8 DUP4 DUP3 MUL PUSH2 0x73 JUMP JUMPDEST SWAP3 DUP2 DUP5 DIV EQ SWAP1 ISZERO OR ISZERO PUSH2 0xDF7 JUMPI JUMP JUMPDEST PUSH2 0xDB1 JUMP JUMPDEST PUSH2 0xE07 SWAP1 PUSH1 0x3 PUSH2 0xDC7 JUMP JUMPDEST SWAP1 JUMP JUMPDEST SWAP2 SWAP1 PUSH1 0x8 PUSH2 0xE26 SWAP2 MUL SWAP2 PUSH2 0xE20 PUSH1 0x0 NOT DUP5 PUSH2 0xBC1 JUMP JUMPDEST SWAP3 PUSH2 0xBC1 JUMP JUMPDEST SWAP2 DUP2 NOT AND SWAP2 AND OR SWAP1 JUMP JUMPDEST SWAP2 SWAP1 PUSH2 0xE46 PUSH2 0xE41 PUSH2 0xE4E SWAP4 PUSH2 0xD6E JUMP JUMPDEST PUSH2 0xD8A JUMP JUMPDEST SWAP1 DUP4 SLOAD PUSH2 0xE0A JUMP JUMPDEST SWAP1 SSTORE JUMP JUMPDEST PUSH1 0x0 SWAP1 JUMP JUMPDEST PUSH2 0xE69 SWAP2 PUSH2 0xE63 PUSH2 0xE52 JUMP JUMPDEST SWAP2 PUSH2 0xE30 JUMP JUMPDEST JUMP JUMPDEST PUSH1 0x2 PUSH1 0x0 SWAP2 PUSH2 0xE7C DUP4 DUP1 DUP4 ADD PUSH2 0xE57 JUMP JUMPDEST PUSH2 0xE89 DUP4 PUSH1 0x1 DUP4 ADD PUSH2 0xE57 JUMP JUMPDEST ADD SSTORE JUMP JUMPDEST SWAP1 PUSH1 0x0 SUB PUSH2 0xEA0 JUMPI PUSH2 0xE9E SWAP1 PUSH2 0xE6B JUMP JUMPDEST JUMP JUMPDEST PUSH2 0xD41 JUMP JUMPDEST JUMPDEST DUP2 DUP2 LT PUSH2 0xEB1 JUMPI POP POP JUMP JUMPDEST DUP1 PUSH2 0xEBF PUSH1 0x0 PUSH1 0x3 SWAP4 PUSH2 0xE8D JUMP JUMPDEST ADD PUSH2 0xEA6 JUMP JUMPDEST SWAP1 SWAP2 DUP3 DUP2 LT PUSH2 0xED4 JUMPI JUMPDEST POP POP POP JUMP JUMPDEST PUSH2 0xEF2 PUSH2 0xEEC PUSH2 0xEE6 PUSH2 0xEFD SWAP6 PUSH2 0xDFC JUMP JUMPDEST SWAP3 PUSH2 0xDFC JUMP JUMPDEST SWAP3 PUSH2 0x58B JUMP JUMPDEST SWAP2 DUP3 ADD SWAP2 ADD SWAP1 PUSH2 0xEA5 JUMP JUMPDEST CODESIZE DUP1 DUP1 PUSH2 0xECF JUMP JUMPDEST SWAP1 PUSH9 0x10000000000000000 DUP2 GT PUSH2 0xF2E JUMPI DUP2 PUSH2 0xF23 PUSH2 0xF2C SWAP4 PUSH2 0x553 JUMP JUMPDEST SWAP1 DUP3 DUP2 SSTORE PUSH2 0xEC5 JUMP JUMPDEST JUMP JUMPDEST PUSH2 0x281 JUMP JUMPDEST MLOAD SWAP1 JUMP JUMPDEST PUSH2 0xF41 SWAP1 MLOAD PUSH2 0xBB JUMP JUMPDEST SWAP1 JUMP JUMPDEST SWAP1 PUSH2 0xF8A PUSH1 0x40 PUSH1 0x2 PUSH2 0xF90 SWAP5 PUSH2 0xF69 PUSH1 0x0 DUP3 ADD PUSH2 0xF63 PUSH1 0x0 DUP9 ADD PUSH2 0xCFA JUMP JUMPDEST SWAP1 PUSH2 0xD8D JUMP JUMPDEST PUSH2 0xF82 PUSH1 0x1 DUP3 ADD PUSH2 0xF7C PUSH1 0x20 DUP9 ADD PUSH2 0xCFA JUMP JUMPDEST SWAP1 PUSH2 0xD8D JUMP JUMPDEST ADD SWAP3 ADD PUSH2 0xF37 JUMP JUMPDEST SWAP1 PUSH2 0x82F JUMP JUMPDEST JUMP JUMPDEST SWAP1 PUSH2 0xF9C SWAP2 PUSH2 0xF44 JUMP JUMPDEST JUMP JUMPDEST PUSH2 0xFC3 PUSH2 0xFBD PUSH2 0xFAD DUP5 PUSH2 0x83 JUMP JUMPDEST SWAP4 PUSH2 0xFB8 DUP6 DUP6 PUSH2 0xF05 JUMP JUMPDEST PUSH2 0x90 JUMP JUMPDEST SWAP2 PUSH2 0x58B JUMP JUMPDEST PUSH1 0x0 SWAP2 JUMPDEST DUP4 DUP4 LT PUSH2 0xFD4 JUMPI POP POP POP POP JUMP JUMPDEST PUSH1 0x3 PUSH1 0x20 DUP3 PUSH2 0xFED PUSH2 0xFE7 PUSH1 0x1 SWAP6 PUSH2 0xF33 JUMP JUMPDEST DUP7 PUSH2 0xF92 JUMP JUMPDEST ADD SWAP3 ADD SWAP3 ADD SWAP2 SWAP1 PUSH2 0xFC7 JUMP JUMPDEST SWAP1 PUSH2 0x1003 SWAP2 PUSH2 0xF9E JUMP JUMPDEST JUMP JUMPDEST SWAP1 PUSH2 0x104B PUSH1 0x40 PUSH1 0x2 PUSH2 0x1051 SWAP5 PUSH2 0x102A PUSH1 0x0 DUP3 ADD PUSH2 0x1024 PUSH1 0x0 DUP9 ADD PUSH2 0xCFA JUMP JUMPDEST SWAP1 PUSH2 0xD8D JUMP JUMPDEST PUSH2 0x1043 PUSH1 0x1 DUP3 ADD PUSH2 0x103D PUSH1 0x20 DUP9 ADD PUSH2 0xCFA JUMP JUMPDEST SWAP1 PUSH2 0xD8D JUMP JUMPDEST ADD SWAP3 ADD PUSH2 0xDAD JUMP JUMPDEST SWAP1 PUSH2 0xFF9 JUMP JUMPDEST JUMP JUMPDEST SWAP1 PUSH2 0x105D SWAP2 PUSH2 0x1005 JUMP JUMPDEST JUMP JUMPDEST SWAP1 SWAP2 PUSH2 0x107E PUSH2 0x1078 PUSH2 0x1073 PUSH1 0x0 CALLER SWAP1 PUSH2 0x4C4 JUMP JUMPDEST PUSH2 0x4FC JUMP JUMPDEST ISZERO PUSH2 0xB52 JUMP JUMPDEST PUSH2 0x118F JUMPI JUMPDEST PUSH2 0x1094 PUSH2 0x108F DUP5 PUSH2 0xC49 JUMP JUMPDEST PUSH2 0xCB3 JUMP JUMPDEST SWAP1 PUSH2 0x109F PUSH1 0x0 PUSH2 0x72A JUMP JUMPDEST JUMPDEST DUP1 PUSH2 0x10BB PUSH2 0x10B5 PUSH2 0x10B0 DUP9 PUSH2 0xC49 JUMP JUMPDEST PUSH2 0x73 JUMP JUMPDEST SWAP2 PUSH2 0x73 JUMP JUMPDEST LT ISZERO PUSH2 0x1145 JUMPI PUSH2 0x1140 SWAP1 PUSH2 0x1139 PUSH2 0x10DF PUSH1 0x0 PUSH2 0x10D8 DUP10 DUP6 SWAP1 PUSH2 0xCDA JUMP JUMPDEST MLOAD ADD PUSH2 0xCFA JUMP JUMPDEST PUSH2 0x1126 PUSH2 0x10F9 PUSH1 0x20 PUSH2 0x10F2 DUP12 DUP8 SWAP1 PUSH2 0xCDA JUMP JUMPDEST MLOAD ADD PUSH2 0xCFA JUMP JUMPDEST PUSH2 0x111D PUSH1 0x0 SWAP2 PUSH2 0x1114 PUSH2 0x110A PUSH2 0xD07 JUMP JUMPDEST SWAP6 PUSH1 0x0 DUP8 ADD PUSH2 0x545 JUMP JUMPDEST PUSH1 0x20 DUP6 ADD PUSH2 0x545 JUMP JUMPDEST PUSH1 0x40 DUP4 ADD PUSH2 0x5BD JUMP JUMPDEST DUP6 DUP4 SWAP2 PUSH2 0x1133 DUP4 DUP4 PUSH2 0xD14 JUMP JUMPDEST MSTORE PUSH2 0xD14 JUMP JUMPDEST MLOAD POP PUSH2 0x746 JUMP JUMPDEST PUSH2 0x10A0 JUMP JUMPDEST POP SWAP3 POP SWAP1 PUSH2 0x117C PUSH2 0x118D SWAP3 PUSH2 0x1173 CALLVALUE SWAP4 PUSH2 0x116A PUSH2 0x1160 PUSH2 0xD34 JUMP JUMPDEST SWAP6 PUSH1 0x0 DUP8 ADD PUSH2 0x545 JUMP JUMPDEST PUSH1 0x20 DUP6 ADD PUSH2 0x545 JUMP JUMPDEST PUSH1 0x40 DUP4 ADD PUSH2 0x687 JUMP JUMPDEST PUSH2 0x1188 PUSH1 0x2 CALLER SWAP1 PUSH2 0x509 JUMP JUMPDEST PUSH2 0x1053 JUMP JUMPDEST JUMP JUMPDEST PUSH2 0x11A5 PUSH1 0x1 PUSH2 0x11A0 PUSH1 0x0 CALLER SWAP1 PUSH2 0x4C4 JUMP JUMPDEST PUSH2 0xB66 JUMP JUMPDEST PUSH2 0x11B9 PUSH2 0x11B2 PUSH1 0x1 PUSH2 0xB86 JUMP JUMPDEST CALLER SWAP1 PUSH2 0xC14 JUMP JUMPDEST PUSH2 0x1083 JUMP JUMPDEST SWAP1 PUSH2 0x11C8 SWAP2 PUSH2 0xB29 JUMP JUMPDEST JUMP INVALID LOG2 PUSH5 0x6970667358 0x22 SLT KECCAK256 0xE8 0xCD 0xA8 SWAP14 PUSH6 0x466ACF8A8B0 0xDA 0xD4 PUSH20 0x5A13333E1A910C71F84518F1F46DA55F74EC6473 PUSH16 0x6C634300081C00330000000000000000 "},"methodIdentifiers":{"create_transaction(uint256,(uint256,uint256)[])":"8bfc40cd","get_transaction()":"248278e1","process_due_milestones()":"778b4e65"}}}}}