{"contracts/EasyMilestones.sol":{"EasyMilestones":{"abi":[{"inputs":[{"internalType":"uint256","name":"_deadline","type":"uint256"},{"components":[{"internalType":"uint256","name":"amount","type":"uint256"},{"internalType":"uint256","name":"deadline","type":"uint256"},{"internalType":"enum EasyMilestones.Status","name":"status","type":"uint8"}],"internalType":"struct EasyMilestones.Milestone[]","name":"_milestones","type":"tuple[]"}],"name":"create_transaction","outputs":[],"stateMutability":"payable","type":"function"},{"inputs":[],"name":"get_transaction","outputs":[{"components":[{"internalType":"uint256","name":"amount","type":"uint256"},{"internalType":"uint256","name":"deadline","type":"uint256"},{"components":[{"internalType":"uint256","name":"amount","type":"uint256"},{"internalType":"uint256","name":"deadline","type":"uint256"},{"internalType":"enum EasyMilestones.Status","name":"status","type":"uint8"}],"internalType":"struct EasyMilestones.Milestone[]","name":"milestones","type":"tuple[]"}],"internalType":"struct EasyMilestones.Transaction","name":"","type":"tuple"}],"stateMutability":"view","type":"function"}],"evm":{"bytecode":{"linkReferences":{},"object":"608060405234601c57600e6020565b610a9d61002c8239610a9d90f35b6026565b60405190565b600080fdfe60806040526004361015610013575b610416565b61001e60003561003d565b8063248278e1146100385763d4ab871d0361000e576103ec565b6101cb565b60e01c90565b60405190565b600080fd5b600080fd5b600091031261005e57565b61004e565b90565b61006f90610063565b9052565b5190565b60209181520190565b60200190565b634e487b7160e01b600052602160045260246000fd5b600211156100a657565b610086565b906100b58261009c565b565b6100c0906100ab565b90565b6100cc906100b7565b9052565b90604080610106936100ea60008201516000860190610066565b6100fc60208201516020860190610066565b01519101906100c3565b565b90610115816060936100d0565b0190565b60200190565b9061013c61013661012f84610073565b8093610077565b92610080565b9060005b81811061014d5750505090565b9091926101666101606001928651610108565b94610119565b9101919091610140565b6101af916040606082019261018d60008201516000850190610066565b61019f60208201516020850190610066565b015190604081840391015261011f565b90565b6101c89160208201916000818403910152610170565b90565b346101fb576101db366004610053565b6101f76101e661067a565b6101ee610043565b918291826101b2565b0390f35b610049565b600080fd5b61020e81610063565b0361021557565b600080fd5b9050359061022782610205565b565b600080fd5b601f801991011690565b634e487b7160e01b600052604160045260246000fd5b906102589061022e565b810190811067ffffffffffffffff82111761027257604052565b610238565b9061028a610283610043565b928361024e565b565b67ffffffffffffffff81116102a45760208091020190565b610238565b600080fd5b600080fd5b600211156102bd57565b600080fd5b905035906102cf826102b3565b565b919060608382031261031f57610318906102eb6060610277565b936102f9826000830161021a565b600086015261030b826020830161021a565b60208601526040016102c2565b6040830152565b6102ae565b909291926103396103348261028c565b610277565b93818552606060208601920283019281841161037857915b83831061035e5750505050565b602060609161036d84866102d1565b815201920191610351565b6102a9565b9080601f8301121561039b5781602061039893359101610324565b90565b610229565b9190916040818403126103e1576103ba836000830161021a565b92602082013567ffffffffffffffff81116103dc576103d9920161037d565b90565b610200565b61004e565b60000190565b6104006103fa3660046103a0565b90610a21565b610408610043565b80610412816103e6565b0390f35b600080fd5b6104256060610277565b90565b600090565b606090565b61043a61041b565b906020808084610448610428565b815201610453610428565b81520161045e61042d565b81525050565b61046c610432565b90565b60018060a01b031690565b90565b61049161048c6104969261046f565b61047a565b61046f565b90565b6104a29061047d565b90565b6104ae90610499565b90565b906104bb906104a5565b600052602052604060002090565b60001c90565b90565b6104de6104e3916104c9565b6104cf565b90565b6104f090546104d2565b90565b906104fd90610063565b9052565b5490565b906105176105128361028c565b610277565b918252565b600052602060002090565b60ff1690565b61053961053e916104c9565b610527565b90565b61054b905461052d565b90565b90610558906100ab565b9052565b6105666060610277565b90565b906105ba6105b1600261057a61055c565b9461059361058a600083016104e6565b600088016104f3565b6105ab6105a2600183016104e6565b602088016104f3565b01610541565b6040840161054e565b565b6105c590610569565b90565b906105d282610501565b6105db81610505565b926105e9602085019161051c565b6000915b8383106105fa5750505050565b6003602060019261060a856105bc565b8152019201920191906105ed565b52565b9061066c610663600261062c61041b565b9461064561063c600083016104e6565b600088016104f3565b61065d610654600183016104e6565b602088016104f3565b016105c8565b60408401610618565b565b6106779061061b565b90565b610682610464565b50610697610692600033906104b1565b61066e565b90565b6106a46060610277565b90565b634e487b7160e01b600052600060045260246000fd5b6106c79051610063565b90565b60001b90565b906106dd600019916106ca565b9181191691161790565b6106fb6106f661070092610063565b61047a565b610063565b90565b90565b9061071b610716610722926106e7565b610703565b82546106d0565b9055565b5190565b634e487b7160e01b600052601160045260246000fd5b61074f61075591939293610063565b92610063565b91610761838202610063565b92818404149015171561077057565b61072a565b610780906003610740565b90565b1b90565b919060086107a391029161079d60001984610783565b92610783565b9181191691161790565b91906107c36107be6107cb936106e7565b610703565b908354610787565b9055565b600090565b6107e6916107e06107cf565b916107ad565b565b60026000916107f9838083016107d4565b61080683600183016107d4565b0155565b9060000361081d5761081b906107e8565b565b6106a7565b5b81811061082e575050565b8061083c600060039361080a565b01610823565b9091828110610851575b505050565b61086f61086961086361087a95610775565b92610775565b9261051c565b918201910190610822565b38808061084c565b906801000000000000000081116108ab57816108a06108a993610501565b90828155610842565b565b610238565b5190565b6108be90516100ab565b90565b906108cd60ff916106ca565b9181191691161790565b6108e0906100ab565b90565b90565b906108fb6108f6610902926108d7565b6108e3565b82546108c1565b9055565b9061094c604060026109529461092b60008201610925600088016106bd565b90610706565b6109446001820161093e602088016106bd565b90610706565b0192016108b4565b906108e6565b565b9061095e91610906565b565b61098561097f61096f84610073565b9361097a8585610882565b610080565b9161051c565b6000915b8383106109965750505050565b60036020826109af6109a96001956108b0565b86610954565b01920192019190610989565b906109c591610960565b565b90610a0d60406002610a13946109ec600082016109e6600088016106bd565b90610706565b610a05600182016109ff602088016106bd565b90610706565b019201610726565b906109bb565b565b90610a1f916109c7565b565b610a60610a6592610a593391610a503495610a47610a3d61069a565b97600089016104f3565b602087016104f3565b60408501610618565b60006104b1565b610a15565b56fea264697066735822122078f83e796e907b9123a525ca2a3c70cd8c02c324b1195acce4b05838a90eaa5d64736f6c634300081c0033","opcodes":"PUSH1 0x80 PUSH1 0x40 MSTORE CALLVALUE PUSH1 0x1C JUMPI PUSH1 0xE PUSH1 0x20 JUMP JUMPDEST PUSH2 0xA9D PUSH2 0x2C DUP3 CODECOPY PUSH2 0xA9D SWAP1 RETURN JUMPDEST PUSH1 0x26 JUMP JUMPDEST PUSH1 0x40 MLOAD SWAP1 JUMP JUMPDEST PUSH1 0x0 DUP1 REVERT INVALID PUSH1 0x80 PUSH1 0x40 MSTORE PUSH1 0x4 CALLDATASIZE LT ISZERO PUSH2 0x13 JUMPI JUMPDEST PUSH2 0x416 JUMP JUMPDEST PUSH2 0x1E PUSH1 0x0 CALLDATALOAD PUSH2 0x3D JUMP JUMPDEST DUP1 PUSH4 0x248278E1 EQ PUSH2 0x38 JUMPI PUSH4 0xD4AB871D SUB PUSH2 0xE JUMPI PUSH2 0x3EC JUMP JUMPDEST PUSH2 0x1CB JUMP JUMPDEST PUSH1 0xE0 SHR SWAP1 JUMP JUMPDEST PUSH1 0x40 MLOAD SWAP1 JUMP JUMPDEST PUSH1 0x0 DUP1 REVERT JUMPDEST PUSH1 0x0 DUP1 REVERT JUMPDEST PUSH1 0x0 SWAP2 SUB SLT PUSH2 0x5E JUMPI JUMP JUMPDEST PUSH2 0x4E JUMP JUMPDEST SWAP1 JUMP JUMPDEST PUSH2 0x6F SWAP1 PUSH2 0x63 JUMP JUMPDEST SWAP1 MSTORE JUMP JUMPDEST MLOAD SWAP1 JUMP JUMPDEST PUSH1 0x20 SWAP2 DUP2 MSTORE ADD SWAP1 JUMP JUMPDEST PUSH1 0x20 ADD SWAP1 JUMP JUMPDEST PUSH4 0x4E487B71 PUSH1 0xE0 SHL PUSH1 0x0 MSTORE PUSH1 0x21 PUSH1 0x4 MSTORE PUSH1 0x24 PUSH1 0x0 REVERT JUMPDEST PUSH1 0x2 GT ISZERO PUSH2 0xA6 JUMPI JUMP JUMPDEST PUSH2 0x86 JUMP JUMPDEST SWAP1 PUSH2 0xB5 DUP3 PUSH2 0x9C JUMP JUMPDEST JUMP JUMPDEST PUSH2 0xC0 SWAP1 PUSH2 0xAB JUMP JUMPDEST SWAP1 JUMP JUMPDEST PUSH2 0xCC SWAP1 PUSH2 0xB7 JUMP JUMPDEST SWAP1 MSTORE JUMP JUMPDEST SWAP1 PUSH1 0x40 DUP1 PUSH2 0x106 SWAP4 PUSH2 0xEA PUSH1 0x0 DUP3 ADD MLOAD PUSH1 0x0 DUP7 ADD SWAP1 PUSH2 0x66 JUMP JUMPDEST PUSH2 0xFC PUSH1 0x20 DUP3 ADD MLOAD PUSH1 0x20 DUP7 ADD SWAP1 PUSH2 0x66 JUMP JUMPDEST ADD MLOAD SWAP2 ADD SWAP1 PUSH2 0xC3 JUMP JUMPDEST JUMP JUMPDEST SWAP1 PUSH2 0x115 DUP2 PUSH1 0x60 SWAP4 PUSH2 0xD0 JUMP JUMPDEST ADD SWAP1 JUMP JUMPDEST PUSH1 0x20 ADD SWAP1 JUMP JUMPDEST SWAP1 PUSH2 0x13C PUSH2 0x136 PUSH2 0x12F DUP5 PUSH2 0x73 JUMP JUMPDEST DUP1 SWAP4 PUSH2 0x77 JUMP JUMPDEST SWAP3 PUSH2 0x80 JUMP JUMPDEST SWAP1 PUSH1 0x0 JUMPDEST DUP2 DUP2 LT PUSH2 0x14D JUMPI POP POP POP SWAP1 JUMP JUMPDEST SWAP1 SWAP2 SWAP3 PUSH2 0x166 PUSH2 0x160 PUSH1 0x1 SWAP3 DUP7 MLOAD PUSH2 0x108 JUMP JUMPDEST SWAP5 PUSH2 0x119 JUMP JUMPDEST SWAP2 ADD SWAP2 SWAP1 SWAP2 PUSH2 0x140 JUMP JUMPDEST PUSH2 0x1AF SWAP2 PUSH1 0x40 PUSH1 0x60 DUP3 ADD SWAP3 PUSH2 0x18D PUSH1 0x0 DUP3 ADD MLOAD PUSH1 0x0 DUP6 ADD SWAP1 PUSH2 0x66 JUMP JUMPDEST PUSH2 0x19F PUSH1 0x20 DUP3 ADD MLOAD PUSH1 0x20 DUP6 ADD SWAP1 PUSH2 0x66 JUMP JUMPDEST ADD MLOAD SWAP1 PUSH1 0x40 DUP2 DUP5 SUB SWAP2 ADD MSTORE PUSH2 0x11F JUMP JUMPDEST SWAP1 JUMP JUMPDEST PUSH2 0x1C8 SWAP2 PUSH1 0x20 DUP3 ADD SWAP2 PUSH1 0x0 DUP2 DUP5 SUB SWAP2 ADD MSTORE PUSH2 0x170 JUMP JUMPDEST SWAP1 JUMP JUMPDEST CALLVALUE PUSH2 0x1FB JUMPI PUSH2 0x1DB CALLDATASIZE PUSH1 0x4 PUSH2 0x53 JUMP JUMPDEST PUSH2 0x1F7 PUSH2 0x1E6 PUSH2 0x67A JUMP JUMPDEST PUSH2 0x1EE PUSH2 0x43 JUMP JUMPDEST SWAP2 DUP3 SWAP2 DUP3 PUSH2 0x1B2 JUMP JUMPDEST SUB SWAP1 RETURN JUMPDEST PUSH2 0x49 JUMP JUMPDEST PUSH1 0x0 DUP1 REVERT JUMPDEST PUSH2 0x20E DUP2 PUSH2 0x63 JUMP JUMPDEST SUB PUSH2 0x215 JUMPI JUMP JUMPDEST PUSH1 0x0 DUP1 REVERT JUMPDEST SWAP1 POP CALLDATALOAD SWAP1 PUSH2 0x227 DUP3 PUSH2 0x205 JUMP JUMPDEST JUMP JUMPDEST PUSH1 0x0 DUP1 REVERT JUMPDEST PUSH1 0x1F DUP1 NOT SWAP2 ADD AND SWAP1 JUMP JUMPDEST PUSH4 0x4E487B71 PUSH1 0xE0 SHL PUSH1 0x0 MSTORE PUSH1 0x41 PUSH1 0x4 MSTORE PUSH1 0x24 PUSH1 0x0 REVERT JUMPDEST SWAP1 PUSH2 0x258 SWAP1 PUSH2 0x22E JUMP JUMPDEST DUP2 ADD SWAP1 DUP2 LT PUSH8 0xFFFFFFFFFFFFFFFF DUP3 GT OR PUSH2 0x272 JUMPI PUSH1 0x40 MSTORE JUMP JUMPDEST PUSH2 0x238 JUMP JUMPDEST SWAP1 PUSH2 0x28A PUSH2 0x283 PUSH2 0x43 JUMP JUMPDEST SWAP3 DUP4 PUSH2 0x24E JUMP JUMPDEST JUMP JUMPDEST PUSH8 0xFFFFFFFFFFFFFFFF DUP2 GT PUSH2 0x2A4 JUMPI PUSH1 0x20 DUP1 SWAP2 MUL ADD SWAP1 JUMP JUMPDEST PUSH2 0x238 JUMP JUMPDEST PUSH1 0x0 DUP1 REVERT JUMPDEST PUSH1 0x0 DUP1 REVERT JUMPDEST PUSH1 0x2 GT ISZERO PUSH2 0x2BD JUMPI JUMP JUMPDEST PUSH1 0x0 DUP1 REVERT JUMPDEST SWAP1 POP CALLDATALOAD SWAP1 PUSH2 0x2CF DUP3 PUSH2 0x2B3 JUMP JUMPDEST JUMP JUMPDEST SWAP2 SWAP1 PUSH1 0x60 DUP4 DUP3 SUB SLT PUSH2 0x31F JUMPI PUSH2 0x318 SWAP1 PUSH2 0x2EB PUSH1 0x60 PUSH2 0x277 JUMP JUMPDEST SWAP4 PUSH2 0x2F9 DUP3 PUSH1 0x0 DUP4 ADD PUSH2 0x21A JUMP JUMPDEST PUSH1 0x0 DUP7 ADD MSTORE PUSH2 0x30B DUP3 PUSH1 0x20 DUP4 ADD PUSH2 0x21A JUMP JUMPDEST PUSH1 0x20 DUP7 ADD MSTORE PUSH1 0x40 ADD PUSH2 0x2C2 JUMP JUMPDEST PUSH1 0x40 DUP4 ADD MSTORE JUMP JUMPDEST PUSH2 0x2AE JUMP JUMPDEST SWAP1 SWAP3 SWAP2 SWAP3 PUSH2 0x339 PUSH2 0x334 DUP3 PUSH2 0x28C JUMP JUMPDEST PUSH2 0x277 JUMP JUMPDEST SWAP4 DUP2 DUP6 MSTORE PUSH1 0x60 PUSH1 0x20 DUP7 ADD SWAP3 MUL DUP4 ADD SWAP3 DUP2 DUP5 GT PUSH2 0x378 JUMPI SWAP2 JUMPDEST DUP4 DUP4 LT PUSH2 0x35E JUMPI POP POP POP POP JUMP JUMPDEST PUSH1 0x20 PUSH1 0x60 SWAP2 PUSH2 0x36D DUP5 DUP7 PUSH2 0x2D1 JUMP JUMPDEST DUP2 MSTORE ADD SWAP3 ADD SWAP2 PUSH2 0x351 JUMP JUMPDEST PUSH2 0x2A9 JUMP JUMPDEST SWAP1 DUP1 PUSH1 0x1F DUP4 ADD SLT ISZERO PUSH2 0x39B JUMPI DUP2 PUSH1 0x20 PUSH2 0x398 SWAP4 CALLDATALOAD SWAP2 ADD PUSH2 0x324 JUMP JUMPDEST SWAP1 JUMP JUMPDEST PUSH2 0x229 JUMP JUMPDEST SWAP2 SWAP1 SWAP2 PUSH1 0x40 DUP2 DUP5 SUB SLT PUSH2 0x3E1 JUMPI PUSH2 0x3BA DUP4 PUSH1 0x0 DUP4 ADD PUSH2 0x21A JUMP JUMPDEST SWAP3 PUSH1 0x20 DUP3 ADD CALLDATALOAD PUSH8 0xFFFFFFFFFFFFFFFF DUP2 GT PUSH2 0x3DC JUMPI PUSH2 0x3D9 SWAP3 ADD PUSH2 0x37D JUMP JUMPDEST SWAP1 JUMP JUMPDEST PUSH2 0x200 JUMP JUMPDEST PUSH2 0x4E JUMP JUMPDEST PUSH1 0x0 ADD SWAP1 JUMP JUMPDEST PUSH2 0x400 PUSH2 0x3FA CALLDATASIZE PUSH1 0x4 PUSH2 0x3A0 JUMP JUMPDEST SWAP1 PUSH2 0xA21 JUMP JUMPDEST PUSH2 0x408 PUSH2 0x43 JUMP JUMPDEST DUP1 PUSH2 0x412 DUP2 PUSH2 0x3E6 JUMP JUMPDEST SUB SWAP1 RETURN JUMPDEST PUSH1 0x0 DUP1 REVERT JUMPDEST PUSH2 0x425 PUSH1 0x60 PUSH2 0x277 JUMP JUMPDEST SWAP1 JUMP JUMPDEST PUSH1 0x0 SWAP1 JUMP JUMPDEST PUSH1 0x60 SWAP1 JUMP JUMPDEST PUSH2 0x43A PUSH2 0x41B JUMP JUMPDEST SWAP1 PUSH1 0x20 DUP1 DUP1 DUP5 PUSH2 0x448 PUSH2 0x428 JUMP JUMPDEST DUP2 MSTORE ADD PUSH2 0x453 PUSH2 0x428 JUMP JUMPDEST DUP2 MSTORE ADD PUSH2 0x45E PUSH2 0x42D JUMP JUMPDEST DUP2 MSTORE POP POP JUMP JUMPDEST PUSH2 0x46C PUSH2 0x432 JUMP JUMPDEST SWAP1 JUMP JUMPDEST PUSH1 0x1 DUP1 PUSH1 0xA0 SHL SUB AND SWAP1 JUMP JUMPDEST SWAP1 JUMP JUMPDEST PUSH2 0x491 PUSH2 0x48C PUSH2 0x496 SWAP3 PUSH2 0x46F JUMP JUMPDEST PUSH2 0x47A JUMP JUMPDEST PUSH2 0x46F JUMP JUMPDEST SWAP1 JUMP JUMPDEST PUSH2 0x4A2 SWAP1 PUSH2 0x47D JUMP JUMPDEST SWAP1 JUMP JUMPDEST PUSH2 0x4AE SWAP1 PUSH2 0x499 JUMP JUMPDEST SWAP1 JUMP JUMPDEST SWAP1 PUSH2 0x4BB SWAP1 PUSH2 0x4A5 JUMP JUMPDEST PUSH1 0x0 MSTORE PUSH1 0x20 MSTORE PUSH1 0x40 PUSH1 0x0 KECCAK256 SWAP1 JUMP JUMPDEST PUSH1 0x0 SHR SWAP1 JUMP JUMPDEST SWAP1 JUMP JUMPDEST PUSH2 0x4DE PUSH2 0x4E3 SWAP2 PUSH2 0x4C9 JUMP JUMPDEST PUSH2 0x4CF JUMP JUMPDEST SWAP1 JUMP JUMPDEST PUSH2 0x4F0 SWAP1 SLOAD PUSH2 0x4D2 JUMP JUMPDEST SWAP1 JUMP JUMPDEST SWAP1 PUSH2 0x4FD SWAP1 PUSH2 0x63 JUMP JUMPDEST SWAP1 MSTORE JUMP JUMPDEST SLOAD SWAP1 JUMP JUMPDEST SWAP1 PUSH2 0x517 PUSH2 0x512 DUP4 PUSH2 0x28C JUMP JUMPDEST PUSH2 0x277 JUMP JUMPDEST SWAP2 DUP3 MSTORE JUMP JUMPDEST PUSH1 0x0 MSTORE PUSH1 0x20 PUSH1 0x0 KECCAK256 SWAP1 JUMP JUMPDEST PUSH1 0xFF AND SWAP1 JUMP JUMPDEST PUSH2 0x539 PUSH2 0x53E SWAP2 PUSH2 0x4C9 JUMP JUMPDEST PUSH2 0x527 JUMP JUMPDEST SWAP1 JUMP JUMPDEST PUSH2 0x54B SWAP1 SLOAD PUSH2 0x52D JUMP JUMPDEST SWAP1 JUMP JUMPDEST SWAP1 PUSH2 0x558 SWAP1 PUSH2 0xAB JUMP JUMPDEST SWAP1 MSTORE JUMP JUMPDEST PUSH2 0x566 PUSH1 0x60 PUSH2 0x277 JUMP JUMPDEST SWAP1 JUMP JUMPDEST SWAP1 PUSH2 0x5BA PUSH2 0x5B1 PUSH1 0x2 PUSH2 0x57A PUSH2 0x55C JUMP JUMPDEST SWAP5 PUSH2 0x593 PUSH2 0x58A PUSH1 0x0 DUP4 ADD PUSH2 0x4E6 JUMP JUMPDEST PUSH1 0x0 DUP9 ADD PUSH2 0x4F3 JUMP JUMPDEST PUSH2 0x5AB PUSH2 0x5A2 PUSH1 0x1 DUP4 ADD PUSH2 0x4E6 JUMP JUMPDEST PUSH1 0x20 DUP9 ADD PUSH2 0x4F3 JUMP JUMPDEST ADD PUSH2 0x541 JUMP JUMPDEST PUSH1 0x40 DUP5 ADD PUSH2 0x54E JUMP JUMPDEST JUMP JUMPDEST PUSH2 0x5C5 SWAP1 PUSH2 0x569 JUMP JUMPDEST SWAP1 JUMP JUMPDEST SWAP1 PUSH2 0x5D2 DUP3 PUSH2 0x501 JUMP JUMPDEST PUSH2 0x5DB DUP2 PUSH2 0x505 JUMP JUMPDEST SWAP3 PUSH2 0x5E9 PUSH1 0x20 DUP6 ADD SWAP2 PUSH2 0x51C JUMP JUMPDEST PUSH1 0x0 SWAP2 JUMPDEST DUP4 DUP4 LT PUSH2 0x5FA JUMPI POP POP POP POP JUMP JUMPDEST PUSH1 0x3 PUSH1 0x20 PUSH1 0x1 SWAP3 PUSH2 0x60A DUP6 PUSH2 0x5BC JUMP JUMPDEST DUP2 MSTORE ADD SWAP3 ADD SWAP3 ADD SWAP2 SWAP1 PUSH2 0x5ED JUMP JUMPDEST MSTORE JUMP JUMPDEST SWAP1 PUSH2 0x66C PUSH2 0x663 PUSH1 0x2 PUSH2 0x62C PUSH2 0x41B JUMP JUMPDEST SWAP5 PUSH2 0x645 PUSH2 0x63C PUSH1 0x0 DUP4 ADD PUSH2 0x4E6 JUMP JUMPDEST PUSH1 0x0 DUP9 ADD PUSH2 0x4F3 JUMP JUMPDEST PUSH2 0x65D PUSH2 0x654 PUSH1 0x1 DUP4 ADD PUSH2 0x4E6 JUMP JUMPDEST PUSH1 0x20 DUP9 ADD PUSH2 0x4F3 JUMP JUMPDEST ADD PUSH2 0x5C8 JUMP JUMPDEST PUSH1 0x40 DUP5 ADD PUSH2 0x618 JUMP JUMPDEST JUMP JUMPDEST PUSH2 0x677 SWAP1 PUSH2 0x61B JUMP JUMPDEST SWAP1 JUMP JUMPDEST PUSH2 0x682 PUSH2 0x464 JUMP JUMPDEST POP PUSH2 0x697 PUSH2 0x692 PUSH1 0x0 CALLER SWAP1 PUSH2 0x4B1 JUMP JUMPDEST PUSH2 0x66E JUMP JUMPDEST SWAP1 JUMP JUMPDEST PUSH2 0x6A4 PUSH1 0x60 PUSH2 0x277 JUMP JUMPDEST SWAP1 JUMP JUMPDEST PUSH4 0x4E487B71 PUSH1 0xE0 SHL PUSH1 0x0 MSTORE PUSH1 0x0 PUSH1 0x4 MSTORE PUSH1 0x24 PUSH1 0x0 REVERT JUMPDEST PUSH2 0x6C7 SWAP1 MLOAD PUSH2 0x63 JUMP JUMPDEST SWAP1 JUMP JUMPDEST PUSH1 0x0 SHL SWAP1 JUMP JUMPDEST SWAP1 PUSH2 0x6DD PUSH1 0x0 NOT SWAP2 PUSH2 0x6CA JUMP JUMPDEST SWAP2 DUP2 NOT AND SWAP2 AND OR SWAP1 JUMP JUMPDEST PUSH2 0x6FB PUSH2 0x6F6 PUSH2 0x700 SWAP3 PUSH2 0x63 JUMP JUMPDEST PUSH2 0x47A JUMP JUMPDEST PUSH2 0x63 JUMP JUMPDEST SWAP1 JUMP JUMPDEST SWAP1 JUMP JUMPDEST SWAP1 PUSH2 0x71B PUSH2 0x716 PUSH2 0x722 SWAP3 PUSH2 0x6E7 JUMP JUMPDEST PUSH2 0x703 JUMP JUMPDEST DUP3 SLOAD PUSH2 0x6D0 JUMP JUMPDEST SWAP1 SSTORE JUMP JUMPDEST MLOAD SWAP1 JUMP JUMPDEST PUSH4 0x4E487B71 PUSH1 0xE0 SHL PUSH1 0x0 MSTORE PUSH1 0x11 PUSH1 0x4 MSTORE PUSH1 0x24 PUSH1 0x0 REVERT JUMPDEST PUSH2 0x74F PUSH2 0x755 SWAP2 SWAP4 SWAP3 SWAP4 PUSH2 0x63 JUMP JUMPDEST SWAP3 PUSH2 0x63 JUMP JUMPDEST SWAP2 PUSH2 0x761 DUP4 DUP3 MUL PUSH2 0x63 JUMP JUMPDEST SWAP3 DUP2 DUP5 DIV EQ SWAP1 ISZERO OR ISZERO PUSH2 0x770 JUMPI JUMP JUMPDEST PUSH2 0x72A JUMP JUMPDEST PUSH2 0x780 SWAP1 PUSH1 0x3 PUSH2 0x740 JUMP JUMPDEST SWAP1 JUMP JUMPDEST SHL SWAP1 JUMP JUMPDEST SWAP2 SWAP1 PUSH1 0x8 PUSH2 0x7A3 SWAP2 MUL SWAP2 PUSH2 0x79D PUSH1 0x0 NOT DUP5 PUSH2 0x783 JUMP JUMPDEST SWAP3 PUSH2 0x783 JUMP JUMPDEST SWAP2 DUP2 NOT AND SWAP2 AND OR SWAP1 JUMP JUMPDEST SWAP2 SWAP1 PUSH2 0x7C3 PUSH2 0x7BE PUSH2 0x7CB SWAP4 PUSH2 0x6E7 JUMP JUMPDEST PUSH2 0x703 JUMP JUMPDEST SWAP1 DUP4 SLOAD PUSH2 0x787 JUMP JUMPDEST SWAP1 SSTORE JUMP JUMPDEST PUSH1 0x0 SWAP1 JUMP JUMPDEST PUSH2 0x7E6 SWAP2 PUSH2 0x7E0 PUSH2 0x7CF JUMP JUMPDEST SWAP2 PUSH2 0x7AD JUMP JUMPDEST JUMP JUMPDEST PUSH1 0x2 PUSH1 0x0 SWAP2 PUSH2 0x7F9 DUP4 DUP1 DUP4 ADD PUSH2 0x7D4 JUMP JUMPDEST PUSH2 0x806 DUP4 PUSH1 0x1 DUP4 ADD PUSH2 0x7D4 JUMP JUMPDEST ADD SSTORE JUMP JUMPDEST SWAP1 PUSH1 0x0 SUB PUSH2 0x81D JUMPI PUSH2 0x81B SWAP1 PUSH2 0x7E8 JUMP JUMPDEST JUMP JUMPDEST PUSH2 0x6A7 JUMP JUMPDEST JUMPDEST DUP2 DUP2 LT PUSH2 0x82E JUMPI POP POP JUMP JUMPDEST DUP1 PUSH2 0x83C PUSH1 0x0 PUSH1 0x3 SWAP4 PUSH2 0x80A JUMP JUMPDEST ADD PUSH2 0x823 JUMP JUMPDEST SWAP1 SWAP2 DUP3 DUP2 LT PUSH2 0x851 JUMPI JUMPDEST POP POP POP JUMP JUMPDEST PUSH2 0x86F PUSH2 0x869 PUSH2 0x863 PUSH2 0x87A SWAP6 PUSH2 0x775 JUMP JUMPDEST SWAP3 PUSH2 0x775 JUMP JUMPDEST SWAP3 PUSH2 0x51C JUMP JUMPDEST SWAP2 DUP3 ADD SWAP2 ADD SWAP1 PUSH2 0x822 JUMP JUMPDEST CODESIZE DUP1 DUP1 PUSH2 0x84C JUMP JUMPDEST SWAP1 PUSH9 0x10000000000000000 DUP2 GT PUSH2 0x8AB JUMPI DUP2 PUSH2 0x8A0 PUSH2 0x8A9 SWAP4 PUSH2 0x501 JUMP JUMPDEST SWAP1 DUP3 DUP2 SSTORE PUSH2 0x842 JUMP JUMPDEST JUMP JUMPDEST PUSH2 0x238 JUMP JUMPDEST MLOAD SWAP1 JUMP JUMPDEST PUSH2 0x8BE SWAP1 MLOAD PUSH2 0xAB JUMP JUMPDEST SWAP1 JUMP JUMPDEST SWAP1 PUSH2 0x8CD PUSH1 0xFF SWAP2 PUSH2 0x6CA JUMP JUMPDEST SWAP2 DUP2 NOT AND SWAP2 AND OR SWAP1 JUMP JUMPDEST PUSH2 0x8E0 SWAP1 PUSH2 0xAB JUMP JUMPDEST SWAP1 JUMP JUMPDEST SWAP1 JUMP JUMPDEST SWAP1 PUSH2 0x8FB PUSH2 0x8F6 PUSH2 0x902 SWAP3 PUSH2 0x8D7 JUMP JUMPDEST PUSH2 0x8E3 JUMP JUMPDEST DUP3 SLOAD PUSH2 0x8C1 JUMP JUMPDEST SWAP1 SSTORE JUMP JUMPDEST SWAP1 PUSH2 0x94C PUSH1 0x40 PUSH1 0x2 PUSH2 0x952 SWAP5 PUSH2 0x92B PUSH1 0x0 DUP3 ADD PUSH2 0x925 PUSH1 0x0 DUP9 ADD PUSH2 0x6BD JUMP JUMPDEST SWAP1 PUSH2 0x706 JUMP JUMPDEST PUSH2 0x944 PUSH1 0x1 DUP3 ADD PUSH2 0x93E PUSH1 0x20 DUP9 ADD PUSH2 0x6BD JUMP JUMPDEST SWAP1 PUSH2 0x706 JUMP JUMPDEST ADD SWAP3 ADD PUSH2 0x8B4 JUMP JUMPDEST SWAP1 PUSH2 0x8E6 JUMP JUMPDEST JUMP JUMPDEST SWAP1 PUSH2 0x95E SWAP2 PUSH2 0x906 JUMP JUMPDEST JUMP JUMPDEST PUSH2 0x985 PUSH2 0x97F PUSH2 0x96F DUP5 PUSH2 0x73 JUMP JUMPDEST SWAP4 PUSH2 0x97A DUP6 DUP6 PUSH2 0x882 JUMP JUMPDEST PUSH2 0x80 JUMP JUMPDEST SWAP2 PUSH2 0x51C JUMP JUMPDEST PUSH1 0x0 SWAP2 JUMPDEST DUP4 DUP4 LT PUSH2 0x996 JUMPI POP POP POP POP JUMP JUMPDEST PUSH1 0x3 PUSH1 0x20 DUP3 PUSH2 0x9AF PUSH2 0x9A9 PUSH1 0x1 SWAP6 PUSH2 0x8B0 JUMP JUMPDEST DUP7 PUSH2 0x954 JUMP JUMPDEST ADD SWAP3 ADD SWAP3 ADD SWAP2 SWAP1 PUSH2 0x989 JUMP JUMPDEST SWAP1 PUSH2 0x9C5 SWAP2 PUSH2 0x960 JUMP JUMPDEST JUMP JUMPDEST SWAP1 PUSH2 0xA0D PUSH1 0x40 PUSH1 0x2 PUSH2 0xA13 SWAP5 PUSH2 0x9EC PUSH1 0x0 DUP3 ADD PUSH2 0x9E6 PUSH1 0x0 DUP9 ADD PUSH2 0x6BD JUMP JUMPDEST SWAP1 PUSH2 0x706 JUMP JUMPDEST PUSH2 0xA05 PUSH1 0x1 DUP3 ADD PUSH2 0x9FF PUSH1 0x20 DUP9 ADD PUSH2 0x6BD JUMP JUMPDEST SWAP1 PUSH2 0x706 JUMP JUMPDEST ADD SWAP3 ADD PUSH2 0x726 JUMP JUMPDEST SWAP1 PUSH2 0x9BB JUMP JUMPDEST JUMP JUMPDEST SWAP1 PUSH2 0xA1F SWAP2 PUSH2 0x9C7 JUMP JUMPDEST JUMP JUMPDEST PUSH2 0xA60 PUSH2 0xA65 SWAP3 PUSH2 0xA59 CALLER SWAP2 PUSH2 0xA50 CALLVALUE SWAP6 PUSH2 0xA47 PUSH2 0xA3D PUSH2 0x69A JUMP JUMPDEST SWAP8 PUSH1 0x0 DUP10 ADD PUSH2 0x4F3 JUMP JUMPDEST PUSH1 0x20 DUP8 ADD PUSH2 0x4F3 JUMP JUMPDEST PUSH1 0x40 DUP6 ADD PUSH2 0x618 JUMP JUMPDEST PUSH1 0x0 PUSH2 0x4B1 JUMP JUMPDEST PUSH2 0xA15 JUMP JUMPDEST JUMP INVALID LOG2 PUSH5 0x6970667358 0x22 SLT KECCAK256 PUSH25 0xF83E796E907B9123A525CA2A3C70CD8C02C324B1195ACCE4B0 PC CODESIZE 0xA9 0xE 0xAA TSTORE PUSH5 0x736F6C6343 STOP ADDMOD SHR STOP CALLER "},"methodIdentifiers":{"create_transaction(uint256,(uint256,uint256,uint8)[])":"d4ab871d","get_transaction()":"248278e1"}}}}}