{"contracts/EasyMilestones.sol":{"EasyMilestones":{"abi":[{"inputs":[{"internalType":"uint256","name":"_deadline","type":"uint256"},{"components":[{"internalType":"uint256","name":"amount","type":"uint256"},{"internalType":"uint256","name":"deadline","type":"uint256"}],"internalType":"struct EasyMilestones.MilestoneWithoutStatus[]","name":"_milestones","type":"tuple[]"}],"name":"create_transaction","outputs":[],"stateMutability":"payable","type":"function"},{"inputs":[],"name":"get_transaction","outputs":[{"components":[{"internalType":"uint256","name":"amount","type":"uint256"},{"internalType":"uint256","name":"deadline","type":"uint256"},{"components":[{"internalType":"uint256","name":"amount","type":"uint256"},{"internalType":"uint256","name":"deadline","type":"uint256"},{"internalType":"enum EasyMilestones.Status","name":"status","type":"uint8"}],"internalType":"struct EasyMilestones.Milestone[]","name":"milestones","type":"tuple[]"}],"internalType":"struct EasyMilestones.Transaction","name":"","type":"tuple"}],"stateMutability":"view","type":"function"}],"evm":{"bytecode":{"linkReferences":{},"object":"608060405234601c57600e6020565b610d3661002c8239610d3690f35b6026565b60405190565b600080fdfe60806040526004361015610013575b6103e6565b61001e60003561003d565b8063248278e11461003857638bfc40cd0361000e576103bc565b6101cb565b60e01c90565b60405190565b600080fd5b600080fd5b600091031261005e57565b61004e565b90565b61006f90610063565b9052565b5190565b60209181520190565b60200190565b634e487b7160e01b600052602160045260246000fd5b600211156100a657565b610086565b906100b58261009c565b565b6100c0906100ab565b90565b6100cc906100b7565b9052565b90604080610106936100ea60008201516000860190610066565b6100fc60208201516020860190610066565b01519101906100c3565b565b90610115816060936100d0565b0190565b60200190565b9061013c61013661012f84610073565b8093610077565b92610080565b9060005b81811061014d5750505090565b9091926101666101606001928651610108565b94610119565b9101919091610140565b6101af916040606082019261018d60008201516000850190610066565b61019f60208201516020850190610066565b015190604081840391015261011f565b90565b6101c89160208201916000818403910152610170565b90565b346101fb576101db366004610053565b6101f76101e6610667565b6101ee610043565b918291826101b2565b0390f35b610049565b600080fd5b61020e81610063565b0361021557565b600080fd5b9050359061022782610205565b565b600080fd5b601f801991011690565b634e487b7160e01b600052604160045260246000fd5b906102589061022e565b810190811067ffffffffffffffff82111761027257604052565b610238565b9061028a610283610043565b928361024e565b565b67ffffffffffffffff81116102a45760208091020190565b610238565b600080fd5b600080fd5b91906040838203126102ef576102e8906102cd6040610277565b936102db826000830161021a565b600086015260200161021a565b6020830152565b6102ae565b909291926103096103048261028c565b610277565b93818552604060208601920283019281841161034857915b83831061032e5750505050565b602060409161033d84866102b3565b815201920191610321565b6102a9565b9080601f8301121561036b57816020610368933591016102f4565b90565b610229565b9190916040818403126103b15761038a836000830161021a565b92602082013567ffffffffffffffff81116103ac576103a9920161034d565b90565b610200565b61004e565b60000190565b6103d06103ca366004610370565b90610cf4565b6103d8610043565b806103e2816103b6565b0390f35b600080fd5b6103f56060610277565b90565b600090565b606090565b61040a6103eb565b9060208080846104186103f8565b8152016104236103f8565b81520161042e6103fd565b81525050565b61043c610402565b90565b60018060a01b031690565b90565b61046161045c6104669261043f565b61044a565b61043f565b90565b6104729061044d565b90565b61047e90610469565b90565b9061048b90610475565b600052602052604060002090565b60001c90565b90565b6104ae6104b391610499565b61049f565b90565b6104c090546104a2565b90565b906104cd90610063565b9052565b5490565b67ffffffffffffffff81116104ed5760208091020190565b610238565b906105046104ff836104d5565b610277565b918252565b600052602060002090565b60ff1690565b61052661052b91610499565b610514565b90565b610538905461051a565b90565b90610545906100ab565b9052565b6105536060610277565b90565b906105a761059e6002610567610549565b94610580610577600083016104b6565b600088016104c3565b61059861058f600183016104b6565b602088016104c3565b0161052e565b6040840161053b565b565b6105b290610556565b90565b906105bf826104d1565b6105c8816104f2565b926105d66020850191610509565b6000915b8383106105e75750505050565b600360206001926105f7856105a9565b8152019201920191906105da565b52565b9061065961065060026106196103eb565b94610632610629600083016104b6565b600088016104c3565b61064a610641600183016104b6565b602088016104c3565b016105b5565b60408401610605565b565b61066490610608565b90565b61066f610434565b5061068461067f60003390610481565b61065b565b90565b90565b61069e6106996106a392610687565b61044a565b610063565b90565b60209181520190565b60007f56616c7565206d7573742062652067726561746572207468616e203000000000910152565b6106e4601c6020926106a6565b6106ed816106af565b0190565b61070790602081019060008183039101526106d7565b90565b1561071157565b610719610043565b62461bcd60e51b81528061072f600482016106f1565b0390fd5b9061075a916107553461074f610749600061068a565b91610063565b1161070a565b610be6565b565b5190565b600090565b61076d610549565b90602080808461077b6103f8565b8152016107866103f8565b815201610791610760565b81525050565b61079f610765565b90565b60005b8281106107b157505050565b6020906107bc610797565b81840152016107a5565b906107eb6107d3836104f2565b926020806107e186936104d5565b92019103906107a2565b565b60016107f99101610063565b90565b634e487b7160e01b600052603260045260246000fd5b9061081c8261075c565b81101561082d576020809102010190565b6107fc565b61083c9051610063565b90565b6108496060610277565b90565b9061085682610073565b811015610867576020809102010190565b6107fc565b6108766060610277565b90565b634e487b7160e01b600052600060045260246000fd5b60001b90565b906108a26000199161088f565b9181191691161790565b6108c06108bb6108c592610063565b61044a565b610063565b90565b90565b906108e06108db6108e7926108ac565b6108c8565b8254610895565b9055565b5190565b634e487b7160e01b600052601160045260246000fd5b61091461091a91939293610063565b92610063565b91610926838202610063565b92818404149015171561093557565b6108ef565b610945906003610905565b90565b1b90565b9190600861096891029161096260001984610948565b92610948565b9181191691161790565b9190610988610983610990936108ac565b6108c8565b90835461094c565b9055565b600090565b6109ab916109a5610994565b91610972565b565b60026000916109be83808301610999565b6109cb8360018301610999565b0155565b906000036109e2576109e0906109ad565b565b610879565b5b8181106109f3575050565b80610a0160006003936109cf565b016109e8565b9091828110610a16575b505050565b610a34610a2e610a28610a3f9561093a565b9261093a565b92610509565b9182019101906109e7565b388080610a11565b90680100000000000000008111610a705781610a65610a6e936104d1565b90828155610a07565b565b610238565b5190565b610a8390516100ab565b90565b90610a9260ff9161088f565b9181191691161790565b610aa5906100ab565b90565b90565b90610ac0610abb610ac792610a9c565b610aa8565b8254610a86565b9055565b90610b1160406002610b1794610af060008201610aea60008801610832565b906108cb565b610b0960018201610b0360208801610832565b906108cb565b019201610a79565b90610aab565b565b90610b2391610acb565b565b610b4a610b44610b3484610073565b93610b3f8585610a47565b610080565b91610509565b6000915b838310610b5b5750505050565b6003602082610b74610b6e600195610a75565b86610b19565b01920192019190610b4e565b90610b8a91610b25565b565b90610bd260406002610bd894610bb160008201610bab60008801610832565b906108cb565b610bca60018201610bc460208801610832565b906108cb565b0192016108eb565b90610b80565b565b90610be491610b8c565b565b9091610bf9610bf48461075c565b6107c6565b90610c04600061068a565b5b80610c20610c1a610c158861075c565b610063565b91610063565b1015610caa57610ca590610c9e610c446000610c3d898590610812565b5101610832565b610c8b610c5e6020610c578b8790610812565b5101610832565b610c82600091610c79610c6f61083f565b95600087016104c3565b602085016104c3565b6040830161053b565b858391610c98838361084c565b5261084c565b51506107ed565b610c05565b50925090610ce1610cf292610cd83493610ccf610cc561086c565b95600087016104c3565b602085016104c3565b60408301610605565b610ced60003390610481565b610bda565b565b90610cfe91610733565b56fea2646970667358221220d777a295a21523eba348ca136955e3c877de1ba85a83c7ae5607133f4c15ac0164736f6c634300081c0033","opcodes":"PUSH1 0x80 PUSH1 0x40 MSTORE CALLVALUE PUSH1 0x1C JUMPI PUSH1 0xE PUSH1 0x20 JUMP JUMPDEST PUSH2 0xD36 PUSH2 0x2C DUP3 CODECOPY PUSH2 0xD36 SWAP1 RETURN JUMPDEST PUSH1 0x26 JUMP JUMPDEST PUSH1 0x40 MLOAD SWAP1 JUMP JUMPDEST PUSH1 0x0 DUP1 REVERT INVALID PUSH1 0x80 PUSH1 0x40 MSTORE PUSH1 0x4 CALLDATASIZE LT ISZERO PUSH2 0x13 JUMPI JUMPDEST PUSH2 0x3E6 JUMP JUMPDEST PUSH2 0x1E PUSH1 0x0 CALLDATALOAD PUSH2 0x3D JUMP JUMPDEST DUP1 PUSH4 0x248278E1 EQ PUSH2 0x38 JUMPI PUSH4 0x8BFC40CD SUB PUSH2 0xE JUMPI PUSH2 0x3BC JUMP JUMPDEST PUSH2 0x1CB JUMP JUMPDEST PUSH1 0xE0 SHR SWAP1 JUMP JUMPDEST PUSH1 0x40 MLOAD SWAP1 JUMP JUMPDEST PUSH1 0x0 DUP1 REVERT JUMPDEST PUSH1 0x0 DUP1 REVERT JUMPDEST PUSH1 0x0 SWAP2 SUB SLT PUSH2 0x5E JUMPI JUMP JUMPDEST PUSH2 0x4E JUMP JUMPDEST SWAP1 JUMP JUMPDEST PUSH2 0x6F SWAP1 PUSH2 0x63 JUMP JUMPDEST SWAP1 MSTORE JUMP JUMPDEST MLOAD SWAP1 JUMP JUMPDEST PUSH1 0x20 SWAP2 DUP2 MSTORE ADD SWAP1 JUMP JUMPDEST PUSH1 0x20 ADD SWAP1 JUMP JUMPDEST PUSH4 0x4E487B71 PUSH1 0xE0 SHL PUSH1 0x0 MSTORE PUSH1 0x21 PUSH1 0x4 MSTORE PUSH1 0x24 PUSH1 0x0 REVERT JUMPDEST PUSH1 0x2 GT ISZERO PUSH2 0xA6 JUMPI JUMP JUMPDEST PUSH2 0x86 JUMP JUMPDEST SWAP1 PUSH2 0xB5 DUP3 PUSH2 0x9C JUMP JUMPDEST JUMP JUMPDEST PUSH2 0xC0 SWAP1 PUSH2 0xAB JUMP JUMPDEST SWAP1 JUMP JUMPDEST PUSH2 0xCC SWAP1 PUSH2 0xB7 JUMP JUMPDEST SWAP1 MSTORE JUMP JUMPDEST SWAP1 PUSH1 0x40 DUP1 PUSH2 0x106 SWAP4 PUSH2 0xEA PUSH1 0x0 DUP3 ADD MLOAD PUSH1 0x0 DUP7 ADD SWAP1 PUSH2 0x66 JUMP JUMPDEST PUSH2 0xFC PUSH1 0x20 DUP3 ADD MLOAD PUSH1 0x20 DUP7 ADD SWAP1 PUSH2 0x66 JUMP JUMPDEST ADD MLOAD SWAP2 ADD SWAP1 PUSH2 0xC3 JUMP JUMPDEST JUMP JUMPDEST SWAP1 PUSH2 0x115 DUP2 PUSH1 0x60 SWAP4 PUSH2 0xD0 JUMP JUMPDEST ADD SWAP1 JUMP JUMPDEST PUSH1 0x20 ADD SWAP1 JUMP JUMPDEST SWAP1 PUSH2 0x13C PUSH2 0x136 PUSH2 0x12F DUP5 PUSH2 0x73 JUMP JUMPDEST DUP1 SWAP4 PUSH2 0x77 JUMP JUMPDEST SWAP3 PUSH2 0x80 JUMP JUMPDEST SWAP1 PUSH1 0x0 JUMPDEST DUP2 DUP2 LT PUSH2 0x14D JUMPI POP POP POP SWAP1 JUMP JUMPDEST SWAP1 SWAP2 SWAP3 PUSH2 0x166 PUSH2 0x160 PUSH1 0x1 SWAP3 DUP7 MLOAD PUSH2 0x108 JUMP JUMPDEST SWAP5 PUSH2 0x119 JUMP JUMPDEST SWAP2 ADD SWAP2 SWAP1 SWAP2 PUSH2 0x140 JUMP JUMPDEST PUSH2 0x1AF SWAP2 PUSH1 0x40 PUSH1 0x60 DUP3 ADD SWAP3 PUSH2 0x18D PUSH1 0x0 DUP3 ADD MLOAD PUSH1 0x0 DUP6 ADD SWAP1 PUSH2 0x66 JUMP JUMPDEST PUSH2 0x19F PUSH1 0x20 DUP3 ADD MLOAD PUSH1 0x20 DUP6 ADD SWAP1 PUSH2 0x66 JUMP JUMPDEST ADD MLOAD SWAP1 PUSH1 0x40 DUP2 DUP5 SUB SWAP2 ADD MSTORE PUSH2 0x11F JUMP JUMPDEST SWAP1 JUMP JUMPDEST PUSH2 0x1C8 SWAP2 PUSH1 0x20 DUP3 ADD SWAP2 PUSH1 0x0 DUP2 DUP5 SUB SWAP2 ADD MSTORE PUSH2 0x170 JUMP JUMPDEST SWAP1 JUMP JUMPDEST CALLVALUE PUSH2 0x1FB JUMPI PUSH2 0x1DB CALLDATASIZE PUSH1 0x4 PUSH2 0x53 JUMP JUMPDEST PUSH2 0x1F7 PUSH2 0x1E6 PUSH2 0x667 JUMP JUMPDEST PUSH2 0x1EE PUSH2 0x43 JUMP JUMPDEST SWAP2 DUP3 SWAP2 DUP3 PUSH2 0x1B2 JUMP JUMPDEST SUB SWAP1 RETURN JUMPDEST PUSH2 0x49 JUMP JUMPDEST PUSH1 0x0 DUP1 REVERT JUMPDEST PUSH2 0x20E DUP2 PUSH2 0x63 JUMP JUMPDEST SUB PUSH2 0x215 JUMPI JUMP JUMPDEST PUSH1 0x0 DUP1 REVERT JUMPDEST SWAP1 POP CALLDATALOAD SWAP1 PUSH2 0x227 DUP3 PUSH2 0x205 JUMP JUMPDEST JUMP JUMPDEST PUSH1 0x0 DUP1 REVERT JUMPDEST PUSH1 0x1F DUP1 NOT SWAP2 ADD AND SWAP1 JUMP JUMPDEST PUSH4 0x4E487B71 PUSH1 0xE0 SHL PUSH1 0x0 MSTORE PUSH1 0x41 PUSH1 0x4 MSTORE PUSH1 0x24 PUSH1 0x0 REVERT JUMPDEST SWAP1 PUSH2 0x258 SWAP1 PUSH2 0x22E JUMP JUMPDEST DUP2 ADD SWAP1 DUP2 LT PUSH8 0xFFFFFFFFFFFFFFFF DUP3 GT OR PUSH2 0x272 JUMPI PUSH1 0x40 MSTORE JUMP JUMPDEST PUSH2 0x238 JUMP JUMPDEST SWAP1 PUSH2 0x28A PUSH2 0x283 PUSH2 0x43 JUMP JUMPDEST SWAP3 DUP4 PUSH2 0x24E JUMP JUMPDEST JUMP JUMPDEST PUSH8 0xFFFFFFFFFFFFFFFF DUP2 GT PUSH2 0x2A4 JUMPI PUSH1 0x20 DUP1 SWAP2 MUL ADD SWAP1 JUMP JUMPDEST PUSH2 0x238 JUMP JUMPDEST PUSH1 0x0 DUP1 REVERT JUMPDEST PUSH1 0x0 DUP1 REVERT JUMPDEST SWAP2 SWAP1 PUSH1 0x40 DUP4 DUP3 SUB SLT PUSH2 0x2EF JUMPI PUSH2 0x2E8 SWAP1 PUSH2 0x2CD PUSH1 0x40 PUSH2 0x277 JUMP JUMPDEST SWAP4 PUSH2 0x2DB DUP3 PUSH1 0x0 DUP4 ADD PUSH2 0x21A JUMP JUMPDEST PUSH1 0x0 DUP7 ADD MSTORE PUSH1 0x20 ADD PUSH2 0x21A JUMP JUMPDEST PUSH1 0x20 DUP4 ADD MSTORE JUMP JUMPDEST PUSH2 0x2AE JUMP JUMPDEST SWAP1 SWAP3 SWAP2 SWAP3 PUSH2 0x309 PUSH2 0x304 DUP3 PUSH2 0x28C JUMP JUMPDEST PUSH2 0x277 JUMP JUMPDEST SWAP4 DUP2 DUP6 MSTORE PUSH1 0x40 PUSH1 0x20 DUP7 ADD SWAP3 MUL DUP4 ADD SWAP3 DUP2 DUP5 GT PUSH2 0x348 JUMPI SWAP2 JUMPDEST DUP4 DUP4 LT PUSH2 0x32E JUMPI POP POP POP POP JUMP JUMPDEST PUSH1 0x20 PUSH1 0x40 SWAP2 PUSH2 0x33D DUP5 DUP7 PUSH2 0x2B3 JUMP JUMPDEST DUP2 MSTORE ADD SWAP3 ADD SWAP2 PUSH2 0x321 JUMP JUMPDEST PUSH2 0x2A9 JUMP JUMPDEST SWAP1 DUP1 PUSH1 0x1F DUP4 ADD SLT ISZERO PUSH2 0x36B JUMPI DUP2 PUSH1 0x20 PUSH2 0x368 SWAP4 CALLDATALOAD SWAP2 ADD PUSH2 0x2F4 JUMP JUMPDEST SWAP1 JUMP JUMPDEST PUSH2 0x229 JUMP JUMPDEST SWAP2 SWAP1 SWAP2 PUSH1 0x40 DUP2 DUP5 SUB SLT PUSH2 0x3B1 JUMPI PUSH2 0x38A DUP4 PUSH1 0x0 DUP4 ADD PUSH2 0x21A JUMP JUMPDEST SWAP3 PUSH1 0x20 DUP3 ADD CALLDATALOAD PUSH8 0xFFFFFFFFFFFFFFFF DUP2 GT PUSH2 0x3AC JUMPI PUSH2 0x3A9 SWAP3 ADD PUSH2 0x34D JUMP JUMPDEST SWAP1 JUMP JUMPDEST PUSH2 0x200 JUMP JUMPDEST PUSH2 0x4E JUMP JUMPDEST PUSH1 0x0 ADD SWAP1 JUMP JUMPDEST PUSH2 0x3D0 PUSH2 0x3CA CALLDATASIZE PUSH1 0x4 PUSH2 0x370 JUMP JUMPDEST SWAP1 PUSH2 0xCF4 JUMP JUMPDEST PUSH2 0x3D8 PUSH2 0x43 JUMP JUMPDEST DUP1 PUSH2 0x3E2 DUP2 PUSH2 0x3B6 JUMP JUMPDEST SUB SWAP1 RETURN JUMPDEST PUSH1 0x0 DUP1 REVERT JUMPDEST PUSH2 0x3F5 PUSH1 0x60 PUSH2 0x277 JUMP JUMPDEST SWAP1 JUMP JUMPDEST PUSH1 0x0 SWAP1 JUMP JUMPDEST PUSH1 0x60 SWAP1 JUMP JUMPDEST PUSH2 0x40A PUSH2 0x3EB JUMP JUMPDEST SWAP1 PUSH1 0x20 DUP1 DUP1 DUP5 PUSH2 0x418 PUSH2 0x3F8 JUMP JUMPDEST DUP2 MSTORE ADD PUSH2 0x423 PUSH2 0x3F8 JUMP JUMPDEST DUP2 MSTORE ADD PUSH2 0x42E PUSH2 0x3FD JUMP JUMPDEST DUP2 MSTORE POP POP JUMP JUMPDEST PUSH2 0x43C PUSH2 0x402 JUMP JUMPDEST SWAP1 JUMP JUMPDEST PUSH1 0x1 DUP1 PUSH1 0xA0 SHL SUB AND SWAP1 JUMP JUMPDEST SWAP1 JUMP JUMPDEST PUSH2 0x461 PUSH2 0x45C PUSH2 0x466 SWAP3 PUSH2 0x43F JUMP JUMPDEST PUSH2 0x44A JUMP JUMPDEST PUSH2 0x43F JUMP JUMPDEST SWAP1 JUMP JUMPDEST PUSH2 0x472 SWAP1 PUSH2 0x44D JUMP JUMPDEST SWAP1 JUMP JUMPDEST PUSH2 0x47E SWAP1 PUSH2 0x469 JUMP JUMPDEST SWAP1 JUMP JUMPDEST SWAP1 PUSH2 0x48B SWAP1 PUSH2 0x475 JUMP JUMPDEST PUSH1 0x0 MSTORE PUSH1 0x20 MSTORE PUSH1 0x40 PUSH1 0x0 KECCAK256 SWAP1 JUMP JUMPDEST PUSH1 0x0 SHR SWAP1 JUMP JUMPDEST SWAP1 JUMP JUMPDEST PUSH2 0x4AE PUSH2 0x4B3 SWAP2 PUSH2 0x499 JUMP JUMPDEST PUSH2 0x49F JUMP JUMPDEST SWAP1 JUMP JUMPDEST PUSH2 0x4C0 SWAP1 SLOAD PUSH2 0x4A2 JUMP JUMPDEST SWAP1 JUMP JUMPDEST SWAP1 PUSH2 0x4CD SWAP1 PUSH2 0x63 JUMP JUMPDEST SWAP1 MSTORE JUMP JUMPDEST SLOAD SWAP1 JUMP JUMPDEST PUSH8 0xFFFFFFFFFFFFFFFF DUP2 GT PUSH2 0x4ED JUMPI PUSH1 0x20 DUP1 SWAP2 MUL ADD SWAP1 JUMP JUMPDEST PUSH2 0x238 JUMP JUMPDEST SWAP1 PUSH2 0x504 PUSH2 0x4FF DUP4 PUSH2 0x4D5 JUMP JUMPDEST PUSH2 0x277 JUMP JUMPDEST SWAP2 DUP3 MSTORE JUMP JUMPDEST PUSH1 0x0 MSTORE PUSH1 0x20 PUSH1 0x0 KECCAK256 SWAP1 JUMP JUMPDEST PUSH1 0xFF AND SWAP1 JUMP JUMPDEST PUSH2 0x526 PUSH2 0x52B SWAP2 PUSH2 0x499 JUMP JUMPDEST PUSH2 0x514 JUMP JUMPDEST SWAP1 JUMP JUMPDEST PUSH2 0x538 SWAP1 SLOAD PUSH2 0x51A JUMP JUMPDEST SWAP1 JUMP JUMPDEST SWAP1 PUSH2 0x545 SWAP1 PUSH2 0xAB JUMP JUMPDEST SWAP1 MSTORE JUMP JUMPDEST PUSH2 0x553 PUSH1 0x60 PUSH2 0x277 JUMP JUMPDEST SWAP1 JUMP JUMPDEST SWAP1 PUSH2 0x5A7 PUSH2 0x59E PUSH1 0x2 PUSH2 0x567 PUSH2 0x549 JUMP JUMPDEST SWAP5 PUSH2 0x580 PUSH2 0x577 PUSH1 0x0 DUP4 ADD PUSH2 0x4B6 JUMP JUMPDEST PUSH1 0x0 DUP9 ADD PUSH2 0x4C3 JUMP JUMPDEST PUSH2 0x598 PUSH2 0x58F PUSH1 0x1 DUP4 ADD PUSH2 0x4B6 JUMP JUMPDEST PUSH1 0x20 DUP9 ADD PUSH2 0x4C3 JUMP JUMPDEST ADD PUSH2 0x52E JUMP JUMPDEST PUSH1 0x40 DUP5 ADD PUSH2 0x53B JUMP JUMPDEST JUMP JUMPDEST PUSH2 0x5B2 SWAP1 PUSH2 0x556 JUMP JUMPDEST SWAP1 JUMP JUMPDEST SWAP1 PUSH2 0x5BF DUP3 PUSH2 0x4D1 JUMP JUMPDEST PUSH2 0x5C8 DUP2 PUSH2 0x4F2 JUMP JUMPDEST SWAP3 PUSH2 0x5D6 PUSH1 0x20 DUP6 ADD SWAP2 PUSH2 0x509 JUMP JUMPDEST PUSH1 0x0 SWAP2 JUMPDEST DUP4 DUP4 LT PUSH2 0x5E7 JUMPI POP POP POP POP JUMP JUMPDEST PUSH1 0x3 PUSH1 0x20 PUSH1 0x1 SWAP3 PUSH2 0x5F7 DUP6 PUSH2 0x5A9 JUMP JUMPDEST DUP2 MSTORE ADD SWAP3 ADD SWAP3 ADD SWAP2 SWAP1 PUSH2 0x5DA JUMP JUMPDEST MSTORE JUMP JUMPDEST SWAP1 PUSH2 0x659 PUSH2 0x650 PUSH1 0x2 PUSH2 0x619 PUSH2 0x3EB JUMP JUMPDEST SWAP5 PUSH2 0x632 PUSH2 0x629 PUSH1 0x0 DUP4 ADD PUSH2 0x4B6 JUMP JUMPDEST PUSH1 0x0 DUP9 ADD PUSH2 0x4C3 JUMP JUMPDEST PUSH2 0x64A PUSH2 0x641 PUSH1 0x1 DUP4 ADD PUSH2 0x4B6 JUMP JUMPDEST PUSH1 0x20 DUP9 ADD PUSH2 0x4C3 JUMP JUMPDEST ADD PUSH2 0x5B5 JUMP JUMPDEST PUSH1 0x40 DUP5 ADD PUSH2 0x605 JUMP JUMPDEST JUMP JUMPDEST PUSH2 0x664 SWAP1 PUSH2 0x608 JUMP JUMPDEST SWAP1 JUMP JUMPDEST PUSH2 0x66F PUSH2 0x434 JUMP JUMPDEST POP PUSH2 0x684 PUSH2 0x67F PUSH1 0x0 CALLER SWAP1 PUSH2 0x481 JUMP JUMPDEST PUSH2 0x65B JUMP JUMPDEST SWAP1 JUMP JUMPDEST SWAP1 JUMP JUMPDEST PUSH2 0x69E PUSH2 0x699 PUSH2 0x6A3 SWAP3 PUSH2 0x687 JUMP JUMPDEST PUSH2 0x44A JUMP JUMPDEST PUSH2 0x63 JUMP JUMPDEST SWAP1 JUMP JUMPDEST PUSH1 0x20 SWAP2 DUP2 MSTORE ADD SWAP1 JUMP JUMPDEST PUSH1 0x0 PUSH32 0x56616C7565206D7573742062652067726561746572207468616E203000000000 SWAP2 ADD MSTORE JUMP JUMPDEST PUSH2 0x6E4 PUSH1 0x1C PUSH1 0x20 SWAP3 PUSH2 0x6A6 JUMP JUMPDEST PUSH2 0x6ED DUP2 PUSH2 0x6AF JUMP JUMPDEST ADD SWAP1 JUMP JUMPDEST PUSH2 0x707 SWAP1 PUSH1 0x20 DUP2 ADD SWAP1 PUSH1 0x0 DUP2 DUP4 SUB SWAP2 ADD MSTORE PUSH2 0x6D7 JUMP JUMPDEST SWAP1 JUMP JUMPDEST ISZERO PUSH2 0x711 JUMPI JUMP JUMPDEST PUSH2 0x719 PUSH2 0x43 JUMP JUMPDEST PUSH3 0x461BCD PUSH1 0xE5 SHL DUP2 MSTORE DUP1 PUSH2 0x72F PUSH1 0x4 DUP3 ADD PUSH2 0x6F1 JUMP JUMPDEST SUB SWAP1 REVERT JUMPDEST SWAP1 PUSH2 0x75A SWAP2 PUSH2 0x755 CALLVALUE PUSH2 0x74F PUSH2 0x749 PUSH1 0x0 PUSH2 0x68A JUMP JUMPDEST SWAP2 PUSH2 0x63 JUMP JUMPDEST GT PUSH2 0x70A JUMP JUMPDEST PUSH2 0xBE6 JUMP JUMPDEST JUMP JUMPDEST MLOAD SWAP1 JUMP JUMPDEST PUSH1 0x0 SWAP1 JUMP JUMPDEST PUSH2 0x76D PUSH2 0x549 JUMP JUMPDEST SWAP1 PUSH1 0x20 DUP1 DUP1 DUP5 PUSH2 0x77B PUSH2 0x3F8 JUMP JUMPDEST DUP2 MSTORE ADD PUSH2 0x786 PUSH2 0x3F8 JUMP JUMPDEST DUP2 MSTORE ADD PUSH2 0x791 PUSH2 0x760 JUMP JUMPDEST DUP2 MSTORE POP POP JUMP JUMPDEST PUSH2 0x79F PUSH2 0x765 JUMP JUMPDEST SWAP1 JUMP JUMPDEST PUSH1 0x0 JUMPDEST DUP3 DUP2 LT PUSH2 0x7B1 JUMPI POP POP POP JUMP JUMPDEST PUSH1 0x20 SWAP1 PUSH2 0x7BC PUSH2 0x797 JUMP JUMPDEST DUP2 DUP5 ADD MSTORE ADD PUSH2 0x7A5 JUMP JUMPDEST SWAP1 PUSH2 0x7EB PUSH2 0x7D3 DUP4 PUSH2 0x4F2 JUMP JUMPDEST SWAP3 PUSH1 0x20 DUP1 PUSH2 0x7E1 DUP7 SWAP4 PUSH2 0x4D5 JUMP JUMPDEST SWAP3 ADD SWAP2 SUB SWAP1 PUSH2 0x7A2 JUMP JUMPDEST JUMP JUMPDEST PUSH1 0x1 PUSH2 0x7F9 SWAP2 ADD PUSH2 0x63 JUMP JUMPDEST SWAP1 JUMP JUMPDEST PUSH4 0x4E487B71 PUSH1 0xE0 SHL PUSH1 0x0 MSTORE PUSH1 0x32 PUSH1 0x4 MSTORE PUSH1 0x24 PUSH1 0x0 REVERT JUMPDEST SWAP1 PUSH2 0x81C DUP3 PUSH2 0x75C JUMP JUMPDEST DUP2 LT ISZERO PUSH2 0x82D JUMPI PUSH1 0x20 DUP1 SWAP2 MUL ADD ADD SWAP1 JUMP JUMPDEST PUSH2 0x7FC JUMP JUMPDEST PUSH2 0x83C SWAP1 MLOAD PUSH2 0x63 JUMP JUMPDEST SWAP1 JUMP JUMPDEST PUSH2 0x849 PUSH1 0x60 PUSH2 0x277 JUMP JUMPDEST SWAP1 JUMP JUMPDEST SWAP1 PUSH2 0x856 DUP3 PUSH2 0x73 JUMP JUMPDEST DUP2 LT ISZERO PUSH2 0x867 JUMPI PUSH1 0x20 DUP1 SWAP2 MUL ADD ADD SWAP1 JUMP JUMPDEST PUSH2 0x7FC JUMP JUMPDEST PUSH2 0x876 PUSH1 0x60 PUSH2 0x277 JUMP JUMPDEST SWAP1 JUMP JUMPDEST PUSH4 0x4E487B71 PUSH1 0xE0 SHL PUSH1 0x0 MSTORE PUSH1 0x0 PUSH1 0x4 MSTORE PUSH1 0x24 PUSH1 0x0 REVERT JUMPDEST PUSH1 0x0 SHL SWAP1 JUMP JUMPDEST SWAP1 PUSH2 0x8A2 PUSH1 0x0 NOT SWAP2 PUSH2 0x88F JUMP JUMPDEST SWAP2 DUP2 NOT AND SWAP2 AND OR SWAP1 JUMP JUMPDEST PUSH2 0x8C0 PUSH2 0x8BB PUSH2 0x8C5 SWAP3 PUSH2 0x63 JUMP JUMPDEST PUSH2 0x44A JUMP JUMPDEST PUSH2 0x63 JUMP JUMPDEST SWAP1 JUMP JUMPDEST SWAP1 JUMP JUMPDEST SWAP1 PUSH2 0x8E0 PUSH2 0x8DB PUSH2 0x8E7 SWAP3 PUSH2 0x8AC JUMP JUMPDEST PUSH2 0x8C8 JUMP JUMPDEST DUP3 SLOAD PUSH2 0x895 JUMP JUMPDEST SWAP1 SSTORE JUMP JUMPDEST MLOAD SWAP1 JUMP JUMPDEST PUSH4 0x4E487B71 PUSH1 0xE0 SHL PUSH1 0x0 MSTORE PUSH1 0x11 PUSH1 0x4 MSTORE PUSH1 0x24 PUSH1 0x0 REVERT JUMPDEST PUSH2 0x914 PUSH2 0x91A SWAP2 SWAP4 SWAP3 SWAP4 PUSH2 0x63 JUMP JUMPDEST SWAP3 PUSH2 0x63 JUMP JUMPDEST SWAP2 PUSH2 0x926 DUP4 DUP3 MUL PUSH2 0x63 JUMP JUMPDEST SWAP3 DUP2 DUP5 DIV EQ SWAP1 ISZERO OR ISZERO PUSH2 0x935 JUMPI JUMP JUMPDEST PUSH2 0x8EF JUMP JUMPDEST PUSH2 0x945 SWAP1 PUSH1 0x3 PUSH2 0x905 JUMP JUMPDEST SWAP1 JUMP JUMPDEST SHL SWAP1 JUMP JUMPDEST SWAP2 SWAP1 PUSH1 0x8 PUSH2 0x968 SWAP2 MUL SWAP2 PUSH2 0x962 PUSH1 0x0 NOT DUP5 PUSH2 0x948 JUMP JUMPDEST SWAP3 PUSH2 0x948 JUMP JUMPDEST SWAP2 DUP2 NOT AND SWAP2 AND OR SWAP1 JUMP JUMPDEST SWAP2 SWAP1 PUSH2 0x988 PUSH2 0x983 PUSH2 0x990 SWAP4 PUSH2 0x8AC JUMP JUMPDEST PUSH2 0x8C8 JUMP JUMPDEST SWAP1 DUP4 SLOAD PUSH2 0x94C JUMP JUMPDEST SWAP1 SSTORE JUMP JUMPDEST PUSH1 0x0 SWAP1 JUMP JUMPDEST PUSH2 0x9AB SWAP2 PUSH2 0x9A5 PUSH2 0x994 JUMP JUMPDEST SWAP2 PUSH2 0x972 JUMP JUMPDEST JUMP JUMPDEST PUSH1 0x2 PUSH1 0x0 SWAP2 PUSH2 0x9BE DUP4 DUP1 DUP4 ADD PUSH2 0x999 JUMP JUMPDEST PUSH2 0x9CB DUP4 PUSH1 0x1 DUP4 ADD PUSH2 0x999 JUMP JUMPDEST ADD SSTORE JUMP JUMPDEST SWAP1 PUSH1 0x0 SUB PUSH2 0x9E2 JUMPI PUSH2 0x9E0 SWAP1 PUSH2 0x9AD JUMP JUMPDEST JUMP JUMPDEST PUSH2 0x879 JUMP JUMPDEST JUMPDEST DUP2 DUP2 LT PUSH2 0x9F3 JUMPI POP POP JUMP JUMPDEST DUP1 PUSH2 0xA01 PUSH1 0x0 PUSH1 0x3 SWAP4 PUSH2 0x9CF JUMP JUMPDEST ADD PUSH2 0x9E8 JUMP JUMPDEST SWAP1 SWAP2 DUP3 DUP2 LT PUSH2 0xA16 JUMPI JUMPDEST POP POP POP JUMP JUMPDEST PUSH2 0xA34 PUSH2 0xA2E PUSH2 0xA28 PUSH2 0xA3F SWAP6 PUSH2 0x93A JUMP JUMPDEST SWAP3 PUSH2 0x93A JUMP JUMPDEST SWAP3 PUSH2 0x509 JUMP JUMPDEST SWAP2 DUP3 ADD SWAP2 ADD SWAP1 PUSH2 0x9E7 JUMP JUMPDEST CODESIZE DUP1 DUP1 PUSH2 0xA11 JUMP JUMPDEST SWAP1 PUSH9 0x10000000000000000 DUP2 GT PUSH2 0xA70 JUMPI DUP2 PUSH2 0xA65 PUSH2 0xA6E SWAP4 PUSH2 0x4D1 JUMP JUMPDEST SWAP1 DUP3 DUP2 SSTORE PUSH2 0xA07 JUMP JUMPDEST JUMP JUMPDEST PUSH2 0x238 JUMP JUMPDEST MLOAD SWAP1 JUMP JUMPDEST PUSH2 0xA83 SWAP1 MLOAD PUSH2 0xAB JUMP JUMPDEST SWAP1 JUMP JUMPDEST SWAP1 PUSH2 0xA92 PUSH1 0xFF SWAP2 PUSH2 0x88F JUMP JUMPDEST SWAP2 DUP2 NOT AND SWAP2 AND OR SWAP1 JUMP JUMPDEST PUSH2 0xAA5 SWAP1 PUSH2 0xAB JUMP JUMPDEST SWAP1 JUMP JUMPDEST SWAP1 JUMP JUMPDEST SWAP1 PUSH2 0xAC0 PUSH2 0xABB PUSH2 0xAC7 SWAP3 PUSH2 0xA9C JUMP JUMPDEST PUSH2 0xAA8 JUMP JUMPDEST DUP3 SLOAD PUSH2 0xA86 JUMP JUMPDEST SWAP1 SSTORE JUMP JUMPDEST SWAP1 PUSH2 0xB11 PUSH1 0x40 PUSH1 0x2 PUSH2 0xB17 SWAP5 PUSH2 0xAF0 PUSH1 0x0 DUP3 ADD PUSH2 0xAEA PUSH1 0x0 DUP9 ADD PUSH2 0x832 JUMP JUMPDEST SWAP1 PUSH2 0x8CB JUMP JUMPDEST PUSH2 0xB09 PUSH1 0x1 DUP3 ADD PUSH2 0xB03 PUSH1 0x20 DUP9 ADD PUSH2 0x832 JUMP JUMPDEST SWAP1 PUSH2 0x8CB JUMP JUMPDEST ADD SWAP3 ADD PUSH2 0xA79 JUMP JUMPDEST SWAP1 PUSH2 0xAAB JUMP JUMPDEST JUMP JUMPDEST SWAP1 PUSH2 0xB23 SWAP2 PUSH2 0xACB JUMP JUMPDEST JUMP JUMPDEST PUSH2 0xB4A PUSH2 0xB44 PUSH2 0xB34 DUP5 PUSH2 0x73 JUMP JUMPDEST SWAP4 PUSH2 0xB3F DUP6 DUP6 PUSH2 0xA47 JUMP JUMPDEST PUSH2 0x80 JUMP JUMPDEST SWAP2 PUSH2 0x509 JUMP JUMPDEST PUSH1 0x0 SWAP2 JUMPDEST DUP4 DUP4 LT PUSH2 0xB5B JUMPI POP POP POP POP JUMP JUMPDEST PUSH1 0x3 PUSH1 0x20 DUP3 PUSH2 0xB74 PUSH2 0xB6E PUSH1 0x1 SWAP6 PUSH2 0xA75 JUMP JUMPDEST DUP7 PUSH2 0xB19 JUMP JUMPDEST ADD SWAP3 ADD SWAP3 ADD SWAP2 SWAP1 PUSH2 0xB4E JUMP JUMPDEST SWAP1 PUSH2 0xB8A SWAP2 PUSH2 0xB25 JUMP JUMPDEST JUMP JUMPDEST SWAP1 PUSH2 0xBD2 PUSH1 0x40 PUSH1 0x2 PUSH2 0xBD8 SWAP5 PUSH2 0xBB1 PUSH1 0x0 DUP3 ADD PUSH2 0xBAB PUSH1 0x0 DUP9 ADD PUSH2 0x832 JUMP JUMPDEST SWAP1 PUSH2 0x8CB JUMP JUMPDEST PUSH2 0xBCA PUSH1 0x1 DUP3 ADD PUSH2 0xBC4 PUSH1 0x20 DUP9 ADD PUSH2 0x832 JUMP JUMPDEST SWAP1 PUSH2 0x8CB JUMP JUMPDEST ADD SWAP3 ADD PUSH2 0x8EB JUMP JUMPDEST SWAP1 PUSH2 0xB80 JUMP JUMPDEST JUMP JUMPDEST SWAP1 PUSH2 0xBE4 SWAP2 PUSH2 0xB8C JUMP JUMPDEST JUMP JUMPDEST SWAP1 SWAP2 PUSH2 0xBF9 PUSH2 0xBF4 DUP5 PUSH2 0x75C JUMP JUMPDEST PUSH2 0x7C6 JUMP JUMPDEST SWAP1 PUSH2 0xC04 PUSH1 0x0 PUSH2 0x68A JUMP JUMPDEST JUMPDEST DUP1 PUSH2 0xC20 PUSH2 0xC1A PUSH2 0xC15 DUP9 PUSH2 0x75C JUMP JUMPDEST PUSH2 0x63 JUMP JUMPDEST SWAP2 PUSH2 0x63 JUMP JUMPDEST LT ISZERO PUSH2 0xCAA JUMPI PUSH2 0xCA5 SWAP1 PUSH2 0xC9E PUSH2 0xC44 PUSH1 0x0 PUSH2 0xC3D DUP10 DUP6 SWAP1 PUSH2 0x812 JUMP JUMPDEST MLOAD ADD PUSH2 0x832 JUMP JUMPDEST PUSH2 0xC8B PUSH2 0xC5E PUSH1 0x20 PUSH2 0xC57 DUP12 DUP8 SWAP1 PUSH2 0x812 JUMP JUMPDEST MLOAD ADD PUSH2 0x832 JUMP JUMPDEST PUSH2 0xC82 PUSH1 0x0 SWAP2 PUSH2 0xC79 PUSH2 0xC6F PUSH2 0x83F JUMP JUMPDEST SWAP6 PUSH1 0x0 DUP8 ADD PUSH2 0x4C3 JUMP JUMPDEST PUSH1 0x20 DUP6 ADD PUSH2 0x4C3 JUMP JUMPDEST PUSH1 0x40 DUP4 ADD PUSH2 0x53B JUMP JUMPDEST DUP6 DUP4 SWAP2 PUSH2 0xC98 DUP4 DUP4 PUSH2 0x84C JUMP JUMPDEST MSTORE PUSH2 0x84C JUMP JUMPDEST MLOAD POP PUSH2 0x7ED JUMP JUMPDEST PUSH2 0xC05 JUMP JUMPDEST POP SWAP3 POP SWAP1 PUSH2 0xCE1 PUSH2 0xCF2 SWAP3 PUSH2 0xCD8 CALLVALUE SWAP4 PUSH2 0xCCF PUSH2 0xCC5 PUSH2 0x86C JUMP JUMPDEST SWAP6 PUSH1 0x0 DUP8 ADD PUSH2 0x4C3 JUMP JUMPDEST PUSH1 0x20 DUP6 ADD PUSH2 0x4C3 JUMP JUMPDEST PUSH1 0x40 DUP4 ADD PUSH2 0x605 JUMP JUMPDEST PUSH2 0xCED PUSH1 0x0 CALLER SWAP1 PUSH2 0x481 JUMP JUMPDEST PUSH2 0xBDA JUMP JUMPDEST JUMP JUMPDEST SWAP1 PUSH2 0xCFE SWAP2 PUSH2 0x733 JUMP JUMPDEST JUMP INVALID LOG2 PUSH5 0x6970667358 0x22 SLT KECCAK256 0xD7 PUSH24 0xA295A21523EBA348CA136955E3C877DE1BA85A83C7AE5607 SGT EXTCODEHASH 0x4C ISZERO 0xAC ADD PUSH5 0x736F6C6343 STOP ADDMOD SHR STOP CALLER "},"methodIdentifiers":{"create_transaction(uint256,(uint256,uint256)[])":"8bfc40cd","get_transaction()":"248278e1"}}}}}